
Serial_Test.elf:     file format elf32-littlearm

Sections:
Idx Name          Size      VMA       LMA       File off  Algn
  0 .isr_vector   0000010c  08000000  08000000  00010000  2**0
                  CONTENTS, ALLOC, LOAD, READONLY, DATA
  1 .text         00007f34  08000110  08000110  00010110  2**3
                  CONTENTS, ALLOC, LOAD, READONLY, CODE
  2 .rodata       000004ec  08008048  08008048  00018048  2**3
                  CONTENTS, ALLOC, LOAD, READONLY, DATA
  3 .ARM.extab    00000000  08008534  08008534  000201e0  2**0
                  CONTENTS
  4 .ARM          00000000  08008534  08008534  000201e0  2**0
                  CONTENTS
  5 .preinit_array 00000000  08008534  08008534  000201e0  2**0
                  CONTENTS, ALLOC, LOAD, DATA
  6 .init_array   00000004  08008534  08008534  00018534  2**2
                  CONTENTS, ALLOC, LOAD, DATA
  7 .fini_array   00000004  08008538  08008538  00018538  2**2
                  CONTENTS, ALLOC, LOAD, DATA
  8 .data         000001e0  20000000  0800853c  00020000  2**2
                  CONTENTS, ALLOC, LOAD, DATA
  9 .bss          00000780  200001e0  0800871c  000201e0  2**2
                  ALLOC
 10 ._user_heap_stack 00000600  20000960  0800871c  00020960  2**0
                  ALLOC
 11 .ARM.attributes 00000029  00000000  00000000  000201e0  2**0
                  CONTENTS, READONLY
 12 .debug_info   000095a8  00000000  00000000  00020209  2**0
                  CONTENTS, READONLY, DEBUGGING, OCTETS
 13 .debug_abbrev 00001e21  00000000  00000000  000297b1  2**0
                  CONTENTS, READONLY, DEBUGGING, OCTETS
 14 .debug_aranges 000007e8  00000000  00000000  0002b5d8  2**3
                  CONTENTS, READONLY, DEBUGGING, OCTETS
 15 .debug_ranges 00000720  00000000  00000000  0002bdc0  2**3
                  CONTENTS, READONLY, DEBUGGING, OCTETS
 16 .debug_macro  000183a6  00000000  00000000  0002c4e0  2**0
                  CONTENTS, READONLY, DEBUGGING, OCTETS
 17 .debug_line   00009612  00000000  00000000  00044886  2**0
                  CONTENTS, READONLY, DEBUGGING, OCTETS
 18 .debug_str    00084260  00000000  00000000  0004de98  2**0
                  CONTENTS, READONLY, DEBUGGING, OCTETS
 19 .comment      00000053  00000000  00000000  000d20f8  2**0
                  CONTENTS, READONLY
 20 .debug_frame  000032d0  00000000  00000000  000d214c  2**2
                  CONTENTS, READONLY, DEBUGGING, OCTETS

Disassembly of section .text:

08000110 <__do_global_dtors_aux>:
 8000110:	b510      	push	{r4, lr}
 8000112:	4c05      	ldr	r4, [pc, #20]	; (8000128 <__do_global_dtors_aux+0x18>)
 8000114:	7823      	ldrb	r3, [r4, #0]
 8000116:	b933      	cbnz	r3, 8000126 <__do_global_dtors_aux+0x16>
 8000118:	4b04      	ldr	r3, [pc, #16]	; (800012c <__do_global_dtors_aux+0x1c>)
 800011a:	b113      	cbz	r3, 8000122 <__do_global_dtors_aux+0x12>
 800011c:	4804      	ldr	r0, [pc, #16]	; (8000130 <__do_global_dtors_aux+0x20>)
 800011e:	f3af 8000 	nop.w
 8000122:	2301      	movs	r3, #1
 8000124:	7023      	strb	r3, [r4, #0]
 8000126:	bd10      	pop	{r4, pc}
 8000128:	200001e0 	.word	0x200001e0
 800012c:	00000000 	.word	0x00000000
 8000130:	0800802c 	.word	0x0800802c

08000134 <frame_dummy>:
 8000134:	b508      	push	{r3, lr}
 8000136:	4b03      	ldr	r3, [pc, #12]	; (8000144 <frame_dummy+0x10>)
 8000138:	b11b      	cbz	r3, 8000142 <frame_dummy+0xe>
 800013a:	4903      	ldr	r1, [pc, #12]	; (8000148 <frame_dummy+0x14>)
 800013c:	4803      	ldr	r0, [pc, #12]	; (800014c <frame_dummy+0x18>)
 800013e:	f3af 8000 	nop.w
 8000142:	bd08      	pop	{r3, pc}
 8000144:	00000000 	.word	0x00000000
 8000148:	200001e4 	.word	0x200001e4
 800014c:	0800802c 	.word	0x0800802c

08000150 <strlen>:
 8000150:	4603      	mov	r3, r0
 8000152:	f813 2b01 	ldrb.w	r2, [r3], #1
 8000156:	2a00      	cmp	r2, #0
 8000158:	d1fb      	bne.n	8000152 <strlen+0x2>
 800015a:	1a18      	subs	r0, r3, r0
 800015c:	3801      	subs	r0, #1
 800015e:	4770      	bx	lr

08000160 <__aeabi_drsub>:
 8000160:	f081 4100 	eor.w	r1, r1, #2147483648	; 0x80000000
 8000164:	e002      	b.n	800016c <__adddf3>
 8000166:	bf00      	nop

08000168 <__aeabi_dsub>:
 8000168:	f083 4300 	eor.w	r3, r3, #2147483648	; 0x80000000

0800016c <__adddf3>:
 800016c:	b530      	push	{r4, r5, lr}
 800016e:	ea4f 0441 	mov.w	r4, r1, lsl #1
 8000172:	ea4f 0543 	mov.w	r5, r3, lsl #1
 8000176:	ea94 0f05 	teq	r4, r5
 800017a:	bf08      	it	eq
 800017c:	ea90 0f02 	teqeq	r0, r2
 8000180:	bf1f      	itttt	ne
 8000182:	ea54 0c00 	orrsne.w	ip, r4, r0
 8000186:	ea55 0c02 	orrsne.w	ip, r5, r2
 800018a:	ea7f 5c64 	mvnsne.w	ip, r4, asr #21
 800018e:	ea7f 5c65 	mvnsne.w	ip, r5, asr #21
 8000192:	f000 80e2 	beq.w	800035a <__adddf3+0x1ee>
 8000196:	ea4f 5454 	mov.w	r4, r4, lsr #21
 800019a:	ebd4 5555 	rsbs	r5, r4, r5, lsr #21
 800019e:	bfb8      	it	lt
 80001a0:	426d      	neglt	r5, r5
 80001a2:	dd0c      	ble.n	80001be <__adddf3+0x52>
 80001a4:	442c      	add	r4, r5
 80001a6:	ea80 0202 	eor.w	r2, r0, r2
 80001aa:	ea81 0303 	eor.w	r3, r1, r3
 80001ae:	ea82 0000 	eor.w	r0, r2, r0
 80001b2:	ea83 0101 	eor.w	r1, r3, r1
 80001b6:	ea80 0202 	eor.w	r2, r0, r2
 80001ba:	ea81 0303 	eor.w	r3, r1, r3
 80001be:	2d36      	cmp	r5, #54	; 0x36
 80001c0:	bf88      	it	hi
 80001c2:	bd30      	pophi	{r4, r5, pc}
 80001c4:	f011 4f00 	tst.w	r1, #2147483648	; 0x80000000
 80001c8:	ea4f 3101 	mov.w	r1, r1, lsl #12
 80001cc:	f44f 1c80 	mov.w	ip, #1048576	; 0x100000
 80001d0:	ea4c 3111 	orr.w	r1, ip, r1, lsr #12
 80001d4:	d002      	beq.n	80001dc <__adddf3+0x70>
 80001d6:	4240      	negs	r0, r0
 80001d8:	eb61 0141 	sbc.w	r1, r1, r1, lsl #1
 80001dc:	f013 4f00 	tst.w	r3, #2147483648	; 0x80000000
 80001e0:	ea4f 3303 	mov.w	r3, r3, lsl #12
 80001e4:	ea4c 3313 	orr.w	r3, ip, r3, lsr #12
 80001e8:	d002      	beq.n	80001f0 <__adddf3+0x84>
 80001ea:	4252      	negs	r2, r2
 80001ec:	eb63 0343 	sbc.w	r3, r3, r3, lsl #1
 80001f0:	ea94 0f05 	teq	r4, r5
 80001f4:	f000 80a7 	beq.w	8000346 <__adddf3+0x1da>
 80001f8:	f1a4 0401 	sub.w	r4, r4, #1
 80001fc:	f1d5 0e20 	rsbs	lr, r5, #32
 8000200:	db0d      	blt.n	800021e <__adddf3+0xb2>
 8000202:	fa02 fc0e 	lsl.w	ip, r2, lr
 8000206:	fa22 f205 	lsr.w	r2, r2, r5
 800020a:	1880      	adds	r0, r0, r2
 800020c:	f141 0100 	adc.w	r1, r1, #0
 8000210:	fa03 f20e 	lsl.w	r2, r3, lr
 8000214:	1880      	adds	r0, r0, r2
 8000216:	fa43 f305 	asr.w	r3, r3, r5
 800021a:	4159      	adcs	r1, r3
 800021c:	e00e      	b.n	800023c <__adddf3+0xd0>
 800021e:	f1a5 0520 	sub.w	r5, r5, #32
 8000222:	f10e 0e20 	add.w	lr, lr, #32
 8000226:	2a01      	cmp	r2, #1
 8000228:	fa03 fc0e 	lsl.w	ip, r3, lr
 800022c:	bf28      	it	cs
 800022e:	f04c 0c02 	orrcs.w	ip, ip, #2
 8000232:	fa43 f305 	asr.w	r3, r3, r5
 8000236:	18c0      	adds	r0, r0, r3
 8000238:	eb51 71e3 	adcs.w	r1, r1, r3, asr #31
 800023c:	f001 4500 	and.w	r5, r1, #2147483648	; 0x80000000
 8000240:	d507      	bpl.n	8000252 <__adddf3+0xe6>
 8000242:	f04f 0e00 	mov.w	lr, #0
 8000246:	f1dc 0c00 	rsbs	ip, ip, #0
 800024a:	eb7e 0000 	sbcs.w	r0, lr, r0
 800024e:	eb6e 0101 	sbc.w	r1, lr, r1
 8000252:	f5b1 1f80 	cmp.w	r1, #1048576	; 0x100000
 8000256:	d31b      	bcc.n	8000290 <__adddf3+0x124>
 8000258:	f5b1 1f00 	cmp.w	r1, #2097152	; 0x200000
 800025c:	d30c      	bcc.n	8000278 <__adddf3+0x10c>
 800025e:	0849      	lsrs	r1, r1, #1
 8000260:	ea5f 0030 	movs.w	r0, r0, rrx
 8000264:	ea4f 0c3c 	mov.w	ip, ip, rrx
 8000268:	f104 0401 	add.w	r4, r4, #1
 800026c:	ea4f 5244 	mov.w	r2, r4, lsl #21
 8000270:	f512 0f80 	cmn.w	r2, #4194304	; 0x400000
 8000274:	f080 809a 	bcs.w	80003ac <__adddf3+0x240>
 8000278:	f1bc 4f00 	cmp.w	ip, #2147483648	; 0x80000000
 800027c:	bf08      	it	eq
 800027e:	ea5f 0c50 	movseq.w	ip, r0, lsr #1
 8000282:	f150 0000 	adcs.w	r0, r0, #0
 8000286:	eb41 5104 	adc.w	r1, r1, r4, lsl #20
 800028a:	ea41 0105 	orr.w	r1, r1, r5
 800028e:	bd30      	pop	{r4, r5, pc}
 8000290:	ea5f 0c4c 	movs.w	ip, ip, lsl #1
 8000294:	4140      	adcs	r0, r0
 8000296:	eb41 0101 	adc.w	r1, r1, r1
 800029a:	3c01      	subs	r4, #1
 800029c:	bf28      	it	cs
 800029e:	f5b1 1f80 	cmpcs.w	r1, #1048576	; 0x100000
 80002a2:	d2e9      	bcs.n	8000278 <__adddf3+0x10c>
 80002a4:	f091 0f00 	teq	r1, #0
 80002a8:	bf04      	itt	eq
 80002aa:	4601      	moveq	r1, r0
 80002ac:	2000      	moveq	r0, #0
 80002ae:	fab1 f381 	clz	r3, r1
 80002b2:	bf08      	it	eq
 80002b4:	3320      	addeq	r3, #32
 80002b6:	f1a3 030b 	sub.w	r3, r3, #11
 80002ba:	f1b3 0220 	subs.w	r2, r3, #32
 80002be:	da0c      	bge.n	80002da <__adddf3+0x16e>
 80002c0:	320c      	adds	r2, #12
 80002c2:	dd08      	ble.n	80002d6 <__adddf3+0x16a>
 80002c4:	f102 0c14 	add.w	ip, r2, #20
 80002c8:	f1c2 020c 	rsb	r2, r2, #12
 80002cc:	fa01 f00c 	lsl.w	r0, r1, ip
 80002d0:	fa21 f102 	lsr.w	r1, r1, r2
 80002d4:	e00c      	b.n	80002f0 <__adddf3+0x184>
 80002d6:	f102 0214 	add.w	r2, r2, #20
 80002da:	bfd8      	it	le
 80002dc:	f1c2 0c20 	rsble	ip, r2, #32
 80002e0:	fa01 f102 	lsl.w	r1, r1, r2
 80002e4:	fa20 fc0c 	lsr.w	ip, r0, ip
 80002e8:	bfdc      	itt	le
 80002ea:	ea41 010c 	orrle.w	r1, r1, ip
 80002ee:	4090      	lslle	r0, r2
 80002f0:	1ae4      	subs	r4, r4, r3
 80002f2:	bfa2      	ittt	ge
 80002f4:	eb01 5104 	addge.w	r1, r1, r4, lsl #20
 80002f8:	4329      	orrge	r1, r5
 80002fa:	bd30      	popge	{r4, r5, pc}
 80002fc:	ea6f 0404 	mvn.w	r4, r4
 8000300:	3c1f      	subs	r4, #31
 8000302:	da1c      	bge.n	800033e <__adddf3+0x1d2>
 8000304:	340c      	adds	r4, #12
 8000306:	dc0e      	bgt.n	8000326 <__adddf3+0x1ba>
 8000308:	f104 0414 	add.w	r4, r4, #20
 800030c:	f1c4 0220 	rsb	r2, r4, #32
 8000310:	fa20 f004 	lsr.w	r0, r0, r4
 8000314:	fa01 f302 	lsl.w	r3, r1, r2
 8000318:	ea40 0003 	orr.w	r0, r0, r3
 800031c:	fa21 f304 	lsr.w	r3, r1, r4
 8000320:	ea45 0103 	orr.w	r1, r5, r3
 8000324:	bd30      	pop	{r4, r5, pc}
 8000326:	f1c4 040c 	rsb	r4, r4, #12
 800032a:	f1c4 0220 	rsb	r2, r4, #32
 800032e:	fa20 f002 	lsr.w	r0, r0, r2
 8000332:	fa01 f304 	lsl.w	r3, r1, r4
 8000336:	ea40 0003 	orr.w	r0, r0, r3
 800033a:	4629      	mov	r1, r5
 800033c:	bd30      	pop	{r4, r5, pc}
 800033e:	fa21 f004 	lsr.w	r0, r1, r4
 8000342:	4629      	mov	r1, r5
 8000344:	bd30      	pop	{r4, r5, pc}
 8000346:	f094 0f00 	teq	r4, #0
 800034a:	f483 1380 	eor.w	r3, r3, #1048576	; 0x100000
 800034e:	bf06      	itte	eq
 8000350:	f481 1180 	eoreq.w	r1, r1, #1048576	; 0x100000
 8000354:	3401      	addeq	r4, #1
 8000356:	3d01      	subne	r5, #1
 8000358:	e74e      	b.n	80001f8 <__adddf3+0x8c>
 800035a:	ea7f 5c64 	mvns.w	ip, r4, asr #21
 800035e:	bf18      	it	ne
 8000360:	ea7f 5c65 	mvnsne.w	ip, r5, asr #21
 8000364:	d029      	beq.n	80003ba <__adddf3+0x24e>
 8000366:	ea94 0f05 	teq	r4, r5
 800036a:	bf08      	it	eq
 800036c:	ea90 0f02 	teqeq	r0, r2
 8000370:	d005      	beq.n	800037e <__adddf3+0x212>
 8000372:	ea54 0c00 	orrs.w	ip, r4, r0
 8000376:	bf04      	itt	eq
 8000378:	4619      	moveq	r1, r3
 800037a:	4610      	moveq	r0, r2
 800037c:	bd30      	pop	{r4, r5, pc}
 800037e:	ea91 0f03 	teq	r1, r3
 8000382:	bf1e      	ittt	ne
 8000384:	2100      	movne	r1, #0
 8000386:	2000      	movne	r0, #0
 8000388:	bd30      	popne	{r4, r5, pc}
 800038a:	ea5f 5c54 	movs.w	ip, r4, lsr #21
 800038e:	d105      	bne.n	800039c <__adddf3+0x230>
 8000390:	0040      	lsls	r0, r0, #1
 8000392:	4149      	adcs	r1, r1
 8000394:	bf28      	it	cs
 8000396:	f041 4100 	orrcs.w	r1, r1, #2147483648	; 0x80000000
 800039a:	bd30      	pop	{r4, r5, pc}
 800039c:	f514 0480 	adds.w	r4, r4, #4194304	; 0x400000
 80003a0:	bf3c      	itt	cc
 80003a2:	f501 1180 	addcc.w	r1, r1, #1048576	; 0x100000
 80003a6:	bd30      	popcc	{r4, r5, pc}
 80003a8:	f001 4500 	and.w	r5, r1, #2147483648	; 0x80000000
 80003ac:	f045 41fe 	orr.w	r1, r5, #2130706432	; 0x7f000000
 80003b0:	f441 0170 	orr.w	r1, r1, #15728640	; 0xf00000
 80003b4:	f04f 0000 	mov.w	r0, #0
 80003b8:	bd30      	pop	{r4, r5, pc}
 80003ba:	ea7f 5c64 	mvns.w	ip, r4, asr #21
 80003be:	bf1a      	itte	ne
 80003c0:	4619      	movne	r1, r3
 80003c2:	4610      	movne	r0, r2
 80003c4:	ea7f 5c65 	mvnseq.w	ip, r5, asr #21
 80003c8:	bf1c      	itt	ne
 80003ca:	460b      	movne	r3, r1
 80003cc:	4602      	movne	r2, r0
 80003ce:	ea50 3401 	orrs.w	r4, r0, r1, lsl #12
 80003d2:	bf06      	itte	eq
 80003d4:	ea52 3503 	orrseq.w	r5, r2, r3, lsl #12
 80003d8:	ea91 0f03 	teqeq	r1, r3
 80003dc:	f441 2100 	orrne.w	r1, r1, #524288	; 0x80000
 80003e0:	bd30      	pop	{r4, r5, pc}
 80003e2:	bf00      	nop

080003e4 <__aeabi_ui2d>:
 80003e4:	f090 0f00 	teq	r0, #0
 80003e8:	bf04      	itt	eq
 80003ea:	2100      	moveq	r1, #0
 80003ec:	4770      	bxeq	lr
 80003ee:	b530      	push	{r4, r5, lr}
 80003f0:	f44f 6480 	mov.w	r4, #1024	; 0x400
 80003f4:	f104 0432 	add.w	r4, r4, #50	; 0x32
 80003f8:	f04f 0500 	mov.w	r5, #0
 80003fc:	f04f 0100 	mov.w	r1, #0
 8000400:	e750      	b.n	80002a4 <__adddf3+0x138>
 8000402:	bf00      	nop

08000404 <__aeabi_i2d>:
 8000404:	f090 0f00 	teq	r0, #0
 8000408:	bf04      	itt	eq
 800040a:	2100      	moveq	r1, #0
 800040c:	4770      	bxeq	lr
 800040e:	b530      	push	{r4, r5, lr}
 8000410:	f44f 6480 	mov.w	r4, #1024	; 0x400
 8000414:	f104 0432 	add.w	r4, r4, #50	; 0x32
 8000418:	f010 4500 	ands.w	r5, r0, #2147483648	; 0x80000000
 800041c:	bf48      	it	mi
 800041e:	4240      	negmi	r0, r0
 8000420:	f04f 0100 	mov.w	r1, #0
 8000424:	e73e      	b.n	80002a4 <__adddf3+0x138>
 8000426:	bf00      	nop

08000428 <__aeabi_f2d>:
 8000428:	0042      	lsls	r2, r0, #1
 800042a:	ea4f 01e2 	mov.w	r1, r2, asr #3
 800042e:	ea4f 0131 	mov.w	r1, r1, rrx
 8000432:	ea4f 7002 	mov.w	r0, r2, lsl #28
 8000436:	bf1f      	itttt	ne
 8000438:	f012 437f 	andsne.w	r3, r2, #4278190080	; 0xff000000
 800043c:	f093 4f7f 	teqne	r3, #4278190080	; 0xff000000
 8000440:	f081 5160 	eorne.w	r1, r1, #939524096	; 0x38000000
 8000444:	4770      	bxne	lr
 8000446:	f032 427f 	bics.w	r2, r2, #4278190080	; 0xff000000
 800044a:	bf08      	it	eq
 800044c:	4770      	bxeq	lr
 800044e:	f093 4f7f 	teq	r3, #4278190080	; 0xff000000
 8000452:	bf04      	itt	eq
 8000454:	f441 2100 	orreq.w	r1, r1, #524288	; 0x80000
 8000458:	4770      	bxeq	lr
 800045a:	b530      	push	{r4, r5, lr}
 800045c:	f44f 7460 	mov.w	r4, #896	; 0x380
 8000460:	f001 4500 	and.w	r5, r1, #2147483648	; 0x80000000
 8000464:	f021 4100 	bic.w	r1, r1, #2147483648	; 0x80000000
 8000468:	e71c      	b.n	80002a4 <__adddf3+0x138>
 800046a:	bf00      	nop

0800046c <__aeabi_ul2d>:
 800046c:	ea50 0201 	orrs.w	r2, r0, r1
 8000470:	bf08      	it	eq
 8000472:	4770      	bxeq	lr
 8000474:	b530      	push	{r4, r5, lr}
 8000476:	f04f 0500 	mov.w	r5, #0
 800047a:	e00a      	b.n	8000492 <__aeabi_l2d+0x16>

0800047c <__aeabi_l2d>:
 800047c:	ea50 0201 	orrs.w	r2, r0, r1
 8000480:	bf08      	it	eq
 8000482:	4770      	bxeq	lr
 8000484:	b530      	push	{r4, r5, lr}
 8000486:	f011 4500 	ands.w	r5, r1, #2147483648	; 0x80000000
 800048a:	d502      	bpl.n	8000492 <__aeabi_l2d+0x16>
 800048c:	4240      	negs	r0, r0
 800048e:	eb61 0141 	sbc.w	r1, r1, r1, lsl #1
 8000492:	f44f 6480 	mov.w	r4, #1024	; 0x400
 8000496:	f104 0432 	add.w	r4, r4, #50	; 0x32
 800049a:	ea5f 5c91 	movs.w	ip, r1, lsr #22
 800049e:	f43f aed8 	beq.w	8000252 <__adddf3+0xe6>
 80004a2:	f04f 0203 	mov.w	r2, #3
 80004a6:	ea5f 0cdc 	movs.w	ip, ip, lsr #3
 80004aa:	bf18      	it	ne
 80004ac:	3203      	addne	r2, #3
 80004ae:	ea5f 0cdc 	movs.w	ip, ip, lsr #3
 80004b2:	bf18      	it	ne
 80004b4:	3203      	addne	r2, #3
 80004b6:	eb02 02dc 	add.w	r2, r2, ip, lsr #3
 80004ba:	f1c2 0320 	rsb	r3, r2, #32
 80004be:	fa00 fc03 	lsl.w	ip, r0, r3
 80004c2:	fa20 f002 	lsr.w	r0, r0, r2
 80004c6:	fa01 fe03 	lsl.w	lr, r1, r3
 80004ca:	ea40 000e 	orr.w	r0, r0, lr
 80004ce:	fa21 f102 	lsr.w	r1, r1, r2
 80004d2:	4414      	add	r4, r2
 80004d4:	e6bd      	b.n	8000252 <__adddf3+0xe6>
 80004d6:	bf00      	nop

080004d8 <__aeabi_dmul>:
 80004d8:	b570      	push	{r4, r5, r6, lr}
 80004da:	f04f 0cff 	mov.w	ip, #255	; 0xff
 80004de:	f44c 6ce0 	orr.w	ip, ip, #1792	; 0x700
 80004e2:	ea1c 5411 	ands.w	r4, ip, r1, lsr #20
 80004e6:	bf1d      	ittte	ne
 80004e8:	ea1c 5513 	andsne.w	r5, ip, r3, lsr #20
 80004ec:	ea94 0f0c 	teqne	r4, ip
 80004f0:	ea95 0f0c 	teqne	r5, ip
 80004f4:	f000 f8de 	bleq	80006b4 <__aeabi_dmul+0x1dc>
 80004f8:	442c      	add	r4, r5
 80004fa:	ea81 0603 	eor.w	r6, r1, r3
 80004fe:	ea21 514c 	bic.w	r1, r1, ip, lsl #21
 8000502:	ea23 534c 	bic.w	r3, r3, ip, lsl #21
 8000506:	ea50 3501 	orrs.w	r5, r0, r1, lsl #12
 800050a:	bf18      	it	ne
 800050c:	ea52 3503 	orrsne.w	r5, r2, r3, lsl #12
 8000510:	f441 1180 	orr.w	r1, r1, #1048576	; 0x100000
 8000514:	f443 1380 	orr.w	r3, r3, #1048576	; 0x100000
 8000518:	d038      	beq.n	800058c <__aeabi_dmul+0xb4>
 800051a:	fba0 ce02 	umull	ip, lr, r0, r2
 800051e:	f04f 0500 	mov.w	r5, #0
 8000522:	fbe1 e502 	umlal	lr, r5, r1, r2
 8000526:	f006 4200 	and.w	r2, r6, #2147483648	; 0x80000000
 800052a:	fbe0 e503 	umlal	lr, r5, r0, r3
 800052e:	f04f 0600 	mov.w	r6, #0
 8000532:	fbe1 5603 	umlal	r5, r6, r1, r3
 8000536:	f09c 0f00 	teq	ip, #0
 800053a:	bf18      	it	ne
 800053c:	f04e 0e01 	orrne.w	lr, lr, #1
 8000540:	f1a4 04ff 	sub.w	r4, r4, #255	; 0xff
 8000544:	f5b6 7f00 	cmp.w	r6, #512	; 0x200
 8000548:	f564 7440 	sbc.w	r4, r4, #768	; 0x300
 800054c:	d204      	bcs.n	8000558 <__aeabi_dmul+0x80>
 800054e:	ea5f 0e4e 	movs.w	lr, lr, lsl #1
 8000552:	416d      	adcs	r5, r5
 8000554:	eb46 0606 	adc.w	r6, r6, r6
 8000558:	ea42 21c6 	orr.w	r1, r2, r6, lsl #11
 800055c:	ea41 5155 	orr.w	r1, r1, r5, lsr #21
 8000560:	ea4f 20c5 	mov.w	r0, r5, lsl #11
 8000564:	ea40 505e 	orr.w	r0, r0, lr, lsr #21
 8000568:	ea4f 2ece 	mov.w	lr, lr, lsl #11
 800056c:	f1b4 0cfd 	subs.w	ip, r4, #253	; 0xfd
 8000570:	bf88      	it	hi
 8000572:	f5bc 6fe0 	cmphi.w	ip, #1792	; 0x700
 8000576:	d81e      	bhi.n	80005b6 <__aeabi_dmul+0xde>
 8000578:	f1be 4f00 	cmp.w	lr, #2147483648	; 0x80000000
 800057c:	bf08      	it	eq
 800057e:	ea5f 0e50 	movseq.w	lr, r0, lsr #1
 8000582:	f150 0000 	adcs.w	r0, r0, #0
 8000586:	eb41 5104 	adc.w	r1, r1, r4, lsl #20
 800058a:	bd70      	pop	{r4, r5, r6, pc}
 800058c:	f006 4600 	and.w	r6, r6, #2147483648	; 0x80000000
 8000590:	ea46 0101 	orr.w	r1, r6, r1
 8000594:	ea40 0002 	orr.w	r0, r0, r2
 8000598:	ea81 0103 	eor.w	r1, r1, r3
 800059c:	ebb4 045c 	subs.w	r4, r4, ip, lsr #1
 80005a0:	bfc2      	ittt	gt
 80005a2:	ebd4 050c 	rsbsgt	r5, r4, ip
 80005a6:	ea41 5104 	orrgt.w	r1, r1, r4, lsl #20
 80005aa:	bd70      	popgt	{r4, r5, r6, pc}
 80005ac:	f441 1180 	orr.w	r1, r1, #1048576	; 0x100000
 80005b0:	f04f 0e00 	mov.w	lr, #0
 80005b4:	3c01      	subs	r4, #1
 80005b6:	f300 80ab 	bgt.w	8000710 <__aeabi_dmul+0x238>
 80005ba:	f114 0f36 	cmn.w	r4, #54	; 0x36
 80005be:	bfde      	ittt	le
 80005c0:	2000      	movle	r0, #0
 80005c2:	f001 4100 	andle.w	r1, r1, #2147483648	; 0x80000000
 80005c6:	bd70      	pople	{r4, r5, r6, pc}
 80005c8:	f1c4 0400 	rsb	r4, r4, #0
 80005cc:	3c20      	subs	r4, #32
 80005ce:	da35      	bge.n	800063c <__aeabi_dmul+0x164>
 80005d0:	340c      	adds	r4, #12
 80005d2:	dc1b      	bgt.n	800060c <__aeabi_dmul+0x134>
 80005d4:	f104 0414 	add.w	r4, r4, #20
 80005d8:	f1c4 0520 	rsb	r5, r4, #32
 80005dc:	fa00 f305 	lsl.w	r3, r0, r5
 80005e0:	fa20 f004 	lsr.w	r0, r0, r4
 80005e4:	fa01 f205 	lsl.w	r2, r1, r5
 80005e8:	ea40 0002 	orr.w	r0, r0, r2
 80005ec:	f001 4200 	and.w	r2, r1, #2147483648	; 0x80000000
 80005f0:	f021 4100 	bic.w	r1, r1, #2147483648	; 0x80000000
 80005f4:	eb10 70d3 	adds.w	r0, r0, r3, lsr #31
 80005f8:	fa21 f604 	lsr.w	r6, r1, r4
 80005fc:	eb42 0106 	adc.w	r1, r2, r6
 8000600:	ea5e 0e43 	orrs.w	lr, lr, r3, lsl #1
 8000604:	bf08      	it	eq
 8000606:	ea20 70d3 	biceq.w	r0, r0, r3, lsr #31
 800060a:	bd70      	pop	{r4, r5, r6, pc}
 800060c:	f1c4 040c 	rsb	r4, r4, #12
 8000610:	f1c4 0520 	rsb	r5, r4, #32
 8000614:	fa00 f304 	lsl.w	r3, r0, r4
 8000618:	fa20 f005 	lsr.w	r0, r0, r5
 800061c:	fa01 f204 	lsl.w	r2, r1, r4
 8000620:	ea40 0002 	orr.w	r0, r0, r2
 8000624:	f001 4100 	and.w	r1, r1, #2147483648	; 0x80000000
 8000628:	eb10 70d3 	adds.w	r0, r0, r3, lsr #31
 800062c:	f141 0100 	adc.w	r1, r1, #0
 8000630:	ea5e 0e43 	orrs.w	lr, lr, r3, lsl #1
 8000634:	bf08      	it	eq
 8000636:	ea20 70d3 	biceq.w	r0, r0, r3, lsr #31
 800063a:	bd70      	pop	{r4, r5, r6, pc}
 800063c:	f1c4 0520 	rsb	r5, r4, #32
 8000640:	fa00 f205 	lsl.w	r2, r0, r5
 8000644:	ea4e 0e02 	orr.w	lr, lr, r2
 8000648:	fa20 f304 	lsr.w	r3, r0, r4
 800064c:	fa01 f205 	lsl.w	r2, r1, r5
 8000650:	ea43 0302 	orr.w	r3, r3, r2
 8000654:	fa21 f004 	lsr.w	r0, r1, r4
 8000658:	f001 4100 	and.w	r1, r1, #2147483648	; 0x80000000
 800065c:	fa21 f204 	lsr.w	r2, r1, r4
 8000660:	ea20 0002 	bic.w	r0, r0, r2
 8000664:	eb00 70d3 	add.w	r0, r0, r3, lsr #31
 8000668:	ea5e 0e43 	orrs.w	lr, lr, r3, lsl #1
 800066c:	bf08      	it	eq
 800066e:	ea20 70d3 	biceq.w	r0, r0, r3, lsr #31
 8000672:	bd70      	pop	{r4, r5, r6, pc}
 8000674:	f094 0f00 	teq	r4, #0
 8000678:	d10f      	bne.n	800069a <__aeabi_dmul+0x1c2>
 800067a:	f001 4600 	and.w	r6, r1, #2147483648	; 0x80000000
 800067e:	0040      	lsls	r0, r0, #1
 8000680:	eb41 0101 	adc.w	r1, r1, r1
 8000684:	f411 1f80 	tst.w	r1, #1048576	; 0x100000
 8000688:	bf08      	it	eq
 800068a:	3c01      	subeq	r4, #1
 800068c:	d0f7      	beq.n	800067e <__aeabi_dmul+0x1a6>
 800068e:	ea41 0106 	orr.w	r1, r1, r6
 8000692:	f095 0f00 	teq	r5, #0
 8000696:	bf18      	it	ne
 8000698:	4770      	bxne	lr
 800069a:	f003 4600 	and.w	r6, r3, #2147483648	; 0x80000000
 800069e:	0052      	lsls	r2, r2, #1
 80006a0:	eb43 0303 	adc.w	r3, r3, r3
 80006a4:	f413 1f80 	tst.w	r3, #1048576	; 0x100000
 80006a8:	bf08      	it	eq
 80006aa:	3d01      	subeq	r5, #1
 80006ac:	d0f7      	beq.n	800069e <__aeabi_dmul+0x1c6>
 80006ae:	ea43 0306 	orr.w	r3, r3, r6
 80006b2:	4770      	bx	lr
 80006b4:	ea94 0f0c 	teq	r4, ip
 80006b8:	ea0c 5513 	and.w	r5, ip, r3, lsr #20
 80006bc:	bf18      	it	ne
 80006be:	ea95 0f0c 	teqne	r5, ip
 80006c2:	d00c      	beq.n	80006de <__aeabi_dmul+0x206>
 80006c4:	ea50 0641 	orrs.w	r6, r0, r1, lsl #1
 80006c8:	bf18      	it	ne
 80006ca:	ea52 0643 	orrsne.w	r6, r2, r3, lsl #1
 80006ce:	d1d1      	bne.n	8000674 <__aeabi_dmul+0x19c>
 80006d0:	ea81 0103 	eor.w	r1, r1, r3
 80006d4:	f001 4100 	and.w	r1, r1, #2147483648	; 0x80000000
 80006d8:	f04f 0000 	mov.w	r0, #0
 80006dc:	bd70      	pop	{r4, r5, r6, pc}
 80006de:	ea50 0641 	orrs.w	r6, r0, r1, lsl #1
 80006e2:	bf06      	itte	eq
 80006e4:	4610      	moveq	r0, r2
 80006e6:	4619      	moveq	r1, r3
 80006e8:	ea52 0643 	orrsne.w	r6, r2, r3, lsl #1
 80006ec:	d019      	beq.n	8000722 <__aeabi_dmul+0x24a>
 80006ee:	ea94 0f0c 	teq	r4, ip
 80006f2:	d102      	bne.n	80006fa <__aeabi_dmul+0x222>
 80006f4:	ea50 3601 	orrs.w	r6, r0, r1, lsl #12
 80006f8:	d113      	bne.n	8000722 <__aeabi_dmul+0x24a>
 80006fa:	ea95 0f0c 	teq	r5, ip
 80006fe:	d105      	bne.n	800070c <__aeabi_dmul+0x234>
 8000700:	ea52 3603 	orrs.w	r6, r2, r3, lsl #12
 8000704:	bf1c      	itt	ne
 8000706:	4610      	movne	r0, r2
 8000708:	4619      	movne	r1, r3
 800070a:	d10a      	bne.n	8000722 <__aeabi_dmul+0x24a>
 800070c:	ea81 0103 	eor.w	r1, r1, r3
 8000710:	f001 4100 	and.w	r1, r1, #2147483648	; 0x80000000
 8000714:	f041 41fe 	orr.w	r1, r1, #2130706432	; 0x7f000000
 8000718:	f441 0170 	orr.w	r1, r1, #15728640	; 0xf00000
 800071c:	f04f 0000 	mov.w	r0, #0
 8000720:	bd70      	pop	{r4, r5, r6, pc}
 8000722:	f041 41fe 	orr.w	r1, r1, #2130706432	; 0x7f000000
 8000726:	f441 0178 	orr.w	r1, r1, #16252928	; 0xf80000
 800072a:	bd70      	pop	{r4, r5, r6, pc}

0800072c <__aeabi_ddiv>:
 800072c:	b570      	push	{r4, r5, r6, lr}
 800072e:	f04f 0cff 	mov.w	ip, #255	; 0xff
 8000732:	f44c 6ce0 	orr.w	ip, ip, #1792	; 0x700
 8000736:	ea1c 5411 	ands.w	r4, ip, r1, lsr #20
 800073a:	bf1d      	ittte	ne
 800073c:	ea1c 5513 	andsne.w	r5, ip, r3, lsr #20
 8000740:	ea94 0f0c 	teqne	r4, ip
 8000744:	ea95 0f0c 	teqne	r5, ip
 8000748:	f000 f8a7 	bleq	800089a <__aeabi_ddiv+0x16e>
 800074c:	eba4 0405 	sub.w	r4, r4, r5
 8000750:	ea81 0e03 	eor.w	lr, r1, r3
 8000754:	ea52 3503 	orrs.w	r5, r2, r3, lsl #12
 8000758:	ea4f 3101 	mov.w	r1, r1, lsl #12
 800075c:	f000 8088 	beq.w	8000870 <__aeabi_ddiv+0x144>
 8000760:	ea4f 3303 	mov.w	r3, r3, lsl #12
 8000764:	f04f 5580 	mov.w	r5, #268435456	; 0x10000000
 8000768:	ea45 1313 	orr.w	r3, r5, r3, lsr #4
 800076c:	ea43 6312 	orr.w	r3, r3, r2, lsr #24
 8000770:	ea4f 2202 	mov.w	r2, r2, lsl #8
 8000774:	ea45 1511 	orr.w	r5, r5, r1, lsr #4
 8000778:	ea45 6510 	orr.w	r5, r5, r0, lsr #24
 800077c:	ea4f 2600 	mov.w	r6, r0, lsl #8
 8000780:	f00e 4100 	and.w	r1, lr, #2147483648	; 0x80000000
 8000784:	429d      	cmp	r5, r3
 8000786:	bf08      	it	eq
 8000788:	4296      	cmpeq	r6, r2
 800078a:	f144 04fd 	adc.w	r4, r4, #253	; 0xfd
 800078e:	f504 7440 	add.w	r4, r4, #768	; 0x300
 8000792:	d202      	bcs.n	800079a <__aeabi_ddiv+0x6e>
 8000794:	085b      	lsrs	r3, r3, #1
 8000796:	ea4f 0232 	mov.w	r2, r2, rrx
 800079a:	1ab6      	subs	r6, r6, r2
 800079c:	eb65 0503 	sbc.w	r5, r5, r3
 80007a0:	085b      	lsrs	r3, r3, #1
 80007a2:	ea4f 0232 	mov.w	r2, r2, rrx
 80007a6:	f44f 1080 	mov.w	r0, #1048576	; 0x100000
 80007aa:	f44f 2c00 	mov.w	ip, #524288	; 0x80000
 80007ae:	ebb6 0e02 	subs.w	lr, r6, r2
 80007b2:	eb75 0e03 	sbcs.w	lr, r5, r3
 80007b6:	bf22      	ittt	cs
 80007b8:	1ab6      	subcs	r6, r6, r2
 80007ba:	4675      	movcs	r5, lr
 80007bc:	ea40 000c 	orrcs.w	r0, r0, ip
 80007c0:	085b      	lsrs	r3, r3, #1
 80007c2:	ea4f 0232 	mov.w	r2, r2, rrx
 80007c6:	ebb6 0e02 	subs.w	lr, r6, r2
 80007ca:	eb75 0e03 	sbcs.w	lr, r5, r3
 80007ce:	bf22      	ittt	cs
 80007d0:	1ab6      	subcs	r6, r6, r2
 80007d2:	4675      	movcs	r5, lr
 80007d4:	ea40 005c 	orrcs.w	r0, r0, ip, lsr #1
 80007d8:	085b      	lsrs	r3, r3, #1
 80007da:	ea4f 0232 	mov.w	r2, r2, rrx
 80007de:	ebb6 0e02 	subs.w	lr, r6, r2
 80007e2:	eb75 0e03 	sbcs.w	lr, r5, r3
 80007e6:	bf22      	ittt	cs
 80007e8:	1ab6      	subcs	r6, r6, r2
 80007ea:	4675      	movcs	r5, lr
 80007ec:	ea40 009c 	orrcs.w	r0, r0, ip, lsr #2
 80007f0:	085b      	lsrs	r3, r3, #1
 80007f2:	ea4f 0232 	mov.w	r2, r2, rrx
 80007f6:	ebb6 0e02 	subs.w	lr, r6, r2
 80007fa:	eb75 0e03 	sbcs.w	lr, r5, r3
 80007fe:	bf22      	ittt	cs
 8000800:	1ab6      	subcs	r6, r6, r2
 8000802:	4675      	movcs	r5, lr
 8000804:	ea40 00dc 	orrcs.w	r0, r0, ip, lsr #3
 8000808:	ea55 0e06 	orrs.w	lr, r5, r6
 800080c:	d018      	beq.n	8000840 <__aeabi_ddiv+0x114>
 800080e:	ea4f 1505 	mov.w	r5, r5, lsl #4
 8000812:	ea45 7516 	orr.w	r5, r5, r6, lsr #28
 8000816:	ea4f 1606 	mov.w	r6, r6, lsl #4
 800081a:	ea4f 03c3 	mov.w	r3, r3, lsl #3
 800081e:	ea43 7352 	orr.w	r3, r3, r2, lsr #29
 8000822:	ea4f 02c2 	mov.w	r2, r2, lsl #3
 8000826:	ea5f 1c1c 	movs.w	ip, ip, lsr #4
 800082a:	d1c0      	bne.n	80007ae <__aeabi_ddiv+0x82>
 800082c:	f411 1f80 	tst.w	r1, #1048576	; 0x100000
 8000830:	d10b      	bne.n	800084a <__aeabi_ddiv+0x11e>
 8000832:	ea41 0100 	orr.w	r1, r1, r0
 8000836:	f04f 0000 	mov.w	r0, #0
 800083a:	f04f 4c00 	mov.w	ip, #2147483648	; 0x80000000
 800083e:	e7b6      	b.n	80007ae <__aeabi_ddiv+0x82>
 8000840:	f411 1f80 	tst.w	r1, #1048576	; 0x100000
 8000844:	bf04      	itt	eq
 8000846:	4301      	orreq	r1, r0
 8000848:	2000      	moveq	r0, #0
 800084a:	f1b4 0cfd 	subs.w	ip, r4, #253	; 0xfd
 800084e:	bf88      	it	hi
 8000850:	f5bc 6fe0 	cmphi.w	ip, #1792	; 0x700
 8000854:	f63f aeaf 	bhi.w	80005b6 <__aeabi_dmul+0xde>
 8000858:	ebb5 0c03 	subs.w	ip, r5, r3
 800085c:	bf04      	itt	eq
 800085e:	ebb6 0c02 	subseq.w	ip, r6, r2
 8000862:	ea5f 0c50 	movseq.w	ip, r0, lsr #1
 8000866:	f150 0000 	adcs.w	r0, r0, #0
 800086a:	eb41 5104 	adc.w	r1, r1, r4, lsl #20
 800086e:	bd70      	pop	{r4, r5, r6, pc}
 8000870:	f00e 4e00 	and.w	lr, lr, #2147483648	; 0x80000000
 8000874:	ea4e 3111 	orr.w	r1, lr, r1, lsr #12
 8000878:	eb14 045c 	adds.w	r4, r4, ip, lsr #1
 800087c:	bfc2      	ittt	gt
 800087e:	ebd4 050c 	rsbsgt	r5, r4, ip
 8000882:	ea41 5104 	orrgt.w	r1, r1, r4, lsl #20
 8000886:	bd70      	popgt	{r4, r5, r6, pc}
 8000888:	f441 1180 	orr.w	r1, r1, #1048576	; 0x100000
 800088c:	f04f 0e00 	mov.w	lr, #0
 8000890:	3c01      	subs	r4, #1
 8000892:	e690      	b.n	80005b6 <__aeabi_dmul+0xde>
 8000894:	ea45 0e06 	orr.w	lr, r5, r6
 8000898:	e68d      	b.n	80005b6 <__aeabi_dmul+0xde>
 800089a:	ea0c 5513 	and.w	r5, ip, r3, lsr #20
 800089e:	ea94 0f0c 	teq	r4, ip
 80008a2:	bf08      	it	eq
 80008a4:	ea95 0f0c 	teqeq	r5, ip
 80008a8:	f43f af3b 	beq.w	8000722 <__aeabi_dmul+0x24a>
 80008ac:	ea94 0f0c 	teq	r4, ip
 80008b0:	d10a      	bne.n	80008c8 <__aeabi_ddiv+0x19c>
 80008b2:	ea50 3401 	orrs.w	r4, r0, r1, lsl #12
 80008b6:	f47f af34 	bne.w	8000722 <__aeabi_dmul+0x24a>
 80008ba:	ea95 0f0c 	teq	r5, ip
 80008be:	f47f af25 	bne.w	800070c <__aeabi_dmul+0x234>
 80008c2:	4610      	mov	r0, r2
 80008c4:	4619      	mov	r1, r3
 80008c6:	e72c      	b.n	8000722 <__aeabi_dmul+0x24a>
 80008c8:	ea95 0f0c 	teq	r5, ip
 80008cc:	d106      	bne.n	80008dc <__aeabi_ddiv+0x1b0>
 80008ce:	ea52 3503 	orrs.w	r5, r2, r3, lsl #12
 80008d2:	f43f aefd 	beq.w	80006d0 <__aeabi_dmul+0x1f8>
 80008d6:	4610      	mov	r0, r2
 80008d8:	4619      	mov	r1, r3
 80008da:	e722      	b.n	8000722 <__aeabi_dmul+0x24a>
 80008dc:	ea50 0641 	orrs.w	r6, r0, r1, lsl #1
 80008e0:	bf18      	it	ne
 80008e2:	ea52 0643 	orrsne.w	r6, r2, r3, lsl #1
 80008e6:	f47f aec5 	bne.w	8000674 <__aeabi_dmul+0x19c>
 80008ea:	ea50 0441 	orrs.w	r4, r0, r1, lsl #1
 80008ee:	f47f af0d 	bne.w	800070c <__aeabi_dmul+0x234>
 80008f2:	ea52 0543 	orrs.w	r5, r2, r3, lsl #1
 80008f6:	f47f aeeb 	bne.w	80006d0 <__aeabi_dmul+0x1f8>
 80008fa:	e712      	b.n	8000722 <__aeabi_dmul+0x24a>

080008fc <__gedf2>:
 80008fc:	f04f 3cff 	mov.w	ip, #4294967295
 8000900:	e006      	b.n	8000910 <__cmpdf2+0x4>
 8000902:	bf00      	nop

08000904 <__ledf2>:
 8000904:	f04f 0c01 	mov.w	ip, #1
 8000908:	e002      	b.n	8000910 <__cmpdf2+0x4>
 800090a:	bf00      	nop

0800090c <__cmpdf2>:
 800090c:	f04f 0c01 	mov.w	ip, #1
 8000910:	f84d cd04 	str.w	ip, [sp, #-4]!
 8000914:	ea4f 0c41 	mov.w	ip, r1, lsl #1
 8000918:	ea7f 5c6c 	mvns.w	ip, ip, asr #21
 800091c:	ea4f 0c43 	mov.w	ip, r3, lsl #1
 8000920:	bf18      	it	ne
 8000922:	ea7f 5c6c 	mvnsne.w	ip, ip, asr #21
 8000926:	d01b      	beq.n	8000960 <__cmpdf2+0x54>
 8000928:	b001      	add	sp, #4
 800092a:	ea50 0c41 	orrs.w	ip, r0, r1, lsl #1
 800092e:	bf0c      	ite	eq
 8000930:	ea52 0c43 	orrseq.w	ip, r2, r3, lsl #1
 8000934:	ea91 0f03 	teqne	r1, r3
 8000938:	bf02      	ittt	eq
 800093a:	ea90 0f02 	teqeq	r0, r2
 800093e:	2000      	moveq	r0, #0
 8000940:	4770      	bxeq	lr
 8000942:	f110 0f00 	cmn.w	r0, #0
 8000946:	ea91 0f03 	teq	r1, r3
 800094a:	bf58      	it	pl
 800094c:	4299      	cmppl	r1, r3
 800094e:	bf08      	it	eq
 8000950:	4290      	cmpeq	r0, r2
 8000952:	bf2c      	ite	cs
 8000954:	17d8      	asrcs	r0, r3, #31
 8000956:	ea6f 70e3 	mvncc.w	r0, r3, asr #31
 800095a:	f040 0001 	orr.w	r0, r0, #1
 800095e:	4770      	bx	lr
 8000960:	ea4f 0c41 	mov.w	ip, r1, lsl #1
 8000964:	ea7f 5c6c 	mvns.w	ip, ip, asr #21
 8000968:	d102      	bne.n	8000970 <__cmpdf2+0x64>
 800096a:	ea50 3c01 	orrs.w	ip, r0, r1, lsl #12
 800096e:	d107      	bne.n	8000980 <__cmpdf2+0x74>
 8000970:	ea4f 0c43 	mov.w	ip, r3, lsl #1
 8000974:	ea7f 5c6c 	mvns.w	ip, ip, asr #21
 8000978:	d1d6      	bne.n	8000928 <__cmpdf2+0x1c>
 800097a:	ea52 3c03 	orrs.w	ip, r2, r3, lsl #12
 800097e:	d0d3      	beq.n	8000928 <__cmpdf2+0x1c>
 8000980:	f85d 0b04 	ldr.w	r0, [sp], #4
 8000984:	4770      	bx	lr
 8000986:	bf00      	nop

08000988 <__aeabi_cdrcmple>:
 8000988:	4684      	mov	ip, r0
 800098a:	4610      	mov	r0, r2
 800098c:	4662      	mov	r2, ip
 800098e:	468c      	mov	ip, r1
 8000990:	4619      	mov	r1, r3
 8000992:	4663      	mov	r3, ip
 8000994:	e000      	b.n	8000998 <__aeabi_cdcmpeq>
 8000996:	bf00      	nop

08000998 <__aeabi_cdcmpeq>:
 8000998:	b501      	push	{r0, lr}
 800099a:	f7ff ffb7 	bl	800090c <__cmpdf2>
 800099e:	2800      	cmp	r0, #0
 80009a0:	bf48      	it	mi
 80009a2:	f110 0f00 	cmnmi.w	r0, #0
 80009a6:	bd01      	pop	{r0, pc}

080009a8 <__aeabi_dcmpeq>:
 80009a8:	f84d ed08 	str.w	lr, [sp, #-8]!
 80009ac:	f7ff fff4 	bl	8000998 <__aeabi_cdcmpeq>
 80009b0:	bf0c      	ite	eq
 80009b2:	2001      	moveq	r0, #1
 80009b4:	2000      	movne	r0, #0
 80009b6:	f85d fb08 	ldr.w	pc, [sp], #8
 80009ba:	bf00      	nop

080009bc <__aeabi_dcmplt>:
 80009bc:	f84d ed08 	str.w	lr, [sp, #-8]!
 80009c0:	f7ff ffea 	bl	8000998 <__aeabi_cdcmpeq>
 80009c4:	bf34      	ite	cc
 80009c6:	2001      	movcc	r0, #1
 80009c8:	2000      	movcs	r0, #0
 80009ca:	f85d fb08 	ldr.w	pc, [sp], #8
 80009ce:	bf00      	nop

080009d0 <__aeabi_dcmple>:
 80009d0:	f84d ed08 	str.w	lr, [sp, #-8]!
 80009d4:	f7ff ffe0 	bl	8000998 <__aeabi_cdcmpeq>
 80009d8:	bf94      	ite	ls
 80009da:	2001      	movls	r0, #1
 80009dc:	2000      	movhi	r0, #0
 80009de:	f85d fb08 	ldr.w	pc, [sp], #8
 80009e2:	bf00      	nop

080009e4 <__aeabi_dcmpge>:
 80009e4:	f84d ed08 	str.w	lr, [sp, #-8]!
 80009e8:	f7ff ffce 	bl	8000988 <__aeabi_cdrcmple>
 80009ec:	bf94      	ite	ls
 80009ee:	2001      	movls	r0, #1
 80009f0:	2000      	movhi	r0, #0
 80009f2:	f85d fb08 	ldr.w	pc, [sp], #8
 80009f6:	bf00      	nop

080009f8 <__aeabi_dcmpgt>:
 80009f8:	f84d ed08 	str.w	lr, [sp, #-8]!
 80009fc:	f7ff ffc4 	bl	8000988 <__aeabi_cdrcmple>
 8000a00:	bf34      	ite	cc
 8000a02:	2001      	movcc	r0, #1
 8000a04:	2000      	movcs	r0, #0
 8000a06:	f85d fb08 	ldr.w	pc, [sp], #8
 8000a0a:	bf00      	nop

08000a0c <__aeabi_dcmpun>:
 8000a0c:	ea4f 0c41 	mov.w	ip, r1, lsl #1
 8000a10:	ea7f 5c6c 	mvns.w	ip, ip, asr #21
 8000a14:	d102      	bne.n	8000a1c <__aeabi_dcmpun+0x10>
 8000a16:	ea50 3c01 	orrs.w	ip, r0, r1, lsl #12
 8000a1a:	d10a      	bne.n	8000a32 <__aeabi_dcmpun+0x26>
 8000a1c:	ea4f 0c43 	mov.w	ip, r3, lsl #1
 8000a20:	ea7f 5c6c 	mvns.w	ip, ip, asr #21
 8000a24:	d102      	bne.n	8000a2c <__aeabi_dcmpun+0x20>
 8000a26:	ea52 3c03 	orrs.w	ip, r2, r3, lsl #12
 8000a2a:	d102      	bne.n	8000a32 <__aeabi_dcmpun+0x26>
 8000a2c:	f04f 0000 	mov.w	r0, #0
 8000a30:	4770      	bx	lr
 8000a32:	f04f 0001 	mov.w	r0, #1
 8000a36:	4770      	bx	lr

08000a38 <__aeabi_d2iz>:
 8000a38:	ea4f 0241 	mov.w	r2, r1, lsl #1
 8000a3c:	f512 1200 	adds.w	r2, r2, #2097152	; 0x200000
 8000a40:	d215      	bcs.n	8000a6e <__aeabi_d2iz+0x36>
 8000a42:	d511      	bpl.n	8000a68 <__aeabi_d2iz+0x30>
 8000a44:	f46f 7378 	mvn.w	r3, #992	; 0x3e0
 8000a48:	ebb3 5262 	subs.w	r2, r3, r2, asr #21
 8000a4c:	d912      	bls.n	8000a74 <__aeabi_d2iz+0x3c>
 8000a4e:	ea4f 23c1 	mov.w	r3, r1, lsl #11
 8000a52:	f043 4300 	orr.w	r3, r3, #2147483648	; 0x80000000
 8000a56:	ea43 5350 	orr.w	r3, r3, r0, lsr #21
 8000a5a:	f011 4f00 	tst.w	r1, #2147483648	; 0x80000000
 8000a5e:	fa23 f002 	lsr.w	r0, r3, r2
 8000a62:	bf18      	it	ne
 8000a64:	4240      	negne	r0, r0
 8000a66:	4770      	bx	lr
 8000a68:	f04f 0000 	mov.w	r0, #0
 8000a6c:	4770      	bx	lr
 8000a6e:	ea50 3001 	orrs.w	r0, r0, r1, lsl #12
 8000a72:	d105      	bne.n	8000a80 <__aeabi_d2iz+0x48>
 8000a74:	f011 4000 	ands.w	r0, r1, #2147483648	; 0x80000000
 8000a78:	bf08      	it	eq
 8000a7a:	f06f 4000 	mvneq.w	r0, #2147483648	; 0x80000000
 8000a7e:	4770      	bx	lr
 8000a80:	f04f 0000 	mov.w	r0, #0
 8000a84:	4770      	bx	lr
 8000a86:	bf00      	nop

08000a88 <__aeabi_d2uiz>:
 8000a88:	004a      	lsls	r2, r1, #1
 8000a8a:	d211      	bcs.n	8000ab0 <__aeabi_d2uiz+0x28>
 8000a8c:	f512 1200 	adds.w	r2, r2, #2097152	; 0x200000
 8000a90:	d211      	bcs.n	8000ab6 <__aeabi_d2uiz+0x2e>
 8000a92:	d50d      	bpl.n	8000ab0 <__aeabi_d2uiz+0x28>
 8000a94:	f46f 7378 	mvn.w	r3, #992	; 0x3e0
 8000a98:	ebb3 5262 	subs.w	r2, r3, r2, asr #21
 8000a9c:	d40e      	bmi.n	8000abc <__aeabi_d2uiz+0x34>
 8000a9e:	ea4f 23c1 	mov.w	r3, r1, lsl #11
 8000aa2:	f043 4300 	orr.w	r3, r3, #2147483648	; 0x80000000
 8000aa6:	ea43 5350 	orr.w	r3, r3, r0, lsr #21
 8000aaa:	fa23 f002 	lsr.w	r0, r3, r2
 8000aae:	4770      	bx	lr
 8000ab0:	f04f 0000 	mov.w	r0, #0
 8000ab4:	4770      	bx	lr
 8000ab6:	ea50 3001 	orrs.w	r0, r0, r1, lsl #12
 8000aba:	d102      	bne.n	8000ac2 <__aeabi_d2uiz+0x3a>
 8000abc:	f04f 30ff 	mov.w	r0, #4294967295
 8000ac0:	4770      	bx	lr
 8000ac2:	f04f 0000 	mov.w	r0, #0
 8000ac6:	4770      	bx	lr

08000ac8 <__aeabi_d2f>:
 8000ac8:	ea4f 0241 	mov.w	r2, r1, lsl #1
 8000acc:	f1b2 43e0 	subs.w	r3, r2, #1879048192	; 0x70000000
 8000ad0:	bf24      	itt	cs
 8000ad2:	f5b3 1c00 	subscs.w	ip, r3, #2097152	; 0x200000
 8000ad6:	f1dc 5cfe 	rsbscs	ip, ip, #532676608	; 0x1fc00000
 8000ada:	d90d      	bls.n	8000af8 <__aeabi_d2f+0x30>
 8000adc:	f001 4c00 	and.w	ip, r1, #2147483648	; 0x80000000
 8000ae0:	ea4f 02c0 	mov.w	r2, r0, lsl #3
 8000ae4:	ea4c 7050 	orr.w	r0, ip, r0, lsr #29
 8000ae8:	f1b2 4f00 	cmp.w	r2, #2147483648	; 0x80000000
 8000aec:	eb40 0083 	adc.w	r0, r0, r3, lsl #2
 8000af0:	bf08      	it	eq
 8000af2:	f020 0001 	biceq.w	r0, r0, #1
 8000af6:	4770      	bx	lr
 8000af8:	f011 4f80 	tst.w	r1, #1073741824	; 0x40000000
 8000afc:	d121      	bne.n	8000b42 <__aeabi_d2f+0x7a>
 8000afe:	f113 7238 	adds.w	r2, r3, #48234496	; 0x2e00000
 8000b02:	bfbc      	itt	lt
 8000b04:	f001 4000 	andlt.w	r0, r1, #2147483648	; 0x80000000
 8000b08:	4770      	bxlt	lr
 8000b0a:	f441 1180 	orr.w	r1, r1, #1048576	; 0x100000
 8000b0e:	ea4f 5252 	mov.w	r2, r2, lsr #21
 8000b12:	f1c2 0218 	rsb	r2, r2, #24
 8000b16:	f1c2 0c20 	rsb	ip, r2, #32
 8000b1a:	fa10 f30c 	lsls.w	r3, r0, ip
 8000b1e:	fa20 f002 	lsr.w	r0, r0, r2
 8000b22:	bf18      	it	ne
 8000b24:	f040 0001 	orrne.w	r0, r0, #1
 8000b28:	ea4f 23c1 	mov.w	r3, r1, lsl #11
 8000b2c:	ea4f 23d3 	mov.w	r3, r3, lsr #11
 8000b30:	fa03 fc0c 	lsl.w	ip, r3, ip
 8000b34:	ea40 000c 	orr.w	r0, r0, ip
 8000b38:	fa23 f302 	lsr.w	r3, r3, r2
 8000b3c:	ea4f 0343 	mov.w	r3, r3, lsl #1
 8000b40:	e7cc      	b.n	8000adc <__aeabi_d2f+0x14>
 8000b42:	ea7f 5362 	mvns.w	r3, r2, asr #21
 8000b46:	d107      	bne.n	8000b58 <__aeabi_d2f+0x90>
 8000b48:	ea50 3301 	orrs.w	r3, r0, r1, lsl #12
 8000b4c:	bf1e      	ittt	ne
 8000b4e:	f04f 40fe 	movne.w	r0, #2130706432	; 0x7f000000
 8000b52:	f440 0040 	orrne.w	r0, r0, #12582912	; 0xc00000
 8000b56:	4770      	bxne	lr
 8000b58:	f001 4000 	and.w	r0, r1, #2147483648	; 0x80000000
 8000b5c:	f040 40fe 	orr.w	r0, r0, #2130706432	; 0x7f000000
 8000b60:	f440 0000 	orr.w	r0, r0, #8388608	; 0x800000
 8000b64:	4770      	bx	lr
 8000b66:	bf00      	nop

08000b68 <__aeabi_d2lz>:
 8000b68:	b538      	push	{r3, r4, r5, lr}
 8000b6a:	460c      	mov	r4, r1
 8000b6c:	4605      	mov	r5, r0
 8000b6e:	4621      	mov	r1, r4
 8000b70:	4628      	mov	r0, r5
 8000b72:	2200      	movs	r2, #0
 8000b74:	2300      	movs	r3, #0
 8000b76:	f7ff ff21 	bl	80009bc <__aeabi_dcmplt>
 8000b7a:	b928      	cbnz	r0, 8000b88 <__aeabi_d2lz+0x20>
 8000b7c:	4628      	mov	r0, r5
 8000b7e:	4621      	mov	r1, r4
 8000b80:	e8bd 4038 	ldmia.w	sp!, {r3, r4, r5, lr}
 8000b84:	f000 b80a 	b.w	8000b9c <__aeabi_d2ulz>
 8000b88:	4628      	mov	r0, r5
 8000b8a:	f104 4100 	add.w	r1, r4, #2147483648	; 0x80000000
 8000b8e:	f000 f805 	bl	8000b9c <__aeabi_d2ulz>
 8000b92:	4240      	negs	r0, r0
 8000b94:	eb61 0141 	sbc.w	r1, r1, r1, lsl #1
 8000b98:	bd38      	pop	{r3, r4, r5, pc}
 8000b9a:	bf00      	nop

08000b9c <__aeabi_d2ulz>:
 8000b9c:	b5d0      	push	{r4, r6, r7, lr}
 8000b9e:	2200      	movs	r2, #0
 8000ba0:	4b0b      	ldr	r3, [pc, #44]	; (8000bd0 <__aeabi_d2ulz+0x34>)
 8000ba2:	4606      	mov	r6, r0
 8000ba4:	460f      	mov	r7, r1
 8000ba6:	f7ff fc97 	bl	80004d8 <__aeabi_dmul>
 8000baa:	f7ff ff6d 	bl	8000a88 <__aeabi_d2uiz>
 8000bae:	4604      	mov	r4, r0
 8000bb0:	f7ff fc18 	bl	80003e4 <__aeabi_ui2d>
 8000bb4:	2200      	movs	r2, #0
 8000bb6:	4b07      	ldr	r3, [pc, #28]	; (8000bd4 <__aeabi_d2ulz+0x38>)
 8000bb8:	f7ff fc8e 	bl	80004d8 <__aeabi_dmul>
 8000bbc:	4602      	mov	r2, r0
 8000bbe:	460b      	mov	r3, r1
 8000bc0:	4630      	mov	r0, r6
 8000bc2:	4639      	mov	r1, r7
 8000bc4:	f7ff fad0 	bl	8000168 <__aeabi_dsub>
 8000bc8:	f7ff ff5e 	bl	8000a88 <__aeabi_d2uiz>
 8000bcc:	4621      	mov	r1, r4
 8000bce:	bdd0      	pop	{r4, r6, r7, pc}
 8000bd0:	3df00000 	.word	0x3df00000
 8000bd4:	41f00000 	.word	0x41f00000

08000bd8 <MX_DMA_Init>:

/**
  * Enable DMA controller clock
  */
void MX_DMA_Init(void)
{
 8000bd8:	b580      	push	{r7, lr}
 8000bda:	b082      	sub	sp, #8
 8000bdc:	af00      	add	r7, sp, #0

  /* DMA controller clock enable */
  __HAL_RCC_DMA1_CLK_ENABLE();
 8000bde:	4b18      	ldr	r3, [pc, #96]	; (8000c40 <MX_DMA_Init+0x68>)
 8000be0:	695b      	ldr	r3, [r3, #20]
 8000be2:	4a17      	ldr	r2, [pc, #92]	; (8000c40 <MX_DMA_Init+0x68>)
 8000be4:	f043 0301 	orr.w	r3, r3, #1
 8000be8:	6153      	str	r3, [r2, #20]
 8000bea:	4b15      	ldr	r3, [pc, #84]	; (8000c40 <MX_DMA_Init+0x68>)
 8000bec:	695b      	ldr	r3, [r3, #20]
 8000bee:	f003 0301 	and.w	r3, r3, #1
 8000bf2:	607b      	str	r3, [r7, #4]
 8000bf4:	687b      	ldr	r3, [r7, #4]

  /* DMA interrupt init */
  /* DMA1_Channel4_IRQn interrupt configuration */
  HAL_NVIC_SetPriority(DMA1_Channel4_IRQn, 0, 0);
 8000bf6:	2200      	movs	r2, #0
 8000bf8:	2100      	movs	r1, #0
 8000bfa:	200e      	movs	r0, #14
 8000bfc:	f000 fe95 	bl	800192a <HAL_NVIC_SetPriority>
  HAL_NVIC_EnableIRQ(DMA1_Channel4_IRQn);
 8000c00:	200e      	movs	r0, #14
 8000c02:	f000 feae 	bl	8001962 <HAL_NVIC_EnableIRQ>
  /* DMA1_Channel5_IRQn interrupt configuration */
  HAL_NVIC_SetPriority(DMA1_Channel5_IRQn, 0, 0);
 8000c06:	2200      	movs	r2, #0
 8000c08:	2100      	movs	r1, #0
 8000c0a:	200f      	movs	r0, #15
 8000c0c:	f000 fe8d 	bl	800192a <HAL_NVIC_SetPriority>
  HAL_NVIC_EnableIRQ(DMA1_Channel5_IRQn);
 8000c10:	200f      	movs	r0, #15
 8000c12:	f000 fea6 	bl	8001962 <HAL_NVIC_EnableIRQ>
  /* DMA1_Channel6_IRQn interrupt configuration */
  HAL_NVIC_SetPriority(DMA1_Channel6_IRQn, 0, 0);
 8000c16:	2200      	movs	r2, #0
 8000c18:	2100      	movs	r1, #0
 8000c1a:	2010      	movs	r0, #16
 8000c1c:	f000 fe85 	bl	800192a <HAL_NVIC_SetPriority>
  HAL_NVIC_EnableIRQ(DMA1_Channel6_IRQn);
 8000c20:	2010      	movs	r0, #16
 8000c22:	f000 fe9e 	bl	8001962 <HAL_NVIC_EnableIRQ>
  /* DMA1_Channel7_IRQn interrupt configuration */
  HAL_NVIC_SetPriority(DMA1_Channel7_IRQn, 0, 0);
 8000c26:	2200      	movs	r2, #0
 8000c28:	2100      	movs	r1, #0
 8000c2a:	2011      	movs	r0, #17
 8000c2c:	f000 fe7d 	bl	800192a <HAL_NVIC_SetPriority>
  HAL_NVIC_EnableIRQ(DMA1_Channel7_IRQn);
 8000c30:	2011      	movs	r0, #17
 8000c32:	f000 fe96 	bl	8001962 <HAL_NVIC_EnableIRQ>

}
 8000c36:	bf00      	nop
 8000c38:	3708      	adds	r7, #8
 8000c3a:	46bd      	mov	sp, r7
 8000c3c:	bd80      	pop	{r7, pc}
 8000c3e:	bf00      	nop
 8000c40:	40021000 	.word	0x40021000

08000c44 <MX_GPIO_Init>:
        * Output
        * EVENT_OUT
        * EXTI
*/
void MX_GPIO_Init(void)
{
 8000c44:	b580      	push	{r7, lr}
 8000c46:	b088      	sub	sp, #32
 8000c48:	af00      	add	r7, sp, #0

  GPIO_InitTypeDef GPIO_InitStruct = {0};
 8000c4a:	f107 0310 	add.w	r3, r7, #16
 8000c4e:	2200      	movs	r2, #0
 8000c50:	601a      	str	r2, [r3, #0]
 8000c52:	605a      	str	r2, [r3, #4]
 8000c54:	609a      	str	r2, [r3, #8]
 8000c56:	60da      	str	r2, [r3, #12]

  /* GPIO Ports Clock Enable */
  __HAL_RCC_GPIOD_CLK_ENABLE();
 8000c58:	4b26      	ldr	r3, [pc, #152]	; (8000cf4 <MX_GPIO_Init+0xb0>)
 8000c5a:	699b      	ldr	r3, [r3, #24]
 8000c5c:	4a25      	ldr	r2, [pc, #148]	; (8000cf4 <MX_GPIO_Init+0xb0>)
 8000c5e:	f043 0320 	orr.w	r3, r3, #32
 8000c62:	6193      	str	r3, [r2, #24]
 8000c64:	4b23      	ldr	r3, [pc, #140]	; (8000cf4 <MX_GPIO_Init+0xb0>)
 8000c66:	699b      	ldr	r3, [r3, #24]
 8000c68:	f003 0320 	and.w	r3, r3, #32
 8000c6c:	60fb      	str	r3, [r7, #12]
 8000c6e:	68fb      	ldr	r3, [r7, #12]
  __HAL_RCC_GPIOA_CLK_ENABLE();
 8000c70:	4b20      	ldr	r3, [pc, #128]	; (8000cf4 <MX_GPIO_Init+0xb0>)
 8000c72:	699b      	ldr	r3, [r3, #24]
 8000c74:	4a1f      	ldr	r2, [pc, #124]	; (8000cf4 <MX_GPIO_Init+0xb0>)
 8000c76:	f043 0304 	orr.w	r3, r3, #4
 8000c7a:	6193      	str	r3, [r2, #24]
 8000c7c:	4b1d      	ldr	r3, [pc, #116]	; (8000cf4 <MX_GPIO_Init+0xb0>)
 8000c7e:	699b      	ldr	r3, [r3, #24]
 8000c80:	f003 0304 	and.w	r3, r3, #4
 8000c84:	60bb      	str	r3, [r7, #8]
 8000c86:	68bb      	ldr	r3, [r7, #8]
  __HAL_RCC_GPIOB_CLK_ENABLE();
 8000c88:	4b1a      	ldr	r3, [pc, #104]	; (8000cf4 <MX_GPIO_Init+0xb0>)
 8000c8a:	699b      	ldr	r3, [r3, #24]
 8000c8c:	4a19      	ldr	r2, [pc, #100]	; (8000cf4 <MX_GPIO_Init+0xb0>)
 8000c8e:	f043 0308 	orr.w	r3, r3, #8
 8000c92:	6193      	str	r3, [r2, #24]
 8000c94:	4b17      	ldr	r3, [pc, #92]	; (8000cf4 <MX_GPIO_Init+0xb0>)
 8000c96:	699b      	ldr	r3, [r3, #24]
 8000c98:	f003 0308 	and.w	r3, r3, #8
 8000c9c:	607b      	str	r3, [r7, #4]
 8000c9e:	687b      	ldr	r3, [r7, #4]

  /*Configure GPIO pin Output Level */
  HAL_GPIO_WritePin(GPIOA, LED_BULE_Pin|LED_GREEN_Pin, GPIO_PIN_RESET);
 8000ca0:	2200      	movs	r2, #0
 8000ca2:	21c0      	movs	r1, #192	; 0xc0
 8000ca4:	4814      	ldr	r0, [pc, #80]	; (8000cf8 <MX_GPIO_Init+0xb4>)
 8000ca6:	f001 fa99 	bl	80021dc <HAL_GPIO_WritePin>

  /*Configure GPIO pin Output Level */
  HAL_GPIO_WritePin(LED_RED_GPIO_Port, LED_RED_Pin, GPIO_PIN_RESET);
 8000caa:	2200      	movs	r2, #0
 8000cac:	2101      	movs	r1, #1
 8000cae:	4813      	ldr	r0, [pc, #76]	; (8000cfc <MX_GPIO_Init+0xb8>)
 8000cb0:	f001 fa94 	bl	80021dc <HAL_GPIO_WritePin>

  /*Configure GPIO pins : PAPin PAPin */
  GPIO_InitStruct.Pin = LED_BULE_Pin|LED_GREEN_Pin;
 8000cb4:	23c0      	movs	r3, #192	; 0xc0
 8000cb6:	613b      	str	r3, [r7, #16]
  GPIO_InitStruct.Mode = GPIO_MODE_OUTPUT_PP;
 8000cb8:	2301      	movs	r3, #1
 8000cba:	617b      	str	r3, [r7, #20]
  GPIO_InitStruct.Pull = GPIO_NOPULL;
 8000cbc:	2300      	movs	r3, #0
 8000cbe:	61bb      	str	r3, [r7, #24]
  GPIO_InitStruct.Speed = GPIO_SPEED_FREQ_LOW;
 8000cc0:	2302      	movs	r3, #2
 8000cc2:	61fb      	str	r3, [r7, #28]
  HAL_GPIO_Init(GPIOA, &GPIO_InitStruct);
 8000cc4:	f107 0310 	add.w	r3, r7, #16
 8000cc8:	4619      	mov	r1, r3
 8000cca:	480b      	ldr	r0, [pc, #44]	; (8000cf8 <MX_GPIO_Init+0xb4>)
 8000ccc:	f001 f902 	bl	8001ed4 <HAL_GPIO_Init>

  /*Configure GPIO pin : PtPin */
  GPIO_InitStruct.Pin = LED_RED_Pin;
 8000cd0:	2301      	movs	r3, #1
 8000cd2:	613b      	str	r3, [r7, #16]
  GPIO_InitStruct.Mode = GPIO_MODE_OUTPUT_PP;
 8000cd4:	2301      	movs	r3, #1
 8000cd6:	617b      	str	r3, [r7, #20]
  GPIO_InitStruct.Pull = GPIO_NOPULL;
 8000cd8:	2300      	movs	r3, #0
 8000cda:	61bb      	str	r3, [r7, #24]
  GPIO_InitStruct.Speed = GPIO_SPEED_FREQ_LOW;
 8000cdc:	2302      	movs	r3, #2
 8000cde:	61fb      	str	r3, [r7, #28]
  HAL_GPIO_Init(LED_RED_GPIO_Port, &GPIO_InitStruct);
 8000ce0:	f107 0310 	add.w	r3, r7, #16
 8000ce4:	4619      	mov	r1, r3
 8000ce6:	4805      	ldr	r0, [pc, #20]	; (8000cfc <MX_GPIO_Init+0xb8>)
 8000ce8:	f001 f8f4 	bl	8001ed4 <HAL_GPIO_Init>

}
 8000cec:	bf00      	nop
 8000cee:	3720      	adds	r7, #32
 8000cf0:	46bd      	mov	sp, r7
 8000cf2:	bd80      	pop	{r7, pc}
 8000cf4:	40021000 	.word	0x40021000
 8000cf8:	40010800 	.word	0x40010800
 8000cfc:	40010c00 	.word	0x40010c00

08000d00 <main>:
/**
  * @brief  The application entry point.
  * @retval int
  */
int main(void)
{
 8000d00:	b580      	push	{r7, lr}
 8000d02:	af00      	add	r7, sp, #0
  /* USER CODE END 1 */

  /* MCU Configuration--------------------------------------------------------*/

  /* Reset of all peripherals, Initializes the Flash interface and the Systick. */
  HAL_Init();
 8000d04:	f000 fcb4 	bl	8001670 <HAL_Init>
  /* USER CODE BEGIN Init */

  /* USER CODE END Init */

  /* Configure the system clock */
  SystemClock_Config();
 8000d08:	f000 f846 	bl	8000d98 <SystemClock_Config>
  /* USER CODE BEGIN SysInit */

  /* USER CODE END SysInit */

  /* Initialize all configured peripherals */
  MX_GPIO_Init();
 8000d0c:	f7ff ff9a 	bl	8000c44 <MX_GPIO_Init>
  MX_USART1_UART_Init();
 8000d10:	f000 f9ea 	bl	80010e8 <MX_USART1_UART_Init>
  MX_DMA_Init();
 8000d14:	f7ff ff60 	bl	8000bd8 <MX_DMA_Init>
  MX_USART2_UART_Init();
 8000d18:	f000 fa10 	bl	800113c <MX_USART2_UART_Init>
  MX_USART3_UART_Init();
 8000d1c:	f000 fa38 	bl	8001190 <MX_USART3_UART_Init>
  /* USER CODE BEGIN 2 */
//  HAL_UARTEx_ReceiveToIdle_DMA(&huart2, (uint8_t *)reciveDate, MAX_DATA_SIZE);
//  __HAL_DMA_DISABLE_IT(&hdma_usart2_rx,DMA_IT_HT);

  HAL_UART_Receive_DMA(&huart2, UsartType2.usartDMA_rxBuf, RECEIVELEN);//串口1DMA
 8000d20:	f44f 6280 	mov.w	r2, #1024	; 0x400
 8000d24:	4917      	ldr	r1, [pc, #92]	; (8000d84 <main+0x84>)
 8000d26:	4818      	ldr	r0, [pc, #96]	; (8000d88 <main+0x88>)
 8000d28:	f001 ff74 	bl	8002c14 <HAL_UART_Receive_DMA>
  __HAL_UART_ENABLE_IT(&huart2, UART_IT_IDLE);
 8000d2c:	4b16      	ldr	r3, [pc, #88]	; (8000d88 <main+0x88>)
 8000d2e:	681b      	ldr	r3, [r3, #0]
 8000d30:	68da      	ldr	r2, [r3, #12]
 8000d32:	4b15      	ldr	r3, [pc, #84]	; (8000d88 <main+0x88>)
 8000d34:	681b      	ldr	r3, [r3, #0]
 8000d36:	f042 0210 	orr.w	r2, r2, #16
 8000d3a:	60da      	str	r2, [r3, #12]

  /* Infinite loop */
  /* USER CODE BEGIN WHILE */
  while (1)
  {
		if(UsartType2.receive_flag)//如果产生了空闲中断
 8000d3c:	4b13      	ldr	r3, [pc, #76]	; (8000d8c <main+0x8c>)
 8000d3e:	781b      	ldrb	r3, [r3, #0]
 8000d40:	f003 0301 	and.w	r3, r3, #1
 8000d44:	b2db      	uxtb	r3, r3
 8000d46:	2b00      	cmp	r3, #0
 8000d48:	d0f8      	beq.n	8000d3c <main+0x3c>
		{
			UsartType2.receive_flag=0;//清零标记
 8000d4a:	4a10      	ldr	r2, [pc, #64]	; (8000d8c <main+0x8c>)
 8000d4c:	7813      	ldrb	r3, [r2, #0]
 8000d4e:	f36f 0300 	bfc	r3, #0, #1
 8000d52:	7013      	strb	r3, [r2, #0]
			//串口打印收到的数据
			Usart2SendData_DMA(UsartType2.usartDMA_rxBuf,UsartType2.rx_len);
 8000d54:	4b0d      	ldr	r3, [pc, #52]	; (8000d8c <main+0x8c>)
 8000d56:	885b      	ldrh	r3, [r3, #2]
 8000d58:	4619      	mov	r1, r3
 8000d5a:	480a      	ldr	r0, [pc, #40]	; (8000d84 <main+0x84>)
 8000d5c:	f000 fbc8 	bl	80014f0 <Usart2SendData_DMA>
			HAL_Delay(10);
 8000d60:	200a      	movs	r0, #10
 8000d62:	f000 fce7 	bl	8001734 <HAL_Delay>
			//串口打印收到的数据的数据长度
			UART2_printf_DMA("Len is %d \r\n",UsartType2.rx_len);
 8000d66:	4b09      	ldr	r3, [pc, #36]	; (8000d8c <main+0x8c>)
 8000d68:	885b      	ldrh	r3, [r3, #2]
 8000d6a:	461a      	mov	r2, r3
 8000d6c:	4908      	ldr	r1, [pc, #32]	; (8000d90 <main+0x90>)
 8000d6e:	4809      	ldr	r0, [pc, #36]	; (8000d94 <main+0x94>)
 8000d70:	f003 fbcc 	bl	800450c <siprintf>
 8000d74:	4603      	mov	r3, r0
 8000d76:	b29b      	uxth	r3, r3
 8000d78:	461a      	mov	r2, r3
 8000d7a:	4906      	ldr	r1, [pc, #24]	; (8000d94 <main+0x94>)
 8000d7c:	4802      	ldr	r0, [pc, #8]	; (8000d88 <main+0x88>)
 8000d7e:	f001 fedd 	bl	8002b3c <HAL_UART_Transmit_DMA>
		if(UsartType2.receive_flag)//如果产生了空闲中断
 8000d82:	e7db      	b.n	8000d3c <main+0x3c>
 8000d84:	200004a4 	.word	0x200004a4
 8000d88:	200008a4 	.word	0x200008a4
 8000d8c:	200004a0 	.word	0x200004a0
 8000d90:	08008048 	.word	0x08008048
 8000d94:	20000290 	.word	0x20000290

08000d98 <SystemClock_Config>:
/**
  * @brief System Clock Configuration
  * @retval None
  */
void SystemClock_Config(void)
{
 8000d98:	b580      	push	{r7, lr}
 8000d9a:	b090      	sub	sp, #64	; 0x40
 8000d9c:	af00      	add	r7, sp, #0
  RCC_OscInitTypeDef RCC_OscInitStruct = {0};
 8000d9e:	f107 0318 	add.w	r3, r7, #24
 8000da2:	2228      	movs	r2, #40	; 0x28
 8000da4:	2100      	movs	r1, #0
 8000da6:	4618      	mov	r0, r3
 8000da8:	f002 fd32 	bl	8003810 <memset>
  RCC_ClkInitTypeDef RCC_ClkInitStruct = {0};
 8000dac:	1d3b      	adds	r3, r7, #4
 8000dae:	2200      	movs	r2, #0
 8000db0:	601a      	str	r2, [r3, #0]
 8000db2:	605a      	str	r2, [r3, #4]
 8000db4:	609a      	str	r2, [r3, #8]
 8000db6:	60da      	str	r2, [r3, #12]
 8000db8:	611a      	str	r2, [r3, #16]

  /** Initializes the RCC Oscillators according to the specified parameters
  * in the RCC_OscInitTypeDef structure.
  */
  RCC_OscInitStruct.OscillatorType = RCC_OSCILLATORTYPE_HSI;
 8000dba:	2302      	movs	r3, #2
 8000dbc:	61bb      	str	r3, [r7, #24]
  RCC_OscInitStruct.HSIState = RCC_HSI_ON;
 8000dbe:	2301      	movs	r3, #1
 8000dc0:	62bb      	str	r3, [r7, #40]	; 0x28
  RCC_OscInitStruct.HSICalibrationValue = RCC_HSICALIBRATION_DEFAULT;
 8000dc2:	2310      	movs	r3, #16
 8000dc4:	62fb      	str	r3, [r7, #44]	; 0x2c
  RCC_OscInitStruct.PLL.PLLState = RCC_PLL_NONE;
 8000dc6:	2300      	movs	r3, #0
 8000dc8:	637b      	str	r3, [r7, #52]	; 0x34
  if (HAL_RCC_OscConfig(&RCC_OscInitStruct) != HAL_OK)
 8000dca:	f107 0318 	add.w	r3, r7, #24
 8000dce:	4618      	mov	r0, r3
 8000dd0:	f001 fa1c 	bl	800220c <HAL_RCC_OscConfig>
 8000dd4:	4603      	mov	r3, r0
 8000dd6:	2b00      	cmp	r3, #0
 8000dd8:	d001      	beq.n	8000dde <SystemClock_Config+0x46>
  {
    Error_Handler();
 8000dda:	f000 f818 	bl	8000e0e <Error_Handler>
  }
  /** Initializes the CPU, AHB and APB buses clocks
  */
  RCC_ClkInitStruct.ClockType = RCC_CLOCKTYPE_HCLK|RCC_CLOCKTYPE_SYSCLK
 8000dde:	230f      	movs	r3, #15
 8000de0:	607b      	str	r3, [r7, #4]
                              |RCC_CLOCKTYPE_PCLK1|RCC_CLOCKTYPE_PCLK2;
  RCC_ClkInitStruct.SYSCLKSource = RCC_SYSCLKSOURCE_HSI;
 8000de2:	2300      	movs	r3, #0
 8000de4:	60bb      	str	r3, [r7, #8]
  RCC_ClkInitStruct.AHBCLKDivider = RCC_SYSCLK_DIV1;
 8000de6:	2300      	movs	r3, #0
 8000de8:	60fb      	str	r3, [r7, #12]
  RCC_ClkInitStruct.APB1CLKDivider = RCC_HCLK_DIV1;
 8000dea:	2300      	movs	r3, #0
 8000dec:	613b      	str	r3, [r7, #16]
  RCC_ClkInitStruct.APB2CLKDivider = RCC_HCLK_DIV1;
 8000dee:	2300      	movs	r3, #0
 8000df0:	617b      	str	r3, [r7, #20]

  if (HAL_RCC_ClockConfig(&RCC_ClkInitStruct, FLASH_LATENCY_0) != HAL_OK)
 8000df2:	1d3b      	adds	r3, r7, #4
 8000df4:	2100      	movs	r1, #0
 8000df6:	4618      	mov	r0, r3
 8000df8:	f001 fc88 	bl	800270c <HAL_RCC_ClockConfig>
 8000dfc:	4603      	mov	r3, r0
 8000dfe:	2b00      	cmp	r3, #0
 8000e00:	d001      	beq.n	8000e06 <SystemClock_Config+0x6e>
  {
    Error_Handler();
 8000e02:	f000 f804 	bl	8000e0e <Error_Handler>
  }
}
 8000e06:	bf00      	nop
 8000e08:	3740      	adds	r7, #64	; 0x40
 8000e0a:	46bd      	mov	sp, r7
 8000e0c:	bd80      	pop	{r7, pc}

08000e0e <Error_Handler>:
/**
  * @brief  This function is executed in case of error occurrence.
  * @retval None
  */
void Error_Handler(void)
{
 8000e0e:	b480      	push	{r7}
 8000e10:	af00      	add	r7, sp, #0
  \details Disables IRQ interrupts by setting the I-bit in the CPSR.
           Can only be executed in Privileged modes.
 */
__STATIC_FORCEINLINE void __disable_irq(void)
{
  __ASM volatile ("cpsid i" : : : "memory");
 8000e12:	b672      	cpsid	i
}
 8000e14:	bf00      	nop
  /* USER CODE BEGIN Error_Handler_Debug */
  /* User can add his own implementation to report the HAL error return state */
  __disable_irq();
  while (1)
 8000e16:	e7fe      	b.n	8000e16 <Error_Handler+0x8>

08000e18 <HAL_MspInit>:
/* USER CODE END 0 */
/**
  * Initializes the Global MSP.
  */
void HAL_MspInit(void)
{
 8000e18:	b480      	push	{r7}
 8000e1a:	b085      	sub	sp, #20
 8000e1c:	af00      	add	r7, sp, #0
  /* USER CODE BEGIN MspInit 0 */

  /* USER CODE END MspInit 0 */

  __HAL_RCC_AFIO_CLK_ENABLE();
 8000e1e:	4b15      	ldr	r3, [pc, #84]	; (8000e74 <HAL_MspInit+0x5c>)
 8000e20:	699b      	ldr	r3, [r3, #24]
 8000e22:	4a14      	ldr	r2, [pc, #80]	; (8000e74 <HAL_MspInit+0x5c>)
 8000e24:	f043 0301 	orr.w	r3, r3, #1
 8000e28:	6193      	str	r3, [r2, #24]
 8000e2a:	4b12      	ldr	r3, [pc, #72]	; (8000e74 <HAL_MspInit+0x5c>)
 8000e2c:	699b      	ldr	r3, [r3, #24]
 8000e2e:	f003 0301 	and.w	r3, r3, #1
 8000e32:	60bb      	str	r3, [r7, #8]
 8000e34:	68bb      	ldr	r3, [r7, #8]
  __HAL_RCC_PWR_CLK_ENABLE();
 8000e36:	4b0f      	ldr	r3, [pc, #60]	; (8000e74 <HAL_MspInit+0x5c>)
 8000e38:	69db      	ldr	r3, [r3, #28]
 8000e3a:	4a0e      	ldr	r2, [pc, #56]	; (8000e74 <HAL_MspInit+0x5c>)
 8000e3c:	f043 5380 	orr.w	r3, r3, #268435456	; 0x10000000
 8000e40:	61d3      	str	r3, [r2, #28]
 8000e42:	4b0c      	ldr	r3, [pc, #48]	; (8000e74 <HAL_MspInit+0x5c>)
 8000e44:	69db      	ldr	r3, [r3, #28]
 8000e46:	f003 5380 	and.w	r3, r3, #268435456	; 0x10000000
 8000e4a:	607b      	str	r3, [r7, #4]
 8000e4c:	687b      	ldr	r3, [r7, #4]

  /* System interrupt init*/

  /** NOJTAG: JTAG-DP Disabled and SW-DP Enabled
  */
  __HAL_AFIO_REMAP_SWJ_NOJTAG();
 8000e4e:	4b0a      	ldr	r3, [pc, #40]	; (8000e78 <HAL_MspInit+0x60>)
 8000e50:	685b      	ldr	r3, [r3, #4]
 8000e52:	60fb      	str	r3, [r7, #12]
 8000e54:	68fb      	ldr	r3, [r7, #12]
 8000e56:	f023 63e0 	bic.w	r3, r3, #117440512	; 0x7000000
 8000e5a:	60fb      	str	r3, [r7, #12]
 8000e5c:	68fb      	ldr	r3, [r7, #12]
 8000e5e:	f043 7300 	orr.w	r3, r3, #33554432	; 0x2000000
 8000e62:	60fb      	str	r3, [r7, #12]
 8000e64:	4a04      	ldr	r2, [pc, #16]	; (8000e78 <HAL_MspInit+0x60>)
 8000e66:	68fb      	ldr	r3, [r7, #12]
 8000e68:	6053      	str	r3, [r2, #4]

  /* USER CODE BEGIN MspInit 1 */

  /* USER CODE END MspInit 1 */
}
 8000e6a:	bf00      	nop
 8000e6c:	3714      	adds	r7, #20
 8000e6e:	46bd      	mov	sp, r7
 8000e70:	bc80      	pop	{r7}
 8000e72:	4770      	bx	lr
 8000e74:	40021000 	.word	0x40021000
 8000e78:	40010000 	.word	0x40010000

08000e7c <NMI_Handler>:
/******************************************************************************/
/**
  * @brief This function handles Non maskable interrupt.
  */
void NMI_Handler(void)
{
 8000e7c:	b480      	push	{r7}
 8000e7e:	af00      	add	r7, sp, #0
  /* USER CODE BEGIN NonMaskableInt_IRQn 0 */

  /* USER CODE END NonMaskableInt_IRQn 0 */
  /* USER CODE BEGIN NonMaskableInt_IRQn 1 */
  while (1)
 8000e80:	e7fe      	b.n	8000e80 <NMI_Handler+0x4>

08000e82 <HardFault_Handler>:

/**
  * @brief This function handles Hard fault interrupt.
  */
void HardFault_Handler(void)
{
 8000e82:	b480      	push	{r7}
 8000e84:	af00      	add	r7, sp, #0
  /* USER CODE BEGIN HardFault_IRQn 0 */

  /* USER CODE END HardFault_IRQn 0 */
  while (1)
 8000e86:	e7fe      	b.n	8000e86 <HardFault_Handler+0x4>

08000e88 <MemManage_Handler>:

/**
  * @brief This function handles Memory management fault.
  */
void MemManage_Handler(void)
{
 8000e88:	b480      	push	{r7}
 8000e8a:	af00      	add	r7, sp, #0
  /* USER CODE BEGIN MemoryManagement_IRQn 0 */

  /* USER CODE END MemoryManagement_IRQn 0 */
  while (1)
 8000e8c:	e7fe      	b.n	8000e8c <MemManage_Handler+0x4>

08000e8e <BusFault_Handler>:

/**
  * @brief This function handles Prefetch fault, memory access fault.
  */
void BusFault_Handler(void)
{
 8000e8e:	b480      	push	{r7}
 8000e90:	af00      	add	r7, sp, #0
  /* USER CODE BEGIN BusFault_IRQn 0 */

  /* USER CODE END BusFault_IRQn 0 */
  while (1)
 8000e92:	e7fe      	b.n	8000e92 <BusFault_Handler+0x4>

08000e94 <UsageFault_Handler>:

/**
  * @brief This function handles Undefined instruction or illegal state.
  */
void UsageFault_Handler(void)
{
 8000e94:	b480      	push	{r7}
 8000e96:	af00      	add	r7, sp, #0
  /* USER CODE BEGIN UsageFault_IRQn 0 */

  /* USER CODE END UsageFault_IRQn 0 */
  while (1)
 8000e98:	e7fe      	b.n	8000e98 <UsageFault_Handler+0x4>

08000e9a <SVC_Handler>:

/**
  * @brief This function handles System service call via SWI instruction.
  */
void SVC_Handler(void)
{
 8000e9a:	b480      	push	{r7}
 8000e9c:	af00      	add	r7, sp, #0

  /* USER CODE END SVCall_IRQn 0 */
  /* USER CODE BEGIN SVCall_IRQn 1 */

  /* USER CODE END SVCall_IRQn 1 */
}
 8000e9e:	bf00      	nop
 8000ea0:	46bd      	mov	sp, r7
 8000ea2:	bc80      	pop	{r7}
 8000ea4:	4770      	bx	lr

08000ea6 <DebugMon_Handler>:

/**
  * @brief This function handles Debug monitor.
  */
void DebugMon_Handler(void)
{
 8000ea6:	b480      	push	{r7}
 8000ea8:	af00      	add	r7, sp, #0

  /* USER CODE END DebugMonitor_IRQn 0 */
  /* USER CODE BEGIN DebugMonitor_IRQn 1 */

  /* USER CODE END DebugMonitor_IRQn 1 */
}
 8000eaa:	bf00      	nop
 8000eac:	46bd      	mov	sp, r7
 8000eae:	bc80      	pop	{r7}
 8000eb0:	4770      	bx	lr

08000eb2 <PendSV_Handler>:

/**
  * @brief This function handles Pendable request for system service.
  */
void PendSV_Handler(void)
{
 8000eb2:	b480      	push	{r7}
 8000eb4:	af00      	add	r7, sp, #0

  /* USER CODE END PendSV_IRQn 0 */
  /* USER CODE BEGIN PendSV_IRQn 1 */

  /* USER CODE END PendSV_IRQn 1 */
}
 8000eb6:	bf00      	nop
 8000eb8:	46bd      	mov	sp, r7
 8000eba:	bc80      	pop	{r7}
 8000ebc:	4770      	bx	lr

08000ebe <SysTick_Handler>:

/**
  * @brief This function handles System tick timer.
  */
void SysTick_Handler(void)
{
 8000ebe:	b580      	push	{r7, lr}
 8000ec0:	af00      	add	r7, sp, #0
  /* USER CODE BEGIN SysTick_IRQn 0 */

  /* USER CODE END SysTick_IRQn 0 */
  HAL_IncTick();
 8000ec2:	f000 fc1b 	bl	80016fc <HAL_IncTick>
  /* USER CODE BEGIN SysTick_IRQn 1 */

  /* USER CODE END SysTick_IRQn 1 */
}
 8000ec6:	bf00      	nop
 8000ec8:	bd80      	pop	{r7, pc}
	...

08000ecc <DMA1_Channel4_IRQHandler>:

/**
  * @brief This function handles DMA1 channel4 global interrupt.
  */
void DMA1_Channel4_IRQHandler(void)
{
 8000ecc:	b580      	push	{r7, lr}
 8000ece:	af00      	add	r7, sp, #0
  /* USER CODE BEGIN DMA1_Channel4_IRQn 0 */

  /* USER CODE END DMA1_Channel4_IRQn 0 */
  HAL_DMA_IRQHandler(&hdma_usart1_tx);
 8000ed0:	4802      	ldr	r0, [pc, #8]	; (8000edc <DMA1_Channel4_IRQHandler+0x10>)
 8000ed2:	f000 fecb 	bl	8001c6c <HAL_DMA_IRQHandler>
  /* USER CODE BEGIN DMA1_Channel4_IRQn 1 */

  /* USER CODE END DMA1_Channel4_IRQn 1 */
}
 8000ed6:	bf00      	nop
 8000ed8:	bd80      	pop	{r7, pc}
 8000eda:	bf00      	nop
 8000edc:	20000390 	.word	0x20000390

08000ee0 <DMA1_Channel5_IRQHandler>:

/**
  * @brief This function handles DMA1 channel5 global interrupt.
  */
void DMA1_Channel5_IRQHandler(void)
{
 8000ee0:	b580      	push	{r7, lr}
 8000ee2:	af00      	add	r7, sp, #0
  /* USER CODE BEGIN DMA1_Channel5_IRQn 0 */

  /* USER CODE END DMA1_Channel5_IRQn 0 */
  HAL_DMA_IRQHandler(&hdma_usart1_rx);
 8000ee4:	4802      	ldr	r0, [pc, #8]	; (8000ef0 <DMA1_Channel5_IRQHandler+0x10>)
 8000ee6:	f000 fec1 	bl	8001c6c <HAL_DMA_IRQHandler>
  /* USER CODE BEGIN DMA1_Channel5_IRQn 1 */

  /* USER CODE END DMA1_Channel5_IRQn 1 */
}
 8000eea:	bf00      	nop
 8000eec:	bd80      	pop	{r7, pc}
 8000eee:	bf00      	nop
 8000ef0:	200003d4 	.word	0x200003d4

08000ef4 <DMA1_Channel6_IRQHandler>:

/**
  * @brief This function handles DMA1 channel6 global interrupt.
  */
void DMA1_Channel6_IRQHandler(void)
{
 8000ef4:	b580      	push	{r7, lr}
 8000ef6:	af00      	add	r7, sp, #0
  /* USER CODE BEGIN DMA1_Channel6_IRQn 0 */

  /* USER CODE END DMA1_Channel6_IRQn 0 */
  HAL_DMA_IRQHandler(&hdma_usart2_rx);
 8000ef8:	4802      	ldr	r0, [pc, #8]	; (8000f04 <DMA1_Channel6_IRQHandler+0x10>)
 8000efa:	f000 feb7 	bl	8001c6c <HAL_DMA_IRQHandler>
  /* USER CODE BEGIN DMA1_Channel6_IRQn 1 */

  /* USER CODE END DMA1_Channel6_IRQn 1 */
}
 8000efe:	bf00      	nop
 8000f00:	bd80      	pop	{r7, pc}
 8000f02:	bf00      	nop
 8000f04:	20000208 	.word	0x20000208

08000f08 <DMA1_Channel7_IRQHandler>:

/**
  * @brief This function handles DMA1 channel7 global interrupt.
  */
void DMA1_Channel7_IRQHandler(void)
{
 8000f08:	b580      	push	{r7, lr}
 8000f0a:	af00      	add	r7, sp, #0
  /* USER CODE BEGIN DMA1_Channel7_IRQn 0 */

  /* USER CODE END DMA1_Channel7_IRQn 0 */
  HAL_DMA_IRQHandler(&hdma_usart2_tx);
 8000f0c:	4802      	ldr	r0, [pc, #8]	; (8000f18 <DMA1_Channel7_IRQHandler+0x10>)
 8000f0e:	f000 fead 	bl	8001c6c <HAL_DMA_IRQHandler>
  /* USER CODE BEGIN DMA1_Channel7_IRQn 1 */

  /* USER CODE END DMA1_Channel7_IRQn 1 */
}
 8000f12:	bf00      	nop
 8000f14:	bd80      	pop	{r7, pc}
 8000f16:	bf00      	nop
 8000f18:	20000418 	.word	0x20000418

08000f1c <USART1_IRQHandler>:

/**
  * @brief This function handles USART1 global interrupt.
  */
void USART1_IRQHandler(void)
{
 8000f1c:	b580      	push	{r7, lr}
 8000f1e:	af00      	add	r7, sp, #0
  /* USER CODE BEGIN USART1_IRQn 0 */

  /* USER CODE END USART1_IRQn 0 */
  HAL_UART_IRQHandler(&huart1);
 8000f20:	4802      	ldr	r0, [pc, #8]	; (8000f2c <USART1_IRQHandler+0x10>)
 8000f22:	f001 ff03 	bl	8002d2c <HAL_UART_IRQHandler>
  /* USER CODE BEGIN USART1_IRQn 1 */

  /* USER CODE END USART1_IRQn 1 */
}
 8000f26:	bf00      	nop
 8000f28:	bd80      	pop	{r7, pc}
 8000f2a:	bf00      	nop
 8000f2c:	2000045c 	.word	0x2000045c

08000f30 <USART2_IRQHandler>:

/**
  * @brief This function handles USART2 global interrupt.
  */
void USART2_IRQHandler(void)
{
 8000f30:	b580      	push	{r7, lr}
 8000f32:	af00      	add	r7, sp, #0
  /* USER CODE BEGIN USART2_IRQn 0 */
  UsartReceive_IDLE(&huart2);
 8000f34:	4803      	ldr	r0, [pc, #12]	; (8000f44 <USART2_IRQHandler+0x14>)
 8000f36:	f000 fb35 	bl	80015a4 <UsartReceive_IDLE>
  /* USER CODE END USART2_IRQn 0 */
  HAL_UART_IRQHandler(&huart2);
 8000f3a:	4802      	ldr	r0, [pc, #8]	; (8000f44 <USART2_IRQHandler+0x14>)
 8000f3c:	f001 fef6 	bl	8002d2c <HAL_UART_IRQHandler>
  /* USER CODE BEGIN USART2_IRQn 1 */

  /* USER CODE END USART2_IRQn 1 */
}
 8000f40:	bf00      	nop
 8000f42:	bd80      	pop	{r7, pc}
 8000f44:	200008a4 	.word	0x200008a4

08000f48 <USART3_IRQHandler>:

/**
  * @brief This function handles USART3 global interrupt.
  */
void USART3_IRQHandler(void)
{
 8000f48:	b580      	push	{r7, lr}
 8000f4a:	af00      	add	r7, sp, #0
  /* USER CODE BEGIN USART3_IRQn 0 */

  /* USER CODE END USART3_IRQn 0 */
  HAL_UART_IRQHandler(&huart3);
 8000f4c:	4802      	ldr	r0, [pc, #8]	; (8000f58 <USART3_IRQHandler+0x10>)
 8000f4e:	f001 feed 	bl	8002d2c <HAL_UART_IRQHandler>
  /* USER CODE BEGIN USART3_IRQn 1 */

  /* USER CODE END USART3_IRQn 1 */
}
 8000f52:	bf00      	nop
 8000f54:	bd80      	pop	{r7, pc}
 8000f56:	bf00      	nop
 8000f58:	2000024c 	.word	0x2000024c

08000f5c <_getpid>:
void initialise_monitor_handles()
{
}

int _getpid(void)
{
 8000f5c:	b480      	push	{r7}
 8000f5e:	af00      	add	r7, sp, #0
	return 1;
 8000f60:	2301      	movs	r3, #1
}
 8000f62:	4618      	mov	r0, r3
 8000f64:	46bd      	mov	sp, r7
 8000f66:	bc80      	pop	{r7}
 8000f68:	4770      	bx	lr

08000f6a <_kill>:

int _kill(int pid, int sig)
{
 8000f6a:	b580      	push	{r7, lr}
 8000f6c:	b082      	sub	sp, #8
 8000f6e:	af00      	add	r7, sp, #0
 8000f70:	6078      	str	r0, [r7, #4]
 8000f72:	6039      	str	r1, [r7, #0]
	errno = EINVAL;
 8000f74:	f002 fc22 	bl	80037bc <__errno>
 8000f78:	4603      	mov	r3, r0
 8000f7a:	2216      	movs	r2, #22
 8000f7c:	601a      	str	r2, [r3, #0]
	return -1;
 8000f7e:	f04f 33ff 	mov.w	r3, #4294967295
}
 8000f82:	4618      	mov	r0, r3
 8000f84:	3708      	adds	r7, #8
 8000f86:	46bd      	mov	sp, r7
 8000f88:	bd80      	pop	{r7, pc}

08000f8a <_exit>:

void _exit (int status)
{
 8000f8a:	b580      	push	{r7, lr}
 8000f8c:	b082      	sub	sp, #8
 8000f8e:	af00      	add	r7, sp, #0
 8000f90:	6078      	str	r0, [r7, #4]
	_kill(status, -1);
 8000f92:	f04f 31ff 	mov.w	r1, #4294967295
 8000f96:	6878      	ldr	r0, [r7, #4]
 8000f98:	f7ff ffe7 	bl	8000f6a <_kill>
	while (1) {}		/* Make sure we hang here */
 8000f9c:	e7fe      	b.n	8000f9c <_exit+0x12>

08000f9e <_read>:
}

__attribute__((weak)) int _read(int file, char *ptr, int len)
{
 8000f9e:	b580      	push	{r7, lr}
 8000fa0:	b086      	sub	sp, #24
 8000fa2:	af00      	add	r7, sp, #0
 8000fa4:	60f8      	str	r0, [r7, #12]
 8000fa6:	60b9      	str	r1, [r7, #8]
 8000fa8:	607a      	str	r2, [r7, #4]
	int DataIdx;

	for (DataIdx = 0; DataIdx < len; DataIdx++)
 8000faa:	2300      	movs	r3, #0
 8000fac:	617b      	str	r3, [r7, #20]
 8000fae:	e00a      	b.n	8000fc6 <_read+0x28>
	{
		*ptr++ = __io_getchar();
 8000fb0:	f3af 8000 	nop.w
 8000fb4:	4601      	mov	r1, r0
 8000fb6:	68bb      	ldr	r3, [r7, #8]
 8000fb8:	1c5a      	adds	r2, r3, #1
 8000fba:	60ba      	str	r2, [r7, #8]
 8000fbc:	b2ca      	uxtb	r2, r1
 8000fbe:	701a      	strb	r2, [r3, #0]
	for (DataIdx = 0; DataIdx < len; DataIdx++)
 8000fc0:	697b      	ldr	r3, [r7, #20]
 8000fc2:	3301      	adds	r3, #1
 8000fc4:	617b      	str	r3, [r7, #20]
 8000fc6:	697a      	ldr	r2, [r7, #20]
 8000fc8:	687b      	ldr	r3, [r7, #4]
 8000fca:	429a      	cmp	r2, r3
 8000fcc:	dbf0      	blt.n	8000fb0 <_read+0x12>
	}

return len;
 8000fce:	687b      	ldr	r3, [r7, #4]
}
 8000fd0:	4618      	mov	r0, r3
 8000fd2:	3718      	adds	r7, #24
 8000fd4:	46bd      	mov	sp, r7
 8000fd6:	bd80      	pop	{r7, pc}

08000fd8 <_write>:

__attribute__((weak)) int _write(int file, char *ptr, int len)
{
 8000fd8:	b580      	push	{r7, lr}
 8000fda:	b086      	sub	sp, #24
 8000fdc:	af00      	add	r7, sp, #0
 8000fde:	60f8      	str	r0, [r7, #12]
 8000fe0:	60b9      	str	r1, [r7, #8]
 8000fe2:	607a      	str	r2, [r7, #4]
	int DataIdx;

	for (DataIdx = 0; DataIdx < len; DataIdx++)
 8000fe4:	2300      	movs	r3, #0
 8000fe6:	617b      	str	r3, [r7, #20]
 8000fe8:	e009      	b.n	8000ffe <_write+0x26>
	{
		__io_putchar(*ptr++);
 8000fea:	68bb      	ldr	r3, [r7, #8]
 8000fec:	1c5a      	adds	r2, r3, #1
 8000fee:	60ba      	str	r2, [r7, #8]
 8000ff0:	781b      	ldrb	r3, [r3, #0]
 8000ff2:	4618      	mov	r0, r3
 8000ff4:	f3af 8000 	nop.w
	for (DataIdx = 0; DataIdx < len; DataIdx++)
 8000ff8:	697b      	ldr	r3, [r7, #20]
 8000ffa:	3301      	adds	r3, #1
 8000ffc:	617b      	str	r3, [r7, #20]
 8000ffe:	697a      	ldr	r2, [r7, #20]
 8001000:	687b      	ldr	r3, [r7, #4]
 8001002:	429a      	cmp	r2, r3
 8001004:	dbf1      	blt.n	8000fea <_write+0x12>
	}
	return len;
 8001006:	687b      	ldr	r3, [r7, #4]
}
 8001008:	4618      	mov	r0, r3
 800100a:	3718      	adds	r7, #24
 800100c:	46bd      	mov	sp, r7
 800100e:	bd80      	pop	{r7, pc}

08001010 <_close>:

int _close(int file)
{
 8001010:	b480      	push	{r7}
 8001012:	b083      	sub	sp, #12
 8001014:	af00      	add	r7, sp, #0
 8001016:	6078      	str	r0, [r7, #4]
	return -1;
 8001018:	f04f 33ff 	mov.w	r3, #4294967295
}
 800101c:	4618      	mov	r0, r3
 800101e:	370c      	adds	r7, #12
 8001020:	46bd      	mov	sp, r7
 8001022:	bc80      	pop	{r7}
 8001024:	4770      	bx	lr

08001026 <_fstat>:


int _fstat(int file, struct stat *st)
{
 8001026:	b480      	push	{r7}
 8001028:	b083      	sub	sp, #12
 800102a:	af00      	add	r7, sp, #0
 800102c:	6078      	str	r0, [r7, #4]
 800102e:	6039      	str	r1, [r7, #0]
	st->st_mode = S_IFCHR;
 8001030:	683b      	ldr	r3, [r7, #0]
 8001032:	f44f 5200 	mov.w	r2, #8192	; 0x2000
 8001036:	605a      	str	r2, [r3, #4]
	return 0;
 8001038:	2300      	movs	r3, #0
}
 800103a:	4618      	mov	r0, r3
 800103c:	370c      	adds	r7, #12
 800103e:	46bd      	mov	sp, r7
 8001040:	bc80      	pop	{r7}
 8001042:	4770      	bx	lr

08001044 <_isatty>:

int _isatty(int file)
{
 8001044:	b480      	push	{r7}
 8001046:	b083      	sub	sp, #12
 8001048:	af00      	add	r7, sp, #0
 800104a:	6078      	str	r0, [r7, #4]
	return 1;
 800104c:	2301      	movs	r3, #1
}
 800104e:	4618      	mov	r0, r3
 8001050:	370c      	adds	r7, #12
 8001052:	46bd      	mov	sp, r7
 8001054:	bc80      	pop	{r7}
 8001056:	4770      	bx	lr

08001058 <_lseek>:

int _lseek(int file, int ptr, int dir)
{
 8001058:	b480      	push	{r7}
 800105a:	b085      	sub	sp, #20
 800105c:	af00      	add	r7, sp, #0
 800105e:	60f8      	str	r0, [r7, #12]
 8001060:	60b9      	str	r1, [r7, #8]
 8001062:	607a      	str	r2, [r7, #4]
	return 0;
 8001064:	2300      	movs	r3, #0
}
 8001066:	4618      	mov	r0, r3
 8001068:	3714      	adds	r7, #20
 800106a:	46bd      	mov	sp, r7
 800106c:	bc80      	pop	{r7}
 800106e:	4770      	bx	lr

08001070 <_sbrk>:
 *
 * @param incr Memory size
 * @return Pointer to allocated memory
 */
void *_sbrk(ptrdiff_t incr)
{
 8001070:	b580      	push	{r7, lr}
 8001072:	b086      	sub	sp, #24
 8001074:	af00      	add	r7, sp, #0
 8001076:	6078      	str	r0, [r7, #4]
  extern uint8_t _end; /* Symbol defined in the linker script */
  extern uint8_t _estack; /* Symbol defined in the linker script */
  extern uint32_t _Min_Stack_Size; /* Symbol defined in the linker script */
  const uint32_t stack_limit = (uint32_t)&_estack - (uint32_t)&_Min_Stack_Size;
 8001078:	4a14      	ldr	r2, [pc, #80]	; (80010cc <_sbrk+0x5c>)
 800107a:	4b15      	ldr	r3, [pc, #84]	; (80010d0 <_sbrk+0x60>)
 800107c:	1ad3      	subs	r3, r2, r3
 800107e:	617b      	str	r3, [r7, #20]
  const uint8_t *max_heap = (uint8_t *)stack_limit;
 8001080:	697b      	ldr	r3, [r7, #20]
 8001082:	613b      	str	r3, [r7, #16]
  uint8_t *prev_heap_end;

  /* Initialize heap end at first call */
  if (NULL == __sbrk_heap_end)
 8001084:	4b13      	ldr	r3, [pc, #76]	; (80010d4 <_sbrk+0x64>)
 8001086:	681b      	ldr	r3, [r3, #0]
 8001088:	2b00      	cmp	r3, #0
 800108a:	d102      	bne.n	8001092 <_sbrk+0x22>
  {
    __sbrk_heap_end = &_end;
 800108c:	4b11      	ldr	r3, [pc, #68]	; (80010d4 <_sbrk+0x64>)
 800108e:	4a12      	ldr	r2, [pc, #72]	; (80010d8 <_sbrk+0x68>)
 8001090:	601a      	str	r2, [r3, #0]
  }

  /* Protect heap from growing into the reserved MSP stack */
  if (__sbrk_heap_end + incr > max_heap)
 8001092:	4b10      	ldr	r3, [pc, #64]	; (80010d4 <_sbrk+0x64>)
 8001094:	681a      	ldr	r2, [r3, #0]
 8001096:	687b      	ldr	r3, [r7, #4]
 8001098:	4413      	add	r3, r2
 800109a:	693a      	ldr	r2, [r7, #16]
 800109c:	429a      	cmp	r2, r3
 800109e:	d207      	bcs.n	80010b0 <_sbrk+0x40>
  {
    errno = ENOMEM;
 80010a0:	f002 fb8c 	bl	80037bc <__errno>
 80010a4:	4603      	mov	r3, r0
 80010a6:	220c      	movs	r2, #12
 80010a8:	601a      	str	r2, [r3, #0]
    return (void *)-1;
 80010aa:	f04f 33ff 	mov.w	r3, #4294967295
 80010ae:	e009      	b.n	80010c4 <_sbrk+0x54>
  }

  prev_heap_end = __sbrk_heap_end;
 80010b0:	4b08      	ldr	r3, [pc, #32]	; (80010d4 <_sbrk+0x64>)
 80010b2:	681b      	ldr	r3, [r3, #0]
 80010b4:	60fb      	str	r3, [r7, #12]
  __sbrk_heap_end += incr;
 80010b6:	4b07      	ldr	r3, [pc, #28]	; (80010d4 <_sbrk+0x64>)
 80010b8:	681a      	ldr	r2, [r3, #0]
 80010ba:	687b      	ldr	r3, [r7, #4]
 80010bc:	4413      	add	r3, r2
 80010be:	4a05      	ldr	r2, [pc, #20]	; (80010d4 <_sbrk+0x64>)
 80010c0:	6013      	str	r3, [r2, #0]

  return (void *)prev_heap_end;
 80010c2:	68fb      	ldr	r3, [r7, #12]
}
 80010c4:	4618      	mov	r0, r3
 80010c6:	3718      	adds	r7, #24
 80010c8:	46bd      	mov	sp, r7
 80010ca:	bd80      	pop	{r7, pc}
 80010cc:	20005000 	.word	0x20005000
 80010d0:	00000400 	.word	0x00000400
 80010d4:	200001fc 	.word	0x200001fc
 80010d8:	20000960 	.word	0x20000960

080010dc <SystemInit>:
  * @note   This function should be used only after reset.
  * @param  None
  * @retval None
  */
void SystemInit (void)
{
 80010dc:	b480      	push	{r7}
 80010de:	af00      	add	r7, sp, #0

  /* Configure the Vector Table location -------------------------------------*/
#if defined(USER_VECT_TAB_ADDRESS)
  SCB->VTOR = VECT_TAB_BASE_ADDRESS | VECT_TAB_OFFSET; /* Vector Table Relocation in Internal SRAM. */
#endif /* USER_VECT_TAB_ADDRESS */
}
 80010e0:	bf00      	nop
 80010e2:	46bd      	mov	sp, r7
 80010e4:	bc80      	pop	{r7}
 80010e6:	4770      	bx	lr

080010e8 <MX_USART1_UART_Init>:
DMA_HandleTypeDef hdma_usart2_tx;

/* USART1 init function */

void MX_USART1_UART_Init(void)
{
 80010e8:	b580      	push	{r7, lr}
 80010ea:	af00      	add	r7, sp, #0
  /* USER CODE END USART1_Init 0 */

  /* USER CODE BEGIN USART1_Init 1 */

  /* USER CODE END USART1_Init 1 */
  huart1.Instance = USART1;
 80010ec:	4b11      	ldr	r3, [pc, #68]	; (8001134 <MX_USART1_UART_Init+0x4c>)
 80010ee:	4a12      	ldr	r2, [pc, #72]	; (8001138 <MX_USART1_UART_Init+0x50>)
 80010f0:	601a      	str	r2, [r3, #0]
  huart1.Init.BaudRate = 115200;
 80010f2:	4b10      	ldr	r3, [pc, #64]	; (8001134 <MX_USART1_UART_Init+0x4c>)
 80010f4:	f44f 32e1 	mov.w	r2, #115200	; 0x1c200
 80010f8:	605a      	str	r2, [r3, #4]
  huart1.Init.WordLength = UART_WORDLENGTH_8B;
 80010fa:	4b0e      	ldr	r3, [pc, #56]	; (8001134 <MX_USART1_UART_Init+0x4c>)
 80010fc:	2200      	movs	r2, #0
 80010fe:	609a      	str	r2, [r3, #8]
  huart1.Init.StopBits = UART_STOPBITS_1;
 8001100:	4b0c      	ldr	r3, [pc, #48]	; (8001134 <MX_USART1_UART_Init+0x4c>)
 8001102:	2200      	movs	r2, #0
 8001104:	60da      	str	r2, [r3, #12]
  huart1.Init.Parity = UART_PARITY_NONE;
 8001106:	4b0b      	ldr	r3, [pc, #44]	; (8001134 <MX_USART1_UART_Init+0x4c>)
 8001108:	2200      	movs	r2, #0
 800110a:	611a      	str	r2, [r3, #16]
  huart1.Init.Mode = UART_MODE_TX_RX;
 800110c:	4b09      	ldr	r3, [pc, #36]	; (8001134 <MX_USART1_UART_Init+0x4c>)
 800110e:	220c      	movs	r2, #12
 8001110:	615a      	str	r2, [r3, #20]
  huart1.Init.HwFlowCtl = UART_HWCONTROL_NONE;
 8001112:	4b08      	ldr	r3, [pc, #32]	; (8001134 <MX_USART1_UART_Init+0x4c>)
 8001114:	2200      	movs	r2, #0
 8001116:	619a      	str	r2, [r3, #24]
  huart1.Init.OverSampling = UART_OVERSAMPLING_16;
 8001118:	4b06      	ldr	r3, [pc, #24]	; (8001134 <MX_USART1_UART_Init+0x4c>)
 800111a:	2200      	movs	r2, #0
 800111c:	61da      	str	r2, [r3, #28]
  if (HAL_UART_Init(&huart1) != HAL_OK)
 800111e:	4805      	ldr	r0, [pc, #20]	; (8001134 <MX_USART1_UART_Init+0x4c>)
 8001120:	f001 fc8e 	bl	8002a40 <HAL_UART_Init>
 8001124:	4603      	mov	r3, r0
 8001126:	2b00      	cmp	r3, #0
 8001128:	d001      	beq.n	800112e <MX_USART1_UART_Init+0x46>
  {
    Error_Handler();
 800112a:	f7ff fe70 	bl	8000e0e <Error_Handler>
  }
  /* USER CODE BEGIN USART1_Init 2 */

  /* USER CODE END USART1_Init 2 */

}
 800112e:	bf00      	nop
 8001130:	bd80      	pop	{r7, pc}
 8001132:	bf00      	nop
 8001134:	2000045c 	.word	0x2000045c
 8001138:	40013800 	.word	0x40013800

0800113c <MX_USART2_UART_Init>:
/* USART2 init function */

void MX_USART2_UART_Init(void)
{
 800113c:	b580      	push	{r7, lr}
 800113e:	af00      	add	r7, sp, #0
  /* USER CODE END USART2_Init 0 */

  /* USER CODE BEGIN USART2_Init 1 */

  /* USER CODE END USART2_Init 1 */
  huart2.Instance = USART2;
 8001140:	4b11      	ldr	r3, [pc, #68]	; (8001188 <MX_USART2_UART_Init+0x4c>)
 8001142:	4a12      	ldr	r2, [pc, #72]	; (800118c <MX_USART2_UART_Init+0x50>)
 8001144:	601a      	str	r2, [r3, #0]
  huart2.Init.BaudRate = 115200;
 8001146:	4b10      	ldr	r3, [pc, #64]	; (8001188 <MX_USART2_UART_Init+0x4c>)
 8001148:	f44f 32e1 	mov.w	r2, #115200	; 0x1c200
 800114c:	605a      	str	r2, [r3, #4]
  huart2.Init.WordLength = UART_WORDLENGTH_8B;
 800114e:	4b0e      	ldr	r3, [pc, #56]	; (8001188 <MX_USART2_UART_Init+0x4c>)
 8001150:	2200      	movs	r2, #0
 8001152:	609a      	str	r2, [r3, #8]
  huart2.Init.StopBits = UART_STOPBITS_1;
 8001154:	4b0c      	ldr	r3, [pc, #48]	; (8001188 <MX_USART2_UART_Init+0x4c>)
 8001156:	2200      	movs	r2, #0
 8001158:	60da      	str	r2, [r3, #12]
  huart2.Init.Parity = UART_PARITY_NONE;
 800115a:	4b0b      	ldr	r3, [pc, #44]	; (8001188 <MX_USART2_UART_Init+0x4c>)
 800115c:	2200      	movs	r2, #0
 800115e:	611a      	str	r2, [r3, #16]
  huart2.Init.Mode = UART_MODE_TX_RX;
 8001160:	4b09      	ldr	r3, [pc, #36]	; (8001188 <MX_USART2_UART_Init+0x4c>)
 8001162:	220c      	movs	r2, #12
 8001164:	615a      	str	r2, [r3, #20]
  huart2.Init.HwFlowCtl = UART_HWCONTROL_NONE;
 8001166:	4b08      	ldr	r3, [pc, #32]	; (8001188 <MX_USART2_UART_Init+0x4c>)
 8001168:	2200      	movs	r2, #0
 800116a:	619a      	str	r2, [r3, #24]
  huart2.Init.OverSampling = UART_OVERSAMPLING_16;
 800116c:	4b06      	ldr	r3, [pc, #24]	; (8001188 <MX_USART2_UART_Init+0x4c>)
 800116e:	2200      	movs	r2, #0
 8001170:	61da      	str	r2, [r3, #28]
  if (HAL_UART_Init(&huart2) != HAL_OK)
 8001172:	4805      	ldr	r0, [pc, #20]	; (8001188 <MX_USART2_UART_Init+0x4c>)
 8001174:	f001 fc64 	bl	8002a40 <HAL_UART_Init>
 8001178:	4603      	mov	r3, r0
 800117a:	2b00      	cmp	r3, #0
 800117c:	d001      	beq.n	8001182 <MX_USART2_UART_Init+0x46>
  {
    Error_Handler();
 800117e:	f7ff fe46 	bl	8000e0e <Error_Handler>
  }
  /* USER CODE BEGIN USART2_Init 2 */
  //HAL_UART_Receive_IT(&huart2, (uint8_t *), );
  /* USER CODE END USART2_Init 2 */

}
 8001182:	bf00      	nop
 8001184:	bd80      	pop	{r7, pc}
 8001186:	bf00      	nop
 8001188:	200008a4 	.word	0x200008a4
 800118c:	40004400 	.word	0x40004400

08001190 <MX_USART3_UART_Init>:
/* USART3 init function */

void MX_USART3_UART_Init(void)
{
 8001190:	b580      	push	{r7, lr}
 8001192:	af00      	add	r7, sp, #0
  /* USER CODE END USART3_Init 0 */

  /* USER CODE BEGIN USART3_Init 1 */

  /* USER CODE END USART3_Init 1 */
  huart3.Instance = USART3;
 8001194:	4b11      	ldr	r3, [pc, #68]	; (80011dc <MX_USART3_UART_Init+0x4c>)
 8001196:	4a12      	ldr	r2, [pc, #72]	; (80011e0 <MX_USART3_UART_Init+0x50>)
 8001198:	601a      	str	r2, [r3, #0]
  huart3.Init.BaudRate = 115200;
 800119a:	4b10      	ldr	r3, [pc, #64]	; (80011dc <MX_USART3_UART_Init+0x4c>)
 800119c:	f44f 32e1 	mov.w	r2, #115200	; 0x1c200
 80011a0:	605a      	str	r2, [r3, #4]
  huart3.Init.WordLength = UART_WORDLENGTH_8B;
 80011a2:	4b0e      	ldr	r3, [pc, #56]	; (80011dc <MX_USART3_UART_Init+0x4c>)
 80011a4:	2200      	movs	r2, #0
 80011a6:	609a      	str	r2, [r3, #8]
  huart3.Init.StopBits = UART_STOPBITS_1;
 80011a8:	4b0c      	ldr	r3, [pc, #48]	; (80011dc <MX_USART3_UART_Init+0x4c>)
 80011aa:	2200      	movs	r2, #0
 80011ac:	60da      	str	r2, [r3, #12]
  huart3.Init.Parity = UART_PARITY_NONE;
 80011ae:	4b0b      	ldr	r3, [pc, #44]	; (80011dc <MX_USART3_UART_Init+0x4c>)
 80011b0:	2200      	movs	r2, #0
 80011b2:	611a      	str	r2, [r3, #16]
  huart3.Init.Mode = UART_MODE_TX_RX;
 80011b4:	4b09      	ldr	r3, [pc, #36]	; (80011dc <MX_USART3_UART_Init+0x4c>)
 80011b6:	220c      	movs	r2, #12
 80011b8:	615a      	str	r2, [r3, #20]
  huart3.Init.HwFlowCtl = UART_HWCONTROL_NONE;
 80011ba:	4b08      	ldr	r3, [pc, #32]	; (80011dc <MX_USART3_UART_Init+0x4c>)
 80011bc:	2200      	movs	r2, #0
 80011be:	619a      	str	r2, [r3, #24]
  huart3.Init.OverSampling = UART_OVERSAMPLING_16;
 80011c0:	4b06      	ldr	r3, [pc, #24]	; (80011dc <MX_USART3_UART_Init+0x4c>)
 80011c2:	2200      	movs	r2, #0
 80011c4:	61da      	str	r2, [r3, #28]
  if (HAL_UART_Init(&huart3) != HAL_OK)
 80011c6:	4805      	ldr	r0, [pc, #20]	; (80011dc <MX_USART3_UART_Init+0x4c>)
 80011c8:	f001 fc3a 	bl	8002a40 <HAL_UART_Init>
 80011cc:	4603      	mov	r3, r0
 80011ce:	2b00      	cmp	r3, #0
 80011d0:	d001      	beq.n	80011d6 <MX_USART3_UART_Init+0x46>
  {
    Error_Handler();
 80011d2:	f7ff fe1c 	bl	8000e0e <Error_Handler>
  }
  /* USER CODE BEGIN USART3_Init 2 */

  /* USER CODE END USART3_Init 2 */

}
 80011d6:	bf00      	nop
 80011d8:	bd80      	pop	{r7, pc}
 80011da:	bf00      	nop
 80011dc:	2000024c 	.word	0x2000024c
 80011e0:	40004800 	.word	0x40004800

080011e4 <HAL_UART_MspInit>:

void HAL_UART_MspInit(UART_HandleTypeDef* uartHandle)
{
 80011e4:	b580      	push	{r7, lr}
 80011e6:	b08c      	sub	sp, #48	; 0x30
 80011e8:	af00      	add	r7, sp, #0
 80011ea:	6078      	str	r0, [r7, #4]

  GPIO_InitTypeDef GPIO_InitStruct = {0};
 80011ec:	f107 0320 	add.w	r3, r7, #32
 80011f0:	2200      	movs	r2, #0
 80011f2:	601a      	str	r2, [r3, #0]
 80011f4:	605a      	str	r2, [r3, #4]
 80011f6:	609a      	str	r2, [r3, #8]
 80011f8:	60da      	str	r2, [r3, #12]
  if(uartHandle->Instance==USART1)
 80011fa:	687b      	ldr	r3, [r7, #4]
 80011fc:	681b      	ldr	r3, [r3, #0]
 80011fe:	4a8b      	ldr	r2, [pc, #556]	; (800142c <HAL_UART_MspInit+0x248>)
 8001200:	4293      	cmp	r3, r2
 8001202:	f040 8087 	bne.w	8001314 <HAL_UART_MspInit+0x130>
  {
  /* USER CODE BEGIN USART1_MspInit 0 */

  /* USER CODE END USART1_MspInit 0 */
    /* USART1 clock enable */
    __HAL_RCC_USART1_CLK_ENABLE();
 8001206:	4b8a      	ldr	r3, [pc, #552]	; (8001430 <HAL_UART_MspInit+0x24c>)
 8001208:	699b      	ldr	r3, [r3, #24]
 800120a:	4a89      	ldr	r2, [pc, #548]	; (8001430 <HAL_UART_MspInit+0x24c>)
 800120c:	f443 4380 	orr.w	r3, r3, #16384	; 0x4000
 8001210:	6193      	str	r3, [r2, #24]
 8001212:	4b87      	ldr	r3, [pc, #540]	; (8001430 <HAL_UART_MspInit+0x24c>)
 8001214:	699b      	ldr	r3, [r3, #24]
 8001216:	f403 4380 	and.w	r3, r3, #16384	; 0x4000
 800121a:	61fb      	str	r3, [r7, #28]
 800121c:	69fb      	ldr	r3, [r7, #28]

    __HAL_RCC_GPIOA_CLK_ENABLE();
 800121e:	4b84      	ldr	r3, [pc, #528]	; (8001430 <HAL_UART_MspInit+0x24c>)
 8001220:	699b      	ldr	r3, [r3, #24]
 8001222:	4a83      	ldr	r2, [pc, #524]	; (8001430 <HAL_UART_MspInit+0x24c>)
 8001224:	f043 0304 	orr.w	r3, r3, #4
 8001228:	6193      	str	r3, [r2, #24]
 800122a:	4b81      	ldr	r3, [pc, #516]	; (8001430 <HAL_UART_MspInit+0x24c>)
 800122c:	699b      	ldr	r3, [r3, #24]
 800122e:	f003 0304 	and.w	r3, r3, #4
 8001232:	61bb      	str	r3, [r7, #24]
 8001234:	69bb      	ldr	r3, [r7, #24]
    /**USART1 GPIO Configuration
    PA9     ------> USART1_TX
    PA10     ------> USART1_RX
    */
    GPIO_InitStruct.Pin = GPIO_PIN_9;
 8001236:	f44f 7300 	mov.w	r3, #512	; 0x200
 800123a:	623b      	str	r3, [r7, #32]
    GPIO_InitStruct.Mode = GPIO_MODE_AF_PP;
 800123c:	2302      	movs	r3, #2
 800123e:	627b      	str	r3, [r7, #36]	; 0x24
    GPIO_InitStruct.Speed = GPIO_SPEED_FREQ_HIGH;
 8001240:	2303      	movs	r3, #3
 8001242:	62fb      	str	r3, [r7, #44]	; 0x2c
    HAL_GPIO_Init(GPIOA, &GPIO_InitStruct);
 8001244:	f107 0320 	add.w	r3, r7, #32
 8001248:	4619      	mov	r1, r3
 800124a:	487a      	ldr	r0, [pc, #488]	; (8001434 <HAL_UART_MspInit+0x250>)
 800124c:	f000 fe42 	bl	8001ed4 <HAL_GPIO_Init>

    GPIO_InitStruct.Pin = GPIO_PIN_10;
 8001250:	f44f 6380 	mov.w	r3, #1024	; 0x400
 8001254:	623b      	str	r3, [r7, #32]
    GPIO_InitStruct.Mode = GPIO_MODE_INPUT;
 8001256:	2300      	movs	r3, #0
 8001258:	627b      	str	r3, [r7, #36]	; 0x24
    GPIO_InitStruct.Pull = GPIO_NOPULL;
 800125a:	2300      	movs	r3, #0
 800125c:	62bb      	str	r3, [r7, #40]	; 0x28
    HAL_GPIO_Init(GPIOA, &GPIO_InitStruct);
 800125e:	f107 0320 	add.w	r3, r7, #32
 8001262:	4619      	mov	r1, r3
 8001264:	4873      	ldr	r0, [pc, #460]	; (8001434 <HAL_UART_MspInit+0x250>)
 8001266:	f000 fe35 	bl	8001ed4 <HAL_GPIO_Init>

    /* USART1 DMA Init */
    /* USART1_RX Init */
    hdma_usart1_rx.Instance = DMA1_Channel5;
 800126a:	4b73      	ldr	r3, [pc, #460]	; (8001438 <HAL_UART_MspInit+0x254>)
 800126c:	4a73      	ldr	r2, [pc, #460]	; (800143c <HAL_UART_MspInit+0x258>)
 800126e:	601a      	str	r2, [r3, #0]
    hdma_usart1_rx.Init.Direction = DMA_PERIPH_TO_MEMORY;
 8001270:	4b71      	ldr	r3, [pc, #452]	; (8001438 <HAL_UART_MspInit+0x254>)
 8001272:	2200      	movs	r2, #0
 8001274:	605a      	str	r2, [r3, #4]
    hdma_usart1_rx.Init.PeriphInc = DMA_PINC_DISABLE;
 8001276:	4b70      	ldr	r3, [pc, #448]	; (8001438 <HAL_UART_MspInit+0x254>)
 8001278:	2200      	movs	r2, #0
 800127a:	609a      	str	r2, [r3, #8]
    hdma_usart1_rx.Init.MemInc = DMA_MINC_ENABLE;
 800127c:	4b6e      	ldr	r3, [pc, #440]	; (8001438 <HAL_UART_MspInit+0x254>)
 800127e:	2280      	movs	r2, #128	; 0x80
 8001280:	60da      	str	r2, [r3, #12]
    hdma_usart1_rx.Init.PeriphDataAlignment = DMA_PDATAALIGN_BYTE;
 8001282:	4b6d      	ldr	r3, [pc, #436]	; (8001438 <HAL_UART_MspInit+0x254>)
 8001284:	2200      	movs	r2, #0
 8001286:	611a      	str	r2, [r3, #16]
    hdma_usart1_rx.Init.MemDataAlignment = DMA_MDATAALIGN_BYTE;
 8001288:	4b6b      	ldr	r3, [pc, #428]	; (8001438 <HAL_UART_MspInit+0x254>)
 800128a:	2200      	movs	r2, #0
 800128c:	615a      	str	r2, [r3, #20]
    hdma_usart1_rx.Init.Mode = DMA_NORMAL;
 800128e:	4b6a      	ldr	r3, [pc, #424]	; (8001438 <HAL_UART_MspInit+0x254>)
 8001290:	2200      	movs	r2, #0
 8001292:	619a      	str	r2, [r3, #24]
    hdma_usart1_rx.Init.Priority = DMA_PRIORITY_LOW;
 8001294:	4b68      	ldr	r3, [pc, #416]	; (8001438 <HAL_UART_MspInit+0x254>)
 8001296:	2200      	movs	r2, #0
 8001298:	61da      	str	r2, [r3, #28]
    if (HAL_DMA_Init(&hdma_usart1_rx) != HAL_OK)
 800129a:	4867      	ldr	r0, [pc, #412]	; (8001438 <HAL_UART_MspInit+0x254>)
 800129c:	f000 fb7c 	bl	8001998 <HAL_DMA_Init>
 80012a0:	4603      	mov	r3, r0
 80012a2:	2b00      	cmp	r3, #0
 80012a4:	d001      	beq.n	80012aa <HAL_UART_MspInit+0xc6>
    {
      Error_Handler();
 80012a6:	f7ff fdb2 	bl	8000e0e <Error_Handler>
    }

    __HAL_LINKDMA(uartHandle,hdmarx,hdma_usart1_rx);
 80012aa:	687b      	ldr	r3, [r7, #4]
 80012ac:	4a62      	ldr	r2, [pc, #392]	; (8001438 <HAL_UART_MspInit+0x254>)
 80012ae:	639a      	str	r2, [r3, #56]	; 0x38
 80012b0:	4a61      	ldr	r2, [pc, #388]	; (8001438 <HAL_UART_MspInit+0x254>)
 80012b2:	687b      	ldr	r3, [r7, #4]
 80012b4:	6253      	str	r3, [r2, #36]	; 0x24

    /* USART1_TX Init */
    hdma_usart1_tx.Instance = DMA1_Channel4;
 80012b6:	4b62      	ldr	r3, [pc, #392]	; (8001440 <HAL_UART_MspInit+0x25c>)
 80012b8:	4a62      	ldr	r2, [pc, #392]	; (8001444 <HAL_UART_MspInit+0x260>)
 80012ba:	601a      	str	r2, [r3, #0]
    hdma_usart1_tx.Init.Direction = DMA_MEMORY_TO_PERIPH;
 80012bc:	4b60      	ldr	r3, [pc, #384]	; (8001440 <HAL_UART_MspInit+0x25c>)
 80012be:	2210      	movs	r2, #16
 80012c0:	605a      	str	r2, [r3, #4]
    hdma_usart1_tx.Init.PeriphInc = DMA_PINC_DISABLE;
 80012c2:	4b5f      	ldr	r3, [pc, #380]	; (8001440 <HAL_UART_MspInit+0x25c>)
 80012c4:	2200      	movs	r2, #0
 80012c6:	609a      	str	r2, [r3, #8]
    hdma_usart1_tx.Init.MemInc = DMA_MINC_ENABLE;
 80012c8:	4b5d      	ldr	r3, [pc, #372]	; (8001440 <HAL_UART_MspInit+0x25c>)
 80012ca:	2280      	movs	r2, #128	; 0x80
 80012cc:	60da      	str	r2, [r3, #12]
    hdma_usart1_tx.Init.PeriphDataAlignment = DMA_PDATAALIGN_BYTE;
 80012ce:	4b5c      	ldr	r3, [pc, #368]	; (8001440 <HAL_UART_MspInit+0x25c>)
 80012d0:	2200      	movs	r2, #0
 80012d2:	611a      	str	r2, [r3, #16]
    hdma_usart1_tx.Init.MemDataAlignment = DMA_MDATAALIGN_BYTE;
 80012d4:	4b5a      	ldr	r3, [pc, #360]	; (8001440 <HAL_UART_MspInit+0x25c>)
 80012d6:	2200      	movs	r2, #0
 80012d8:	615a      	str	r2, [r3, #20]
    hdma_usart1_tx.Init.Mode = DMA_NORMAL;
 80012da:	4b59      	ldr	r3, [pc, #356]	; (8001440 <HAL_UART_MspInit+0x25c>)
 80012dc:	2200      	movs	r2, #0
 80012de:	619a      	str	r2, [r3, #24]
    hdma_usart1_tx.Init.Priority = DMA_PRIORITY_LOW;
 80012e0:	4b57      	ldr	r3, [pc, #348]	; (8001440 <HAL_UART_MspInit+0x25c>)
 80012e2:	2200      	movs	r2, #0
 80012e4:	61da      	str	r2, [r3, #28]
    if (HAL_DMA_Init(&hdma_usart1_tx) != HAL_OK)
 80012e6:	4856      	ldr	r0, [pc, #344]	; (8001440 <HAL_UART_MspInit+0x25c>)
 80012e8:	f000 fb56 	bl	8001998 <HAL_DMA_Init>
 80012ec:	4603      	mov	r3, r0
 80012ee:	2b00      	cmp	r3, #0
 80012f0:	d001      	beq.n	80012f6 <HAL_UART_MspInit+0x112>
    {
      Error_Handler();
 80012f2:	f7ff fd8c 	bl	8000e0e <Error_Handler>
    }

    __HAL_LINKDMA(uartHandle,hdmatx,hdma_usart1_tx);
 80012f6:	687b      	ldr	r3, [r7, #4]
 80012f8:	4a51      	ldr	r2, [pc, #324]	; (8001440 <HAL_UART_MspInit+0x25c>)
 80012fa:	635a      	str	r2, [r3, #52]	; 0x34
 80012fc:	4a50      	ldr	r2, [pc, #320]	; (8001440 <HAL_UART_MspInit+0x25c>)
 80012fe:	687b      	ldr	r3, [r7, #4]
 8001300:	6253      	str	r3, [r2, #36]	; 0x24

    /* USART1 interrupt Init */
    HAL_NVIC_SetPriority(USART1_IRQn, 15, 0);
 8001302:	2200      	movs	r2, #0
 8001304:	210f      	movs	r1, #15
 8001306:	2025      	movs	r0, #37	; 0x25
 8001308:	f000 fb0f 	bl	800192a <HAL_NVIC_SetPriority>
    HAL_NVIC_EnableIRQ(USART1_IRQn);
 800130c:	2025      	movs	r0, #37	; 0x25
 800130e:	f000 fb28 	bl	8001962 <HAL_NVIC_EnableIRQ>
    HAL_NVIC_EnableIRQ(USART3_IRQn);
  /* USER CODE BEGIN USART3_MspInit 1 */

  /* USER CODE END USART3_MspInit 1 */
  }
}
 8001312:	e0e2      	b.n	80014da <HAL_UART_MspInit+0x2f6>
  else if(uartHandle->Instance==USART2)
 8001314:	687b      	ldr	r3, [r7, #4]
 8001316:	681b      	ldr	r3, [r3, #0]
 8001318:	4a4b      	ldr	r2, [pc, #300]	; (8001448 <HAL_UART_MspInit+0x264>)
 800131a:	4293      	cmp	r3, r2
 800131c:	f040 809e 	bne.w	800145c <HAL_UART_MspInit+0x278>
    __HAL_RCC_USART2_CLK_ENABLE();
 8001320:	4b43      	ldr	r3, [pc, #268]	; (8001430 <HAL_UART_MspInit+0x24c>)
 8001322:	69db      	ldr	r3, [r3, #28]
 8001324:	4a42      	ldr	r2, [pc, #264]	; (8001430 <HAL_UART_MspInit+0x24c>)
 8001326:	f443 3300 	orr.w	r3, r3, #131072	; 0x20000
 800132a:	61d3      	str	r3, [r2, #28]
 800132c:	4b40      	ldr	r3, [pc, #256]	; (8001430 <HAL_UART_MspInit+0x24c>)
 800132e:	69db      	ldr	r3, [r3, #28]
 8001330:	f403 3300 	and.w	r3, r3, #131072	; 0x20000
 8001334:	617b      	str	r3, [r7, #20]
 8001336:	697b      	ldr	r3, [r7, #20]
    __HAL_RCC_GPIOA_CLK_ENABLE();
 8001338:	4b3d      	ldr	r3, [pc, #244]	; (8001430 <HAL_UART_MspInit+0x24c>)
 800133a:	699b      	ldr	r3, [r3, #24]
 800133c:	4a3c      	ldr	r2, [pc, #240]	; (8001430 <HAL_UART_MspInit+0x24c>)
 800133e:	f043 0304 	orr.w	r3, r3, #4
 8001342:	6193      	str	r3, [r2, #24]
 8001344:	4b3a      	ldr	r3, [pc, #232]	; (8001430 <HAL_UART_MspInit+0x24c>)
 8001346:	699b      	ldr	r3, [r3, #24]
 8001348:	f003 0304 	and.w	r3, r3, #4
 800134c:	613b      	str	r3, [r7, #16]
 800134e:	693b      	ldr	r3, [r7, #16]
    GPIO_InitStruct.Pin = GPIO_PIN_2;
 8001350:	2304      	movs	r3, #4
 8001352:	623b      	str	r3, [r7, #32]
    GPIO_InitStruct.Mode = GPIO_MODE_AF_PP;
 8001354:	2302      	movs	r3, #2
 8001356:	627b      	str	r3, [r7, #36]	; 0x24
    GPIO_InitStruct.Speed = GPIO_SPEED_FREQ_HIGH;
 8001358:	2303      	movs	r3, #3
 800135a:	62fb      	str	r3, [r7, #44]	; 0x2c
    HAL_GPIO_Init(GPIOA, &GPIO_InitStruct);
 800135c:	f107 0320 	add.w	r3, r7, #32
 8001360:	4619      	mov	r1, r3
 8001362:	4834      	ldr	r0, [pc, #208]	; (8001434 <HAL_UART_MspInit+0x250>)
 8001364:	f000 fdb6 	bl	8001ed4 <HAL_GPIO_Init>
    GPIO_InitStruct.Pin = GPIO_PIN_3;
 8001368:	2308      	movs	r3, #8
 800136a:	623b      	str	r3, [r7, #32]
    GPIO_InitStruct.Mode = GPIO_MODE_INPUT;
 800136c:	2300      	movs	r3, #0
 800136e:	627b      	str	r3, [r7, #36]	; 0x24
    GPIO_InitStruct.Pull = GPIO_NOPULL;
 8001370:	2300      	movs	r3, #0
 8001372:	62bb      	str	r3, [r7, #40]	; 0x28
    HAL_GPIO_Init(GPIOA, &GPIO_InitStruct);
 8001374:	f107 0320 	add.w	r3, r7, #32
 8001378:	4619      	mov	r1, r3
 800137a:	482e      	ldr	r0, [pc, #184]	; (8001434 <HAL_UART_MspInit+0x250>)
 800137c:	f000 fdaa 	bl	8001ed4 <HAL_GPIO_Init>
    hdma_usart2_rx.Instance = DMA1_Channel6;
 8001380:	4b32      	ldr	r3, [pc, #200]	; (800144c <HAL_UART_MspInit+0x268>)
 8001382:	4a33      	ldr	r2, [pc, #204]	; (8001450 <HAL_UART_MspInit+0x26c>)
 8001384:	601a      	str	r2, [r3, #0]
    hdma_usart2_rx.Init.Direction = DMA_PERIPH_TO_MEMORY;
 8001386:	4b31      	ldr	r3, [pc, #196]	; (800144c <HAL_UART_MspInit+0x268>)
 8001388:	2200      	movs	r2, #0
 800138a:	605a      	str	r2, [r3, #4]
    hdma_usart2_rx.Init.PeriphInc = DMA_PINC_DISABLE;
 800138c:	4b2f      	ldr	r3, [pc, #188]	; (800144c <HAL_UART_MspInit+0x268>)
 800138e:	2200      	movs	r2, #0
 8001390:	609a      	str	r2, [r3, #8]
    hdma_usart2_rx.Init.MemInc = DMA_MINC_ENABLE;
 8001392:	4b2e      	ldr	r3, [pc, #184]	; (800144c <HAL_UART_MspInit+0x268>)
 8001394:	2280      	movs	r2, #128	; 0x80
 8001396:	60da      	str	r2, [r3, #12]
    hdma_usart2_rx.Init.PeriphDataAlignment = DMA_PDATAALIGN_BYTE;
 8001398:	4b2c      	ldr	r3, [pc, #176]	; (800144c <HAL_UART_MspInit+0x268>)
 800139a:	2200      	movs	r2, #0
 800139c:	611a      	str	r2, [r3, #16]
    hdma_usart2_rx.Init.MemDataAlignment = DMA_MDATAALIGN_BYTE;
 800139e:	4b2b      	ldr	r3, [pc, #172]	; (800144c <HAL_UART_MspInit+0x268>)
 80013a0:	2200      	movs	r2, #0
 80013a2:	615a      	str	r2, [r3, #20]
    hdma_usart2_rx.Init.Mode = DMA_NORMAL;
 80013a4:	4b29      	ldr	r3, [pc, #164]	; (800144c <HAL_UART_MspInit+0x268>)
 80013a6:	2200      	movs	r2, #0
 80013a8:	619a      	str	r2, [r3, #24]
    hdma_usart2_rx.Init.Priority = DMA_PRIORITY_LOW;
 80013aa:	4b28      	ldr	r3, [pc, #160]	; (800144c <HAL_UART_MspInit+0x268>)
 80013ac:	2200      	movs	r2, #0
 80013ae:	61da      	str	r2, [r3, #28]
    if (HAL_DMA_Init(&hdma_usart2_rx) != HAL_OK)
 80013b0:	4826      	ldr	r0, [pc, #152]	; (800144c <HAL_UART_MspInit+0x268>)
 80013b2:	f000 faf1 	bl	8001998 <HAL_DMA_Init>
 80013b6:	4603      	mov	r3, r0
 80013b8:	2b00      	cmp	r3, #0
 80013ba:	d001      	beq.n	80013c0 <HAL_UART_MspInit+0x1dc>
      Error_Handler();
 80013bc:	f7ff fd27 	bl	8000e0e <Error_Handler>
    __HAL_LINKDMA(uartHandle,hdmarx,hdma_usart2_rx);
 80013c0:	687b      	ldr	r3, [r7, #4]
 80013c2:	4a22      	ldr	r2, [pc, #136]	; (800144c <HAL_UART_MspInit+0x268>)
 80013c4:	639a      	str	r2, [r3, #56]	; 0x38
 80013c6:	4a21      	ldr	r2, [pc, #132]	; (800144c <HAL_UART_MspInit+0x268>)
 80013c8:	687b      	ldr	r3, [r7, #4]
 80013ca:	6253      	str	r3, [r2, #36]	; 0x24
    hdma_usart2_tx.Instance = DMA1_Channel7;
 80013cc:	4b21      	ldr	r3, [pc, #132]	; (8001454 <HAL_UART_MspInit+0x270>)
 80013ce:	4a22      	ldr	r2, [pc, #136]	; (8001458 <HAL_UART_MspInit+0x274>)
 80013d0:	601a      	str	r2, [r3, #0]
    hdma_usart2_tx.Init.Direction = DMA_MEMORY_TO_PERIPH;
 80013d2:	4b20      	ldr	r3, [pc, #128]	; (8001454 <HAL_UART_MspInit+0x270>)
 80013d4:	2210      	movs	r2, #16
 80013d6:	605a      	str	r2, [r3, #4]
    hdma_usart2_tx.Init.PeriphInc = DMA_PINC_DISABLE;
 80013d8:	4b1e      	ldr	r3, [pc, #120]	; (8001454 <HAL_UART_MspInit+0x270>)
 80013da:	2200      	movs	r2, #0
 80013dc:	609a      	str	r2, [r3, #8]
    hdma_usart2_tx.Init.MemInc = DMA_MINC_ENABLE;
 80013de:	4b1d      	ldr	r3, [pc, #116]	; (8001454 <HAL_UART_MspInit+0x270>)
 80013e0:	2280      	movs	r2, #128	; 0x80
 80013e2:	60da      	str	r2, [r3, #12]
    hdma_usart2_tx.Init.PeriphDataAlignment = DMA_PDATAALIGN_BYTE;
 80013e4:	4b1b      	ldr	r3, [pc, #108]	; (8001454 <HAL_UART_MspInit+0x270>)
 80013e6:	2200      	movs	r2, #0
 80013e8:	611a      	str	r2, [r3, #16]
    hdma_usart2_tx.Init.MemDataAlignment = DMA_MDATAALIGN_BYTE;
 80013ea:	4b1a      	ldr	r3, [pc, #104]	; (8001454 <HAL_UART_MspInit+0x270>)
 80013ec:	2200      	movs	r2, #0
 80013ee:	615a      	str	r2, [r3, #20]
    hdma_usart2_tx.Init.Mode = DMA_NORMAL;
 80013f0:	4b18      	ldr	r3, [pc, #96]	; (8001454 <HAL_UART_MspInit+0x270>)
 80013f2:	2200      	movs	r2, #0
 80013f4:	619a      	str	r2, [r3, #24]
    hdma_usart2_tx.Init.Priority = DMA_PRIORITY_LOW;
 80013f6:	4b17      	ldr	r3, [pc, #92]	; (8001454 <HAL_UART_MspInit+0x270>)
 80013f8:	2200      	movs	r2, #0
 80013fa:	61da      	str	r2, [r3, #28]
    if (HAL_DMA_Init(&hdma_usart2_tx) != HAL_OK)
 80013fc:	4815      	ldr	r0, [pc, #84]	; (8001454 <HAL_UART_MspInit+0x270>)
 80013fe:	f000 facb 	bl	8001998 <HAL_DMA_Init>
 8001402:	4603      	mov	r3, r0
 8001404:	2b00      	cmp	r3, #0
 8001406:	d001      	beq.n	800140c <HAL_UART_MspInit+0x228>
      Error_Handler();
 8001408:	f7ff fd01 	bl	8000e0e <Error_Handler>
    __HAL_LINKDMA(uartHandle,hdmatx,hdma_usart2_tx);
 800140c:	687b      	ldr	r3, [r7, #4]
 800140e:	4a11      	ldr	r2, [pc, #68]	; (8001454 <HAL_UART_MspInit+0x270>)
 8001410:	635a      	str	r2, [r3, #52]	; 0x34
 8001412:	4a10      	ldr	r2, [pc, #64]	; (8001454 <HAL_UART_MspInit+0x270>)
 8001414:	687b      	ldr	r3, [r7, #4]
 8001416:	6253      	str	r3, [r2, #36]	; 0x24
    HAL_NVIC_SetPriority(USART2_IRQn, 0, 0);
 8001418:	2200      	movs	r2, #0
 800141a:	2100      	movs	r1, #0
 800141c:	2026      	movs	r0, #38	; 0x26
 800141e:	f000 fa84 	bl	800192a <HAL_NVIC_SetPriority>
    HAL_NVIC_EnableIRQ(USART2_IRQn);
 8001422:	2026      	movs	r0, #38	; 0x26
 8001424:	f000 fa9d 	bl	8001962 <HAL_NVIC_EnableIRQ>
}
 8001428:	e057      	b.n	80014da <HAL_UART_MspInit+0x2f6>
 800142a:	bf00      	nop
 800142c:	40013800 	.word	0x40013800
 8001430:	40021000 	.word	0x40021000
 8001434:	40010800 	.word	0x40010800
 8001438:	200003d4 	.word	0x200003d4
 800143c:	40020058 	.word	0x40020058
 8001440:	20000390 	.word	0x20000390
 8001444:	40020044 	.word	0x40020044
 8001448:	40004400 	.word	0x40004400
 800144c:	20000208 	.word	0x20000208
 8001450:	4002006c 	.word	0x4002006c
 8001454:	20000418 	.word	0x20000418
 8001458:	40020080 	.word	0x40020080
  else if(uartHandle->Instance==USART3)
 800145c:	687b      	ldr	r3, [r7, #4]
 800145e:	681b      	ldr	r3, [r3, #0]
 8001460:	4a20      	ldr	r2, [pc, #128]	; (80014e4 <HAL_UART_MspInit+0x300>)
 8001462:	4293      	cmp	r3, r2
 8001464:	d139      	bne.n	80014da <HAL_UART_MspInit+0x2f6>
    __HAL_RCC_USART3_CLK_ENABLE();
 8001466:	4b20      	ldr	r3, [pc, #128]	; (80014e8 <HAL_UART_MspInit+0x304>)
 8001468:	69db      	ldr	r3, [r3, #28]
 800146a:	4a1f      	ldr	r2, [pc, #124]	; (80014e8 <HAL_UART_MspInit+0x304>)
 800146c:	f443 2380 	orr.w	r3, r3, #262144	; 0x40000
 8001470:	61d3      	str	r3, [r2, #28]
 8001472:	4b1d      	ldr	r3, [pc, #116]	; (80014e8 <HAL_UART_MspInit+0x304>)
 8001474:	69db      	ldr	r3, [r3, #28]
 8001476:	f403 2380 	and.w	r3, r3, #262144	; 0x40000
 800147a:	60fb      	str	r3, [r7, #12]
 800147c:	68fb      	ldr	r3, [r7, #12]
    __HAL_RCC_GPIOB_CLK_ENABLE();
 800147e:	4b1a      	ldr	r3, [pc, #104]	; (80014e8 <HAL_UART_MspInit+0x304>)
 8001480:	699b      	ldr	r3, [r3, #24]
 8001482:	4a19      	ldr	r2, [pc, #100]	; (80014e8 <HAL_UART_MspInit+0x304>)
 8001484:	f043 0308 	orr.w	r3, r3, #8
 8001488:	6193      	str	r3, [r2, #24]
 800148a:	4b17      	ldr	r3, [pc, #92]	; (80014e8 <HAL_UART_MspInit+0x304>)
 800148c:	699b      	ldr	r3, [r3, #24]
 800148e:	f003 0308 	and.w	r3, r3, #8
 8001492:	60bb      	str	r3, [r7, #8]
 8001494:	68bb      	ldr	r3, [r7, #8]
    GPIO_InitStruct.Pin = GPIO_PIN_10;
 8001496:	f44f 6380 	mov.w	r3, #1024	; 0x400
 800149a:	623b      	str	r3, [r7, #32]
    GPIO_InitStruct.Mode = GPIO_MODE_AF_PP;
 800149c:	2302      	movs	r3, #2
 800149e:	627b      	str	r3, [r7, #36]	; 0x24
    GPIO_InitStruct.Speed = GPIO_SPEED_FREQ_HIGH;
 80014a0:	2303      	movs	r3, #3
 80014a2:	62fb      	str	r3, [r7, #44]	; 0x2c
    HAL_GPIO_Init(GPIOB, &GPIO_InitStruct);
 80014a4:	f107 0320 	add.w	r3, r7, #32
 80014a8:	4619      	mov	r1, r3
 80014aa:	4810      	ldr	r0, [pc, #64]	; (80014ec <HAL_UART_MspInit+0x308>)
 80014ac:	f000 fd12 	bl	8001ed4 <HAL_GPIO_Init>
    GPIO_InitStruct.Pin = GPIO_PIN_11;
 80014b0:	f44f 6300 	mov.w	r3, #2048	; 0x800
 80014b4:	623b      	str	r3, [r7, #32]
    GPIO_InitStruct.Mode = GPIO_MODE_INPUT;
 80014b6:	2300      	movs	r3, #0
 80014b8:	627b      	str	r3, [r7, #36]	; 0x24
    GPIO_InitStruct.Pull = GPIO_NOPULL;
 80014ba:	2300      	movs	r3, #0
 80014bc:	62bb      	str	r3, [r7, #40]	; 0x28
    HAL_GPIO_Init(GPIOB, &GPIO_InitStruct);
 80014be:	f107 0320 	add.w	r3, r7, #32
 80014c2:	4619      	mov	r1, r3
 80014c4:	4809      	ldr	r0, [pc, #36]	; (80014ec <HAL_UART_MspInit+0x308>)
 80014c6:	f000 fd05 	bl	8001ed4 <HAL_GPIO_Init>
    HAL_NVIC_SetPriority(USART3_IRQn, 0, 0);
 80014ca:	2200      	movs	r2, #0
 80014cc:	2100      	movs	r1, #0
 80014ce:	2027      	movs	r0, #39	; 0x27
 80014d0:	f000 fa2b 	bl	800192a <HAL_NVIC_SetPriority>
    HAL_NVIC_EnableIRQ(USART3_IRQn);
 80014d4:	2027      	movs	r0, #39	; 0x27
 80014d6:	f000 fa44 	bl	8001962 <HAL_NVIC_EnableIRQ>
}
 80014da:	bf00      	nop
 80014dc:	3730      	adds	r7, #48	; 0x30
 80014de:	46bd      	mov	sp, r7
 80014e0:	bd80      	pop	{r7, pc}
 80014e2:	bf00      	nop
 80014e4:	40004800 	.word	0x40004800
 80014e8:	40021000 	.word	0x40021000
 80014ec:	40010c00 	.word	0x40010c00

080014f0 <Usart2SendData_DMA>:
说    明：1.发送相关数据，并置位dmaSend_flag标志位；
		 2.DMA发送完成后会进入中断回调函数，重新置位dmaSend_flag标志位；
**************************************************************************/
//DMA发送函数
void Usart2SendData_DMA(uint8_t *pdata, uint16_t Length)
{
 80014f0:	b580      	push	{r7, lr}
 80014f2:	b082      	sub	sp, #8
 80014f4:	af00      	add	r7, sp, #0
 80014f6:	6078      	str	r0, [r7, #4]
 80014f8:	460b      	mov	r3, r1
 80014fa:	807b      	strh	r3, [r7, #2]
    while(UsartType2.dmaSend_flag == USART_DMA_SENDING);
 80014fc:	bf00      	nop
 80014fe:	4b0b      	ldr	r3, [pc, #44]	; (800152c <Usart2SendData_DMA+0x3c>)
 8001500:	781b      	ldrb	r3, [r3, #0]
 8001502:	f003 0302 	and.w	r3, r3, #2
 8001506:	b2db      	uxtb	r3, r3
 8001508:	2b00      	cmp	r3, #0
 800150a:	d1f8      	bne.n	80014fe <Usart2SendData_DMA+0xe>
    UsartType2.dmaSend_flag = USART_DMA_SENDING;
 800150c:	4a07      	ldr	r2, [pc, #28]	; (800152c <Usart2SendData_DMA+0x3c>)
 800150e:	7813      	ldrb	r3, [r2, #0]
 8001510:	f043 0302 	orr.w	r3, r3, #2
 8001514:	7013      	strb	r3, [r2, #0]
    HAL_UART_Transmit_DMA(&huart2, pdata, Length);
 8001516:	887b      	ldrh	r3, [r7, #2]
 8001518:	461a      	mov	r2, r3
 800151a:	6879      	ldr	r1, [r7, #4]
 800151c:	4804      	ldr	r0, [pc, #16]	; (8001530 <Usart2SendData_DMA+0x40>)
 800151e:	f001 fb0d 	bl	8002b3c <HAL_UART_Transmit_DMA>
}
 8001522:	bf00      	nop
 8001524:	3708      	adds	r7, #8
 8001526:	46bd      	mov	sp, r7
 8001528:	bd80      	pop	{r7, pc}
 800152a:	bf00      	nop
 800152c:	200004a0 	.word	0x200004a0
 8001530:	200008a4 	.word	0x200008a4

08001534 <HAL_UART_TxCpltCallback>:

//DMA发送完成中断回调函数
void HAL_UART_TxCpltCallback(UART_HandleTypeDef *huart)
{
 8001534:	b480      	push	{r7}
 8001536:	b083      	sub	sp, #12
 8001538:	af00      	add	r7, sp, #0
 800153a:	6078      	str	r0, [r7, #4]
     __HAL_DMA_DISABLE(huart->hdmatx);
 800153c:	687b      	ldr	r3, [r7, #4]
 800153e:	6b5b      	ldr	r3, [r3, #52]	; 0x34
 8001540:	681b      	ldr	r3, [r3, #0]
 8001542:	681a      	ldr	r2, [r3, #0]
 8001544:	687b      	ldr	r3, [r7, #4]
 8001546:	6b5b      	ldr	r3, [r3, #52]	; 0x34
 8001548:	681b      	ldr	r3, [r3, #0]
 800154a:	f022 0201 	bic.w	r2, r2, #1
 800154e:	601a      	str	r2, [r3, #0]
		if(huart->Instance == huart2.Instance)
 8001550:	687b      	ldr	r3, [r7, #4]
 8001552:	681a      	ldr	r2, [r3, #0]
 8001554:	4b06      	ldr	r3, [pc, #24]	; (8001570 <HAL_UART_TxCpltCallback+0x3c>)
 8001556:	681b      	ldr	r3, [r3, #0]
 8001558:	429a      	cmp	r2, r3
 800155a:	d104      	bne.n	8001566 <HAL_UART_TxCpltCallback+0x32>
			UsartType2.dmaSend_flag = USART_DMA_SENDOVER;
 800155c:	4a05      	ldr	r2, [pc, #20]	; (8001574 <HAL_UART_TxCpltCallback+0x40>)
 800155e:	7813      	ldrb	r3, [r2, #0]
 8001560:	f36f 0341 	bfc	r3, #1, #1
 8001564:	7013      	strb	r3, [r2, #0]
}
 8001566:	bf00      	nop
 8001568:	370c      	adds	r7, #12
 800156a:	46bd      	mov	sp, r7
 800156c:	bc80      	pop	{r7}
 800156e:	4770      	bx	lr
 8001570:	200008a4 	.word	0x200008a4
 8001574:	200004a0 	.word	0x200004a0

08001578 <HAL_UART_RxCpltCallback>:
入口参数：串口中断号
返回  值：无
说    明：串口中断处理回调函数
**************************************************************************/
void HAL_UART_RxCpltCallback(UART_HandleTypeDef *huart)
{
 8001578:	b580      	push	{r7, lr}
 800157a:	b082      	sub	sp, #8
 800157c:	af00      	add	r7, sp, #0
 800157e:	6078      	str	r0, [r7, #4]
	if(huart == &huart2)
 8001580:	687b      	ldr	r3, [r7, #4]
 8001582:	4a06      	ldr	r2, [pc, #24]	; (800159c <HAL_UART_RxCpltCallback+0x24>)
 8001584:	4293      	cmp	r3, r2
 8001586:	d104      	bne.n	8001592 <HAL_UART_RxCpltCallback+0x1a>
	{
		HAL_UART_Receive_IT(&huart2,Rx_buff,1);
 8001588:	2201      	movs	r2, #1
 800158a:	4905      	ldr	r1, [pc, #20]	; (80015a0 <HAL_UART_RxCpltCallback+0x28>)
 800158c:	4803      	ldr	r0, [pc, #12]	; (800159c <HAL_UART_RxCpltCallback+0x24>)
 800158e:	f001 faa4 	bl	8002ada <HAL_UART_Receive_IT>
	}
}
 8001592:	bf00      	nop
 8001594:	3708      	adds	r7, #8
 8001596:	46bd      	mov	sp, r7
 8001598:	bd80      	pop	{r7, pc}
 800159a:	bf00      	nop
 800159c:	200008a4 	.word	0x200008a4
 80015a0:	200008e8 	.word	0x200008e8

080015a4 <UsartReceive_IDLE>:
		 1.清除接收空闲中断标志位__HAL_UART_CLEAR_IDLEFLAG()；
		 2.停止DMA串口接收；处理接收数据长度；置位相关标志位；
		 3.重新开启DMA串口接收；
**************************************************************************/
void UsartReceive_IDLE(UART_HandleTypeDef *huart)
{
 80015a4:	b580      	push	{r7, lr}
 80015a6:	b084      	sub	sp, #16
 80015a8:	af00      	add	r7, sp, #0
 80015aa:	6078      	str	r0, [r7, #4]
    uint32_t temp;

	if(huart->Instance == huart2.Instance)
 80015ac:	687b      	ldr	r3, [r7, #4]
 80015ae:	681a      	ldr	r2, [r3, #0]
 80015b0:	4b19      	ldr	r3, [pc, #100]	; (8001618 <UsartReceive_IDLE+0x74>)
 80015b2:	681b      	ldr	r3, [r3, #0]
 80015b4:	429a      	cmp	r2, r3
 80015b6:	d12b      	bne.n	8001610 <UsartReceive_IDLE+0x6c>
	{
		if((__HAL_UART_GET_FLAG(huart,UART_FLAG_IDLE) != RESET))
 80015b8:	687b      	ldr	r3, [r7, #4]
 80015ba:	681b      	ldr	r3, [r3, #0]
 80015bc:	681b      	ldr	r3, [r3, #0]
 80015be:	f003 0310 	and.w	r3, r3, #16
 80015c2:	2b10      	cmp	r3, #16
 80015c4:	d124      	bne.n	8001610 <UsartReceive_IDLE+0x6c>
		{
				__HAL_UART_CLEAR_IDLEFLAG(&huart2);
 80015c6:	2300      	movs	r3, #0
 80015c8:	60bb      	str	r3, [r7, #8]
 80015ca:	4b13      	ldr	r3, [pc, #76]	; (8001618 <UsartReceive_IDLE+0x74>)
 80015cc:	681b      	ldr	r3, [r3, #0]
 80015ce:	681b      	ldr	r3, [r3, #0]
 80015d0:	60bb      	str	r3, [r7, #8]
 80015d2:	4b11      	ldr	r3, [pc, #68]	; (8001618 <UsartReceive_IDLE+0x74>)
 80015d4:	681b      	ldr	r3, [r3, #0]
 80015d6:	685b      	ldr	r3, [r3, #4]
 80015d8:	60bb      	str	r3, [r7, #8]
 80015da:	68bb      	ldr	r3, [r7, #8]
				HAL_UART_DMAStop(&huart2);
 80015dc:	480e      	ldr	r0, [pc, #56]	; (8001618 <UsartReceive_IDLE+0x74>)
 80015de:	f001 fb49 	bl	8002c74 <HAL_UART_DMAStop>

				temp = huart2.hdmarx->Instance->CNDTR;
 80015e2:	4b0d      	ldr	r3, [pc, #52]	; (8001618 <UsartReceive_IDLE+0x74>)
 80015e4:	6b9b      	ldr	r3, [r3, #56]	; 0x38
 80015e6:	681b      	ldr	r3, [r3, #0]
 80015e8:	685b      	ldr	r3, [r3, #4]
 80015ea:	60fb      	str	r3, [r7, #12]
				UsartType2.rx_len =  RECEIVELEN - temp;
 80015ec:	68fb      	ldr	r3, [r7, #12]
 80015ee:	b29b      	uxth	r3, r3
 80015f0:	f5c3 6380 	rsb	r3, r3, #1024	; 0x400
 80015f4:	b29a      	uxth	r2, r3
 80015f6:	4b09      	ldr	r3, [pc, #36]	; (800161c <UsartReceive_IDLE+0x78>)
 80015f8:	805a      	strh	r2, [r3, #2]
				UsartType2.receive_flag = 1;
 80015fa:	4a08      	ldr	r2, [pc, #32]	; (800161c <UsartReceive_IDLE+0x78>)
 80015fc:	7813      	ldrb	r3, [r2, #0]
 80015fe:	f043 0301 	orr.w	r3, r3, #1
 8001602:	7013      	strb	r3, [r2, #0]

				HAL_UART_Receive_DMA(&huart2,UsartType2.usartDMA_rxBuf,RECEIVELEN);
 8001604:	f44f 6280 	mov.w	r2, #1024	; 0x400
 8001608:	4905      	ldr	r1, [pc, #20]	; (8001620 <UsartReceive_IDLE+0x7c>)
 800160a:	4803      	ldr	r0, [pc, #12]	; (8001618 <UsartReceive_IDLE+0x74>)
 800160c:	f001 fb02 	bl	8002c14 <HAL_UART_Receive_DMA>
		}
	}
}
 8001610:	bf00      	nop
 8001612:	3710      	adds	r7, #16
 8001614:	46bd      	mov	sp, r7
 8001616:	bd80      	pop	{r7, pc}
 8001618:	200008a4 	.word	0x200008a4
 800161c:	200004a0 	.word	0x200004a0
 8001620:	200004a4 	.word	0x200004a4

08001624 <Reset_Handler>:
  .weak Reset_Handler
  .type Reset_Handler, %function
Reset_Handler:

/* Copy the data segment initializers from flash to SRAM */
  ldr r0, =_sdata
 8001624:	480c      	ldr	r0, [pc, #48]	; (8001658 <LoopFillZerobss+0x12>)
  ldr r1, =_edata
 8001626:	490d      	ldr	r1, [pc, #52]	; (800165c <LoopFillZerobss+0x16>)
  ldr r2, =_sidata
 8001628:	4a0d      	ldr	r2, [pc, #52]	; (8001660 <LoopFillZerobss+0x1a>)
  movs r3, #0
 800162a:	2300      	movs	r3, #0
  b LoopCopyDataInit
 800162c:	e002      	b.n	8001634 <LoopCopyDataInit>

0800162e <CopyDataInit>:

CopyDataInit:
  ldr r4, [r2, r3]
 800162e:	58d4      	ldr	r4, [r2, r3]
  str r4, [r0, r3]
 8001630:	50c4      	str	r4, [r0, r3]
  adds r3, r3, #4
 8001632:	3304      	adds	r3, #4

08001634 <LoopCopyDataInit>:

LoopCopyDataInit:
  adds r4, r0, r3
 8001634:	18c4      	adds	r4, r0, r3
  cmp r4, r1
 8001636:	428c      	cmp	r4, r1
  bcc CopyDataInit
 8001638:	d3f9      	bcc.n	800162e <CopyDataInit>
  
/* Zero fill the bss segment. */
  ldr r2, =_sbss
 800163a:	4a0a      	ldr	r2, [pc, #40]	; (8001664 <LoopFillZerobss+0x1e>)
  ldr r4, =_ebss
 800163c:	4c0a      	ldr	r4, [pc, #40]	; (8001668 <LoopFillZerobss+0x22>)
  movs r3, #0
 800163e:	2300      	movs	r3, #0
  b LoopFillZerobss
 8001640:	e001      	b.n	8001646 <LoopFillZerobss>

08001642 <FillZerobss>:

FillZerobss:
  str  r3, [r2]
 8001642:	6013      	str	r3, [r2, #0]
  adds r2, r2, #4
 8001644:	3204      	adds	r2, #4

08001646 <LoopFillZerobss>:

LoopFillZerobss:
  cmp r2, r4
 8001646:	42a2      	cmp	r2, r4
  bcc FillZerobss
 8001648:	d3fb      	bcc.n	8001642 <FillZerobss>

/* Call the clock system intitialization function.*/
    bl  SystemInit
 800164a:	f7ff fd47 	bl	80010dc <SystemInit>
/* Call static constructors */
    bl __libc_init_array
 800164e:	f002 f8bb 	bl	80037c8 <__libc_init_array>
/* Call the application's entry point.*/
  bl main
 8001652:	f7ff fb55 	bl	8000d00 <main>
  bx lr
 8001656:	4770      	bx	lr
  ldr r0, =_sdata
 8001658:	20000000 	.word	0x20000000
  ldr r1, =_edata
 800165c:	200001e0 	.word	0x200001e0
  ldr r2, =_sidata
 8001660:	0800853c 	.word	0x0800853c
  ldr r2, =_sbss
 8001664:	200001e0 	.word	0x200001e0
  ldr r4, =_ebss
 8001668:	20000960 	.word	0x20000960

0800166c <ADC1_2_IRQHandler>:
 * @retval : None
*/
    .section .text.Default_Handler,"ax",%progbits
Default_Handler:
Infinite_Loop:
  b Infinite_Loop
 800166c:	e7fe      	b.n	800166c <ADC1_2_IRQHandler>
	...

08001670 <HAL_Init>:
  *         need to ensure that the SysTick time base is always set to 1 millisecond
  *         to have correct HAL operation.
  * @retval HAL status
  */
HAL_StatusTypeDef HAL_Init(void)
{
 8001670:	b580      	push	{r7, lr}
 8001672:	af00      	add	r7, sp, #0
    defined(STM32F102x6) || defined(STM32F102xB) || \
    defined(STM32F103x6) || defined(STM32F103xB) || defined(STM32F103xE) || defined(STM32F103xG) || \
    defined(STM32F105xC) || defined(STM32F107xC)

  /* Prefetch buffer is not available on value line devices */
  __HAL_FLASH_PREFETCH_BUFFER_ENABLE();
 8001674:	4b08      	ldr	r3, [pc, #32]	; (8001698 <HAL_Init+0x28>)
 8001676:	681b      	ldr	r3, [r3, #0]
 8001678:	4a07      	ldr	r2, [pc, #28]	; (8001698 <HAL_Init+0x28>)
 800167a:	f043 0310 	orr.w	r3, r3, #16
 800167e:	6013      	str	r3, [r2, #0]
#endif
#endif /* PREFETCH_ENABLE */

  /* Set Interrupt Group Priority */
  HAL_NVIC_SetPriorityGrouping(NVIC_PRIORITYGROUP_4);
 8001680:	2003      	movs	r0, #3
 8001682:	f000 f947 	bl	8001914 <HAL_NVIC_SetPriorityGrouping>

  /* Use systick as time base source and configure 1ms tick (default clock after Reset is HSI) */
  HAL_InitTick(TICK_INT_PRIORITY);
 8001686:	200e      	movs	r0, #14
 8001688:	f000 f808 	bl	800169c <HAL_InitTick>

  /* Init the low level hardware */
  HAL_MspInit();
 800168c:	f7ff fbc4 	bl	8000e18 <HAL_MspInit>

  /* Return function status */
  return HAL_OK;
 8001690:	2300      	movs	r3, #0
}
 8001692:	4618      	mov	r0, r3
 8001694:	bd80      	pop	{r7, pc}
 8001696:	bf00      	nop
 8001698:	40022000 	.word	0x40022000

0800169c <HAL_InitTick>:
  *       implementation  in user file.
  * @param TickPriority Tick interrupt priority.
  * @retval HAL status
  */
__weak HAL_StatusTypeDef HAL_InitTick(uint32_t TickPriority)
{
 800169c:	b580      	push	{r7, lr}
 800169e:	b082      	sub	sp, #8
 80016a0:	af00      	add	r7, sp, #0
 80016a2:	6078      	str	r0, [r7, #4]
  /* Configure the SysTick to have interrupt in 1ms time basis*/
  if (HAL_SYSTICK_Config(SystemCoreClock / (1000U / uwTickFreq)) > 0U)
 80016a4:	4b12      	ldr	r3, [pc, #72]	; (80016f0 <HAL_InitTick+0x54>)
 80016a6:	681a      	ldr	r2, [r3, #0]
 80016a8:	4b12      	ldr	r3, [pc, #72]	; (80016f4 <HAL_InitTick+0x58>)
 80016aa:	781b      	ldrb	r3, [r3, #0]
 80016ac:	4619      	mov	r1, r3
 80016ae:	f44f 737a 	mov.w	r3, #1000	; 0x3e8
 80016b2:	fbb3 f3f1 	udiv	r3, r3, r1
 80016b6:	fbb2 f3f3 	udiv	r3, r2, r3
 80016ba:	4618      	mov	r0, r3
 80016bc:	f000 f95f 	bl	800197e <HAL_SYSTICK_Config>
 80016c0:	4603      	mov	r3, r0
 80016c2:	2b00      	cmp	r3, #0
 80016c4:	d001      	beq.n	80016ca <HAL_InitTick+0x2e>
  {
    return HAL_ERROR;
 80016c6:	2301      	movs	r3, #1
 80016c8:	e00e      	b.n	80016e8 <HAL_InitTick+0x4c>
  }

  /* Configure the SysTick IRQ priority */
  if (TickPriority < (1UL << __NVIC_PRIO_BITS))
 80016ca:	687b      	ldr	r3, [r7, #4]
 80016cc:	2b0f      	cmp	r3, #15
 80016ce:	d80a      	bhi.n	80016e6 <HAL_InitTick+0x4a>
  {
    HAL_NVIC_SetPriority(SysTick_IRQn, TickPriority, 0U);
 80016d0:	2200      	movs	r2, #0
 80016d2:	6879      	ldr	r1, [r7, #4]
 80016d4:	f04f 30ff 	mov.w	r0, #4294967295
 80016d8:	f000 f927 	bl	800192a <HAL_NVIC_SetPriority>
    uwTickPrio = TickPriority;
 80016dc:	4a06      	ldr	r2, [pc, #24]	; (80016f8 <HAL_InitTick+0x5c>)
 80016de:	687b      	ldr	r3, [r7, #4]
 80016e0:	6013      	str	r3, [r2, #0]
  {
    return HAL_ERROR;
  }

  /* Return function status */
  return HAL_OK;
 80016e2:	2300      	movs	r3, #0
 80016e4:	e000      	b.n	80016e8 <HAL_InitTick+0x4c>
    return HAL_ERROR;
 80016e6:	2301      	movs	r3, #1
}
 80016e8:	4618      	mov	r0, r3
 80016ea:	3708      	adds	r7, #8
 80016ec:	46bd      	mov	sp, r7
 80016ee:	bd80      	pop	{r7, pc}
 80016f0:	20000000 	.word	0x20000000
 80016f4:	20000008 	.word	0x20000008
 80016f8:	20000004 	.word	0x20000004

080016fc <HAL_IncTick>:
  * @note This function is declared as __weak to be overwritten in case of other
  *      implementations in user file.
  * @retval None
  */
__weak void HAL_IncTick(void)
{
 80016fc:	b480      	push	{r7}
 80016fe:	af00      	add	r7, sp, #0
  uwTick += uwTickFreq;
 8001700:	4b05      	ldr	r3, [pc, #20]	; (8001718 <HAL_IncTick+0x1c>)
 8001702:	781b      	ldrb	r3, [r3, #0]
 8001704:	461a      	mov	r2, r3
 8001706:	4b05      	ldr	r3, [pc, #20]	; (800171c <HAL_IncTick+0x20>)
 8001708:	681b      	ldr	r3, [r3, #0]
 800170a:	4413      	add	r3, r2
 800170c:	4a03      	ldr	r2, [pc, #12]	; (800171c <HAL_IncTick+0x20>)
 800170e:	6013      	str	r3, [r2, #0]
}
 8001710:	bf00      	nop
 8001712:	46bd      	mov	sp, r7
 8001714:	bc80      	pop	{r7}
 8001716:	4770      	bx	lr
 8001718:	20000008 	.word	0x20000008
 800171c:	2000094c 	.word	0x2000094c

08001720 <HAL_GetTick>:
  * @note  This function is declared as __weak to be overwritten in case of other
  *       implementations in user file.
  * @retval tick value
  */
__weak uint32_t HAL_GetTick(void)
{
 8001720:	b480      	push	{r7}
 8001722:	af00      	add	r7, sp, #0
  return uwTick;
 8001724:	4b02      	ldr	r3, [pc, #8]	; (8001730 <HAL_GetTick+0x10>)
 8001726:	681b      	ldr	r3, [r3, #0]
}
 8001728:	4618      	mov	r0, r3
 800172a:	46bd      	mov	sp, r7
 800172c:	bc80      	pop	{r7}
 800172e:	4770      	bx	lr
 8001730:	2000094c 	.word	0x2000094c

08001734 <HAL_Delay>:
  *       implementations in user file.
  * @param Delay specifies the delay time length, in milliseconds.
  * @retval None
  */
__weak void HAL_Delay(uint32_t Delay)
{
 8001734:	b580      	push	{r7, lr}
 8001736:	b084      	sub	sp, #16
 8001738:	af00      	add	r7, sp, #0
 800173a:	6078      	str	r0, [r7, #4]
  uint32_t tickstart = HAL_GetTick();
 800173c:	f7ff fff0 	bl	8001720 <HAL_GetTick>
 8001740:	60b8      	str	r0, [r7, #8]
  uint32_t wait = Delay;
 8001742:	687b      	ldr	r3, [r7, #4]
 8001744:	60fb      	str	r3, [r7, #12]

  /* Add a freq to guarantee minimum wait */
  if (wait < HAL_MAX_DELAY)
 8001746:	68fb      	ldr	r3, [r7, #12]
 8001748:	f1b3 3fff 	cmp.w	r3, #4294967295
 800174c:	d005      	beq.n	800175a <HAL_Delay+0x26>
  {
    wait += (uint32_t)(uwTickFreq);
 800174e:	4b0a      	ldr	r3, [pc, #40]	; (8001778 <HAL_Delay+0x44>)
 8001750:	781b      	ldrb	r3, [r3, #0]
 8001752:	461a      	mov	r2, r3
 8001754:	68fb      	ldr	r3, [r7, #12]
 8001756:	4413      	add	r3, r2
 8001758:	60fb      	str	r3, [r7, #12]
  }

  while ((HAL_GetTick() - tickstart) < wait)
 800175a:	bf00      	nop
 800175c:	f7ff ffe0 	bl	8001720 <HAL_GetTick>
 8001760:	4602      	mov	r2, r0
 8001762:	68bb      	ldr	r3, [r7, #8]
 8001764:	1ad3      	subs	r3, r2, r3
 8001766:	68fa      	ldr	r2, [r7, #12]
 8001768:	429a      	cmp	r2, r3
 800176a:	d8f7      	bhi.n	800175c <HAL_Delay+0x28>
  {
  }
}
 800176c:	bf00      	nop
 800176e:	bf00      	nop
 8001770:	3710      	adds	r7, #16
 8001772:	46bd      	mov	sp, r7
 8001774:	bd80      	pop	{r7, pc}
 8001776:	bf00      	nop
 8001778:	20000008 	.word	0x20000008

0800177c <__NVIC_SetPriorityGrouping>:
           In case of a conflict between priority grouping and available
           priority bits (__NVIC_PRIO_BITS), the smallest possible priority group is set.
  \param [in]      PriorityGroup  Priority grouping field.
 */
__STATIC_INLINE void __NVIC_SetPriorityGrouping(uint32_t PriorityGroup)
{
 800177c:	b480      	push	{r7}
 800177e:	b085      	sub	sp, #20
 8001780:	af00      	add	r7, sp, #0
 8001782:	6078      	str	r0, [r7, #4]
  uint32_t reg_value;
  uint32_t PriorityGroupTmp = (PriorityGroup & (uint32_t)0x07UL);             /* only values 0..7 are used          */
 8001784:	687b      	ldr	r3, [r7, #4]
 8001786:	f003 0307 	and.w	r3, r3, #7
 800178a:	60fb      	str	r3, [r7, #12]

  reg_value  =  SCB->AIRCR;                                                   /* read old register configuration    */
 800178c:	4b0c      	ldr	r3, [pc, #48]	; (80017c0 <__NVIC_SetPriorityGrouping+0x44>)
 800178e:	68db      	ldr	r3, [r3, #12]
 8001790:	60bb      	str	r3, [r7, #8]
  reg_value &= ~((uint32_t)(SCB_AIRCR_VECTKEY_Msk | SCB_AIRCR_PRIGROUP_Msk)); /* clear bits to change               */
 8001792:	68ba      	ldr	r2, [r7, #8]
 8001794:	f64f 03ff 	movw	r3, #63743	; 0xf8ff
 8001798:	4013      	ands	r3, r2
 800179a:	60bb      	str	r3, [r7, #8]
  reg_value  =  (reg_value                                   |
                ((uint32_t)0x5FAUL << SCB_AIRCR_VECTKEY_Pos) |
                (PriorityGroupTmp << SCB_AIRCR_PRIGROUP_Pos) );               /* Insert write key and priority group */
 800179c:	68fb      	ldr	r3, [r7, #12]
 800179e:	021a      	lsls	r2, r3, #8
                ((uint32_t)0x5FAUL << SCB_AIRCR_VECTKEY_Pos) |
 80017a0:	68bb      	ldr	r3, [r7, #8]
 80017a2:	4313      	orrs	r3, r2
  reg_value  =  (reg_value                                   |
 80017a4:	f043 63bf 	orr.w	r3, r3, #100139008	; 0x5f80000
 80017a8:	f443 3300 	orr.w	r3, r3, #131072	; 0x20000
 80017ac:	60bb      	str	r3, [r7, #8]
  SCB->AIRCR =  reg_value;
 80017ae:	4a04      	ldr	r2, [pc, #16]	; (80017c0 <__NVIC_SetPriorityGrouping+0x44>)
 80017b0:	68bb      	ldr	r3, [r7, #8]
 80017b2:	60d3      	str	r3, [r2, #12]
}
 80017b4:	bf00      	nop
 80017b6:	3714      	adds	r7, #20
 80017b8:	46bd      	mov	sp, r7
 80017ba:	bc80      	pop	{r7}
 80017bc:	4770      	bx	lr
 80017be:	bf00      	nop
 80017c0:	e000ed00 	.word	0xe000ed00

080017c4 <__NVIC_GetPriorityGrouping>:
  \brief   Get Priority Grouping
  \details Reads the priority grouping field from the NVIC Interrupt Controller.
  \return                Priority grouping field (SCB->AIRCR [10:8] PRIGROUP field).
 */
__STATIC_INLINE uint32_t __NVIC_GetPriorityGrouping(void)
{
 80017c4:	b480      	push	{r7}
 80017c6:	af00      	add	r7, sp, #0
  return ((uint32_t)((SCB->AIRCR & SCB_AIRCR_PRIGROUP_Msk) >> SCB_AIRCR_PRIGROUP_Pos));
 80017c8:	4b04      	ldr	r3, [pc, #16]	; (80017dc <__NVIC_GetPriorityGrouping+0x18>)
 80017ca:	68db      	ldr	r3, [r3, #12]
 80017cc:	0a1b      	lsrs	r3, r3, #8
 80017ce:	f003 0307 	and.w	r3, r3, #7
}
 80017d2:	4618      	mov	r0, r3
 80017d4:	46bd      	mov	sp, r7
 80017d6:	bc80      	pop	{r7}
 80017d8:	4770      	bx	lr
 80017da:	bf00      	nop
 80017dc:	e000ed00 	.word	0xe000ed00

080017e0 <__NVIC_EnableIRQ>:
  \details Enables a device specific interrupt in the NVIC interrupt controller.
  \param [in]      IRQn  Device specific interrupt number.
  \note    IRQn must not be negative.
 */
__STATIC_INLINE void __NVIC_EnableIRQ(IRQn_Type IRQn)
{
 80017e0:	b480      	push	{r7}
 80017e2:	b083      	sub	sp, #12
 80017e4:	af00      	add	r7, sp, #0
 80017e6:	4603      	mov	r3, r0
 80017e8:	71fb      	strb	r3, [r7, #7]
  if ((int32_t)(IRQn) >= 0)
 80017ea:	f997 3007 	ldrsb.w	r3, [r7, #7]
 80017ee:	2b00      	cmp	r3, #0
 80017f0:	db0b      	blt.n	800180a <__NVIC_EnableIRQ+0x2a>
  {
    NVIC->ISER[(((uint32_t)IRQn) >> 5UL)] = (uint32_t)(1UL << (((uint32_t)IRQn) & 0x1FUL));
 80017f2:	79fb      	ldrb	r3, [r7, #7]
 80017f4:	f003 021f 	and.w	r2, r3, #31
 80017f8:	4906      	ldr	r1, [pc, #24]	; (8001814 <__NVIC_EnableIRQ+0x34>)
 80017fa:	f997 3007 	ldrsb.w	r3, [r7, #7]
 80017fe:	095b      	lsrs	r3, r3, #5
 8001800:	2001      	movs	r0, #1
 8001802:	fa00 f202 	lsl.w	r2, r0, r2
 8001806:	f841 2023 	str.w	r2, [r1, r3, lsl #2]
  }
}
 800180a:	bf00      	nop
 800180c:	370c      	adds	r7, #12
 800180e:	46bd      	mov	sp, r7
 8001810:	bc80      	pop	{r7}
 8001812:	4770      	bx	lr
 8001814:	e000e100 	.word	0xe000e100

08001818 <__NVIC_SetPriority>:
  \param [in]      IRQn  Interrupt number.
  \param [in]  priority  Priority to set.
  \note    The priority cannot be set for every processor exception.
 */
__STATIC_INLINE void __NVIC_SetPriority(IRQn_Type IRQn, uint32_t priority)
{
 8001818:	b480      	push	{r7}
 800181a:	b083      	sub	sp, #12
 800181c:	af00      	add	r7, sp, #0
 800181e:	4603      	mov	r3, r0
 8001820:	6039      	str	r1, [r7, #0]
 8001822:	71fb      	strb	r3, [r7, #7]
  if ((int32_t)(IRQn) >= 0)
 8001824:	f997 3007 	ldrsb.w	r3, [r7, #7]
 8001828:	2b00      	cmp	r3, #0
 800182a:	db0a      	blt.n	8001842 <__NVIC_SetPriority+0x2a>
  {
    NVIC->IP[((uint32_t)IRQn)]               = (uint8_t)((priority << (8U - __NVIC_PRIO_BITS)) & (uint32_t)0xFFUL);
 800182c:	683b      	ldr	r3, [r7, #0]
 800182e:	b2da      	uxtb	r2, r3
 8001830:	490c      	ldr	r1, [pc, #48]	; (8001864 <__NVIC_SetPriority+0x4c>)
 8001832:	f997 3007 	ldrsb.w	r3, [r7, #7]
 8001836:	0112      	lsls	r2, r2, #4
 8001838:	b2d2      	uxtb	r2, r2
 800183a:	440b      	add	r3, r1
 800183c:	f883 2300 	strb.w	r2, [r3, #768]	; 0x300
  }
  else
  {
    SCB->SHP[(((uint32_t)IRQn) & 0xFUL)-4UL] = (uint8_t)((priority << (8U - __NVIC_PRIO_BITS)) & (uint32_t)0xFFUL);
  }
}
 8001840:	e00a      	b.n	8001858 <__NVIC_SetPriority+0x40>
    SCB->SHP[(((uint32_t)IRQn) & 0xFUL)-4UL] = (uint8_t)((priority << (8U - __NVIC_PRIO_BITS)) & (uint32_t)0xFFUL);
 8001842:	683b      	ldr	r3, [r7, #0]
 8001844:	b2da      	uxtb	r2, r3
 8001846:	4908      	ldr	r1, [pc, #32]	; (8001868 <__NVIC_SetPriority+0x50>)
 8001848:	79fb      	ldrb	r3, [r7, #7]
 800184a:	f003 030f 	and.w	r3, r3, #15
 800184e:	3b04      	subs	r3, #4
 8001850:	0112      	lsls	r2, r2, #4
 8001852:	b2d2      	uxtb	r2, r2
 8001854:	440b      	add	r3, r1
 8001856:	761a      	strb	r2, [r3, #24]
}
 8001858:	bf00      	nop
 800185a:	370c      	adds	r7, #12
 800185c:	46bd      	mov	sp, r7
 800185e:	bc80      	pop	{r7}
 8001860:	4770      	bx	lr
 8001862:	bf00      	nop
 8001864:	e000e100 	.word	0xe000e100
 8001868:	e000ed00 	.word	0xe000ed00

0800186c <NVIC_EncodePriority>:
  \param [in]   PreemptPriority  Preemptive priority value (starting from 0).
  \param [in]       SubPriority  Subpriority value (starting from 0).
  \return                        Encoded priority. Value can be used in the function \ref NVIC_SetPriority().
 */
__STATIC_INLINE uint32_t NVIC_EncodePriority (uint32_t PriorityGroup, uint32_t PreemptPriority, uint32_t SubPriority)
{
 800186c:	b480      	push	{r7}
 800186e:	b089      	sub	sp, #36	; 0x24
 8001870:	af00      	add	r7, sp, #0
 8001872:	60f8      	str	r0, [r7, #12]
 8001874:	60b9      	str	r1, [r7, #8]
 8001876:	607a      	str	r2, [r7, #4]
  uint32_t PriorityGroupTmp = (PriorityGroup & (uint32_t)0x07UL);   /* only values 0..7 are used          */
 8001878:	68fb      	ldr	r3, [r7, #12]
 800187a:	f003 0307 	and.w	r3, r3, #7
 800187e:	61fb      	str	r3, [r7, #28]
  uint32_t PreemptPriorityBits;
  uint32_t SubPriorityBits;

  PreemptPriorityBits = ((7UL - PriorityGroupTmp) > (uint32_t)(__NVIC_PRIO_BITS)) ? (uint32_t)(__NVIC_PRIO_BITS) : (uint32_t)(7UL - PriorityGroupTmp);
 8001880:	69fb      	ldr	r3, [r7, #28]
 8001882:	f1c3 0307 	rsb	r3, r3, #7
 8001886:	2b04      	cmp	r3, #4
 8001888:	bf28      	it	cs
 800188a:	2304      	movcs	r3, #4
 800188c:	61bb      	str	r3, [r7, #24]
  SubPriorityBits     = ((PriorityGroupTmp + (uint32_t)(__NVIC_PRIO_BITS)) < (uint32_t)7UL) ? (uint32_t)0UL : (uint32_t)((PriorityGroupTmp - 7UL) + (uint32_t)(__NVIC_PRIO_BITS));
 800188e:	69fb      	ldr	r3, [r7, #28]
 8001890:	3304      	adds	r3, #4
 8001892:	2b06      	cmp	r3, #6
 8001894:	d902      	bls.n	800189c <NVIC_EncodePriority+0x30>
 8001896:	69fb      	ldr	r3, [r7, #28]
 8001898:	3b03      	subs	r3, #3
 800189a:	e000      	b.n	800189e <NVIC_EncodePriority+0x32>
 800189c:	2300      	movs	r3, #0
 800189e:	617b      	str	r3, [r7, #20]

  return (
           ((PreemptPriority & (uint32_t)((1UL << (PreemptPriorityBits)) - 1UL)) << SubPriorityBits) |
 80018a0:	f04f 32ff 	mov.w	r2, #4294967295
 80018a4:	69bb      	ldr	r3, [r7, #24]
 80018a6:	fa02 f303 	lsl.w	r3, r2, r3
 80018aa:	43da      	mvns	r2, r3
 80018ac:	68bb      	ldr	r3, [r7, #8]
 80018ae:	401a      	ands	r2, r3
 80018b0:	697b      	ldr	r3, [r7, #20]
 80018b2:	409a      	lsls	r2, r3
           ((SubPriority     & (uint32_t)((1UL << (SubPriorityBits    )) - 1UL)))
 80018b4:	f04f 31ff 	mov.w	r1, #4294967295
 80018b8:	697b      	ldr	r3, [r7, #20]
 80018ba:	fa01 f303 	lsl.w	r3, r1, r3
 80018be:	43d9      	mvns	r1, r3
 80018c0:	687b      	ldr	r3, [r7, #4]
 80018c2:	400b      	ands	r3, r1
           ((PreemptPriority & (uint32_t)((1UL << (PreemptPriorityBits)) - 1UL)) << SubPriorityBits) |
 80018c4:	4313      	orrs	r3, r2
         );
}
 80018c6:	4618      	mov	r0, r3
 80018c8:	3724      	adds	r7, #36	; 0x24
 80018ca:	46bd      	mov	sp, r7
 80018cc:	bc80      	pop	{r7}
 80018ce:	4770      	bx	lr

080018d0 <SysTick_Config>:
  \note    When the variable <b>__Vendor_SysTickConfig</b> is set to 1, then the
           function <b>SysTick_Config</b> is not included. In this case, the file <b><i>device</i>.h</b>
           must contain a vendor-specific implementation of this function.
 */
__STATIC_INLINE uint32_t SysTick_Config(uint32_t ticks)
{
 80018d0:	b580      	push	{r7, lr}
 80018d2:	b082      	sub	sp, #8
 80018d4:	af00      	add	r7, sp, #0
 80018d6:	6078      	str	r0, [r7, #4]
  if ((ticks - 1UL) > SysTick_LOAD_RELOAD_Msk)
 80018d8:	687b      	ldr	r3, [r7, #4]
 80018da:	3b01      	subs	r3, #1
 80018dc:	f1b3 7f80 	cmp.w	r3, #16777216	; 0x1000000
 80018e0:	d301      	bcc.n	80018e6 <SysTick_Config+0x16>
  {
    return (1UL);                                                   /* Reload value impossible */
 80018e2:	2301      	movs	r3, #1
 80018e4:	e00f      	b.n	8001906 <SysTick_Config+0x36>
  }

  SysTick->LOAD  = (uint32_t)(ticks - 1UL);                         /* set reload register */
 80018e6:	4a0a      	ldr	r2, [pc, #40]	; (8001910 <SysTick_Config+0x40>)
 80018e8:	687b      	ldr	r3, [r7, #4]
 80018ea:	3b01      	subs	r3, #1
 80018ec:	6053      	str	r3, [r2, #4]
  NVIC_SetPriority (SysTick_IRQn, (1UL << __NVIC_PRIO_BITS) - 1UL); /* set Priority for Systick Interrupt */
 80018ee:	210f      	movs	r1, #15
 80018f0:	f04f 30ff 	mov.w	r0, #4294967295
 80018f4:	f7ff ff90 	bl	8001818 <__NVIC_SetPriority>
  SysTick->VAL   = 0UL;                                             /* Load the SysTick Counter Value */
 80018f8:	4b05      	ldr	r3, [pc, #20]	; (8001910 <SysTick_Config+0x40>)
 80018fa:	2200      	movs	r2, #0
 80018fc:	609a      	str	r2, [r3, #8]
  SysTick->CTRL  = SysTick_CTRL_CLKSOURCE_Msk |
 80018fe:	4b04      	ldr	r3, [pc, #16]	; (8001910 <SysTick_Config+0x40>)
 8001900:	2207      	movs	r2, #7
 8001902:	601a      	str	r2, [r3, #0]
                   SysTick_CTRL_TICKINT_Msk   |
                   SysTick_CTRL_ENABLE_Msk;                         /* Enable SysTick IRQ and SysTick Timer */
  return (0UL);                                                     /* Function successful */
 8001904:	2300      	movs	r3, #0
}
 8001906:	4618      	mov	r0, r3
 8001908:	3708      	adds	r7, #8
 800190a:	46bd      	mov	sp, r7
 800190c:	bd80      	pop	{r7, pc}
 800190e:	bf00      	nop
 8001910:	e000e010 	.word	0xe000e010

08001914 <HAL_NVIC_SetPriorityGrouping>:
  * @note   When the NVIC_PriorityGroup_0 is selected, IRQ preemption is no more possible. 
  *         The pending IRQ priority will be managed only by the subpriority. 
  * @retval None
  */
void HAL_NVIC_SetPriorityGrouping(uint32_t PriorityGroup)
{
 8001914:	b580      	push	{r7, lr}
 8001916:	b082      	sub	sp, #8
 8001918:	af00      	add	r7, sp, #0
 800191a:	6078      	str	r0, [r7, #4]
  /* Check the parameters */
  assert_param(IS_NVIC_PRIORITY_GROUP(PriorityGroup));
  
  /* Set the PRIGROUP[10:8] bits according to the PriorityGroup parameter value */
  NVIC_SetPriorityGrouping(PriorityGroup);
 800191c:	6878      	ldr	r0, [r7, #4]
 800191e:	f7ff ff2d 	bl	800177c <__NVIC_SetPriorityGrouping>
}
 8001922:	bf00      	nop
 8001924:	3708      	adds	r7, #8
 8001926:	46bd      	mov	sp, r7
 8001928:	bd80      	pop	{r7, pc}

0800192a <HAL_NVIC_SetPriority>:
  *         This parameter can be a value between 0 and 15
  *         A lower priority value indicates a higher priority.          
  * @retval None
  */
void HAL_NVIC_SetPriority(IRQn_Type IRQn, uint32_t PreemptPriority, uint32_t SubPriority)
{ 
 800192a:	b580      	push	{r7, lr}
 800192c:	b086      	sub	sp, #24
 800192e:	af00      	add	r7, sp, #0
 8001930:	4603      	mov	r3, r0
 8001932:	60b9      	str	r1, [r7, #8]
 8001934:	607a      	str	r2, [r7, #4]
 8001936:	73fb      	strb	r3, [r7, #15]
  uint32_t prioritygroup = 0x00U;
 8001938:	2300      	movs	r3, #0
 800193a:	617b      	str	r3, [r7, #20]
  
  /* Check the parameters */
  assert_param(IS_NVIC_SUB_PRIORITY(SubPriority));
  assert_param(IS_NVIC_PREEMPTION_PRIORITY(PreemptPriority));
  
  prioritygroup = NVIC_GetPriorityGrouping();
 800193c:	f7ff ff42 	bl	80017c4 <__NVIC_GetPriorityGrouping>
 8001940:	6178      	str	r0, [r7, #20]
  
  NVIC_SetPriority(IRQn, NVIC_EncodePriority(prioritygroup, PreemptPriority, SubPriority));
 8001942:	687a      	ldr	r2, [r7, #4]
 8001944:	68b9      	ldr	r1, [r7, #8]
 8001946:	6978      	ldr	r0, [r7, #20]
 8001948:	f7ff ff90 	bl	800186c <NVIC_EncodePriority>
 800194c:	4602      	mov	r2, r0
 800194e:	f997 300f 	ldrsb.w	r3, [r7, #15]
 8001952:	4611      	mov	r1, r2
 8001954:	4618      	mov	r0, r3
 8001956:	f7ff ff5f 	bl	8001818 <__NVIC_SetPriority>
}
 800195a:	bf00      	nop
 800195c:	3718      	adds	r7, #24
 800195e:	46bd      	mov	sp, r7
 8001960:	bd80      	pop	{r7, pc}

08001962 <HAL_NVIC_EnableIRQ>:
  *         This parameter can be an enumerator of IRQn_Type enumeration
  *         (For the complete STM32 Devices IRQ Channels list, please refer to the appropriate CMSIS device file (stm32f10xxx.h))
  * @retval None
  */
void HAL_NVIC_EnableIRQ(IRQn_Type IRQn)
{
 8001962:	b580      	push	{r7, lr}
 8001964:	b082      	sub	sp, #8
 8001966:	af00      	add	r7, sp, #0
 8001968:	4603      	mov	r3, r0
 800196a:	71fb      	strb	r3, [r7, #7]
  /* Check the parameters */
  assert_param(IS_NVIC_DEVICE_IRQ(IRQn));

  /* Enable interrupt */
  NVIC_EnableIRQ(IRQn);
 800196c:	f997 3007 	ldrsb.w	r3, [r7, #7]
 8001970:	4618      	mov	r0, r3
 8001972:	f7ff ff35 	bl	80017e0 <__NVIC_EnableIRQ>
}
 8001976:	bf00      	nop
 8001978:	3708      	adds	r7, #8
 800197a:	46bd      	mov	sp, r7
 800197c:	bd80      	pop	{r7, pc}

0800197e <HAL_SYSTICK_Config>:
  * @param  TicksNumb: Specifies the ticks Number of ticks between two interrupts.
  * @retval status:  - 0  Function succeeded.
  *                  - 1  Function failed.
  */
uint32_t HAL_SYSTICK_Config(uint32_t TicksNumb)
{
 800197e:	b580      	push	{r7, lr}
 8001980:	b082      	sub	sp, #8
 8001982:	af00      	add	r7, sp, #0
 8001984:	6078      	str	r0, [r7, #4]
   return SysTick_Config(TicksNumb);
 8001986:	6878      	ldr	r0, [r7, #4]
 8001988:	f7ff ffa2 	bl	80018d0 <SysTick_Config>
 800198c:	4603      	mov	r3, r0
}
 800198e:	4618      	mov	r0, r3
 8001990:	3708      	adds	r7, #8
 8001992:	46bd      	mov	sp, r7
 8001994:	bd80      	pop	{r7, pc}
	...

08001998 <HAL_DMA_Init>:
  * @param  hdma: Pointer to a DMA_HandleTypeDef structure that contains
  *               the configuration information for the specified DMA Channel.
  * @retval HAL status
  */
HAL_StatusTypeDef HAL_DMA_Init(DMA_HandleTypeDef *hdma)
{
 8001998:	b480      	push	{r7}
 800199a:	b085      	sub	sp, #20
 800199c:	af00      	add	r7, sp, #0
 800199e:	6078      	str	r0, [r7, #4]
  uint32_t tmp = 0U;
 80019a0:	2300      	movs	r3, #0
 80019a2:	60fb      	str	r3, [r7, #12]

  /* Check the DMA handle allocation */
  if(hdma == NULL)
 80019a4:	687b      	ldr	r3, [r7, #4]
 80019a6:	2b00      	cmp	r3, #0
 80019a8:	d101      	bne.n	80019ae <HAL_DMA_Init+0x16>
  {
    return HAL_ERROR;
 80019aa:	2301      	movs	r3, #1
 80019ac:	e043      	b.n	8001a36 <HAL_DMA_Init+0x9e>
    hdma->ChannelIndex = (((uint32_t)hdma->Instance - (uint32_t)DMA2_Channel1) / ((uint32_t)DMA2_Channel2 - (uint32_t)DMA2_Channel1)) << 2;
    hdma->DmaBaseAddress = DMA2;
  }
#else
  /* DMA1 */
  hdma->ChannelIndex = (((uint32_t)hdma->Instance - (uint32_t)DMA1_Channel1) / ((uint32_t)DMA1_Channel2 - (uint32_t)DMA1_Channel1)) << 2;
 80019ae:	687b      	ldr	r3, [r7, #4]
 80019b0:	681b      	ldr	r3, [r3, #0]
 80019b2:	461a      	mov	r2, r3
 80019b4:	4b22      	ldr	r3, [pc, #136]	; (8001a40 <HAL_DMA_Init+0xa8>)
 80019b6:	4413      	add	r3, r2
 80019b8:	4a22      	ldr	r2, [pc, #136]	; (8001a44 <HAL_DMA_Init+0xac>)
 80019ba:	fba2 2303 	umull	r2, r3, r2, r3
 80019be:	091b      	lsrs	r3, r3, #4
 80019c0:	009a      	lsls	r2, r3, #2
 80019c2:	687b      	ldr	r3, [r7, #4]
 80019c4:	641a      	str	r2, [r3, #64]	; 0x40
  hdma->DmaBaseAddress = DMA1;
 80019c6:	687b      	ldr	r3, [r7, #4]
 80019c8:	4a1f      	ldr	r2, [pc, #124]	; (8001a48 <HAL_DMA_Init+0xb0>)
 80019ca:	63da      	str	r2, [r3, #60]	; 0x3c
#endif /* DMA2 */

  /* Change DMA peripheral state */
  hdma->State = HAL_DMA_STATE_BUSY;
 80019cc:	687b      	ldr	r3, [r7, #4]
 80019ce:	2202      	movs	r2, #2
 80019d0:	f883 2021 	strb.w	r2, [r3, #33]	; 0x21

  /* Get the CR register value */
  tmp = hdma->Instance->CCR;
 80019d4:	687b      	ldr	r3, [r7, #4]
 80019d6:	681b      	ldr	r3, [r3, #0]
 80019d8:	681b      	ldr	r3, [r3, #0]
 80019da:	60fb      	str	r3, [r7, #12]

  /* Clear PL, MSIZE, PSIZE, MINC, PINC, CIRC and DIR bits */
  tmp &= ((uint32_t)~(DMA_CCR_PL    | DMA_CCR_MSIZE  | DMA_CCR_PSIZE  | \
 80019dc:	68fb      	ldr	r3, [r7, #12]
 80019de:	f423 537f 	bic.w	r3, r3, #16320	; 0x3fc0
 80019e2:	f023 0330 	bic.w	r3, r3, #48	; 0x30
 80019e6:	60fb      	str	r3, [r7, #12]
                      DMA_CCR_MINC  | DMA_CCR_PINC   | DMA_CCR_CIRC   | \
                      DMA_CCR_DIR));

  /* Prepare the DMA Channel configuration */
  tmp |=  hdma->Init.Direction        |
 80019e8:	687b      	ldr	r3, [r7, #4]
 80019ea:	685a      	ldr	r2, [r3, #4]
          hdma->Init.PeriphInc           | hdma->Init.MemInc           |
 80019ec:	687b      	ldr	r3, [r7, #4]
 80019ee:	689b      	ldr	r3, [r3, #8]
  tmp |=  hdma->Init.Direction        |
 80019f0:	431a      	orrs	r2, r3
          hdma->Init.PeriphInc           | hdma->Init.MemInc           |
 80019f2:	687b      	ldr	r3, [r7, #4]
 80019f4:	68db      	ldr	r3, [r3, #12]
 80019f6:	431a      	orrs	r2, r3
          hdma->Init.PeriphDataAlignment | hdma->Init.MemDataAlignment |
 80019f8:	687b      	ldr	r3, [r7, #4]
 80019fa:	691b      	ldr	r3, [r3, #16]
          hdma->Init.PeriphInc           | hdma->Init.MemInc           |
 80019fc:	431a      	orrs	r2, r3
          hdma->Init.PeriphDataAlignment | hdma->Init.MemDataAlignment |
 80019fe:	687b      	ldr	r3, [r7, #4]
 8001a00:	695b      	ldr	r3, [r3, #20]
 8001a02:	431a      	orrs	r2, r3
          hdma->Init.Mode                | hdma->Init.Priority;
 8001a04:	687b      	ldr	r3, [r7, #4]
 8001a06:	699b      	ldr	r3, [r3, #24]
          hdma->Init.PeriphDataAlignment | hdma->Init.MemDataAlignment |
 8001a08:	431a      	orrs	r2, r3
          hdma->Init.Mode                | hdma->Init.Priority;
 8001a0a:	687b      	ldr	r3, [r7, #4]
 8001a0c:	69db      	ldr	r3, [r3, #28]
 8001a0e:	4313      	orrs	r3, r2
  tmp |=  hdma->Init.Direction        |
 8001a10:	68fa      	ldr	r2, [r7, #12]
 8001a12:	4313      	orrs	r3, r2
 8001a14:	60fb      	str	r3, [r7, #12]

  /* Write to DMA Channel CR register */
  hdma->Instance->CCR = tmp;
 8001a16:	687b      	ldr	r3, [r7, #4]
 8001a18:	681b      	ldr	r3, [r3, #0]
 8001a1a:	68fa      	ldr	r2, [r7, #12]
 8001a1c:	601a      	str	r2, [r3, #0]

  /* Initialise the error code */
  hdma->ErrorCode = HAL_DMA_ERROR_NONE;
 8001a1e:	687b      	ldr	r3, [r7, #4]
 8001a20:	2200      	movs	r2, #0
 8001a22:	639a      	str	r2, [r3, #56]	; 0x38

  /* Initialize the DMA state*/
  hdma->State = HAL_DMA_STATE_READY;
 8001a24:	687b      	ldr	r3, [r7, #4]
 8001a26:	2201      	movs	r2, #1
 8001a28:	f883 2021 	strb.w	r2, [r3, #33]	; 0x21
  /* Allocate lock resource and initialize it */
  hdma->Lock = HAL_UNLOCKED;
 8001a2c:	687b      	ldr	r3, [r7, #4]
 8001a2e:	2200      	movs	r2, #0
 8001a30:	f883 2020 	strb.w	r2, [r3, #32]

  return HAL_OK;
 8001a34:	2300      	movs	r3, #0
}
 8001a36:	4618      	mov	r0, r3
 8001a38:	3714      	adds	r7, #20
 8001a3a:	46bd      	mov	sp, r7
 8001a3c:	bc80      	pop	{r7}
 8001a3e:	4770      	bx	lr
 8001a40:	bffdfff8 	.word	0xbffdfff8
 8001a44:	cccccccd 	.word	0xcccccccd
 8001a48:	40020000 	.word	0x40020000

08001a4c <HAL_DMA_Start_IT>:
  * @param  DstAddress: The destination memory Buffer address
  * @param  DataLength: The length of data to be transferred from source to destination
  * @retval HAL status
  */
HAL_StatusTypeDef HAL_DMA_Start_IT(DMA_HandleTypeDef *hdma, uint32_t SrcAddress, uint32_t DstAddress, uint32_t DataLength)
{
 8001a4c:	b580      	push	{r7, lr}
 8001a4e:	b086      	sub	sp, #24
 8001a50:	af00      	add	r7, sp, #0
 8001a52:	60f8      	str	r0, [r7, #12]
 8001a54:	60b9      	str	r1, [r7, #8]
 8001a56:	607a      	str	r2, [r7, #4]
 8001a58:	603b      	str	r3, [r7, #0]
  HAL_StatusTypeDef status = HAL_OK;
 8001a5a:	2300      	movs	r3, #0
 8001a5c:	75fb      	strb	r3, [r7, #23]

  /* Check the parameters */
  assert_param(IS_DMA_BUFFER_SIZE(DataLength));

  /* Process locked */
  __HAL_LOCK(hdma);
 8001a5e:	68fb      	ldr	r3, [r7, #12]
 8001a60:	f893 3020 	ldrb.w	r3, [r3, #32]
 8001a64:	2b01      	cmp	r3, #1
 8001a66:	d101      	bne.n	8001a6c <HAL_DMA_Start_IT+0x20>
 8001a68:	2302      	movs	r3, #2
 8001a6a:	e04a      	b.n	8001b02 <HAL_DMA_Start_IT+0xb6>
 8001a6c:	68fb      	ldr	r3, [r7, #12]
 8001a6e:	2201      	movs	r2, #1
 8001a70:	f883 2020 	strb.w	r2, [r3, #32]
  
  if(HAL_DMA_STATE_READY == hdma->State)
 8001a74:	68fb      	ldr	r3, [r7, #12]
 8001a76:	f893 3021 	ldrb.w	r3, [r3, #33]	; 0x21
 8001a7a:	2b01      	cmp	r3, #1
 8001a7c:	d13a      	bne.n	8001af4 <HAL_DMA_Start_IT+0xa8>
  {
    /* Change DMA peripheral state */
    hdma->State = HAL_DMA_STATE_BUSY;
 8001a7e:	68fb      	ldr	r3, [r7, #12]
 8001a80:	2202      	movs	r2, #2
 8001a82:	f883 2021 	strb.w	r2, [r3, #33]	; 0x21
    hdma->ErrorCode = HAL_DMA_ERROR_NONE;
 8001a86:	68fb      	ldr	r3, [r7, #12]
 8001a88:	2200      	movs	r2, #0
 8001a8a:	639a      	str	r2, [r3, #56]	; 0x38
    
    /* Disable the peripheral */
    __HAL_DMA_DISABLE(hdma);
 8001a8c:	68fb      	ldr	r3, [r7, #12]
 8001a8e:	681b      	ldr	r3, [r3, #0]
 8001a90:	681a      	ldr	r2, [r3, #0]
 8001a92:	68fb      	ldr	r3, [r7, #12]
 8001a94:	681b      	ldr	r3, [r3, #0]
 8001a96:	f022 0201 	bic.w	r2, r2, #1
 8001a9a:	601a      	str	r2, [r3, #0]
    
    /* Configure the source, destination address and the data length & clear flags*/
    DMA_SetConfig(hdma, SrcAddress, DstAddress, DataLength);
 8001a9c:	683b      	ldr	r3, [r7, #0]
 8001a9e:	687a      	ldr	r2, [r7, #4]
 8001aa0:	68b9      	ldr	r1, [r7, #8]
 8001aa2:	68f8      	ldr	r0, [r7, #12]
 8001aa4:	f000 f9e8 	bl	8001e78 <DMA_SetConfig>
    
    /* Enable the transfer complete interrupt */
    /* Enable the transfer Error interrupt */
    if(NULL != hdma->XferHalfCpltCallback)
 8001aa8:	68fb      	ldr	r3, [r7, #12]
 8001aaa:	6adb      	ldr	r3, [r3, #44]	; 0x2c
 8001aac:	2b00      	cmp	r3, #0
 8001aae:	d008      	beq.n	8001ac2 <HAL_DMA_Start_IT+0x76>
    {
      /* Enable the Half transfer complete interrupt as well */
      __HAL_DMA_ENABLE_IT(hdma, (DMA_IT_TC | DMA_IT_HT | DMA_IT_TE));
 8001ab0:	68fb      	ldr	r3, [r7, #12]
 8001ab2:	681b      	ldr	r3, [r3, #0]
 8001ab4:	681a      	ldr	r2, [r3, #0]
 8001ab6:	68fb      	ldr	r3, [r7, #12]
 8001ab8:	681b      	ldr	r3, [r3, #0]
 8001aba:	f042 020e 	orr.w	r2, r2, #14
 8001abe:	601a      	str	r2, [r3, #0]
 8001ac0:	e00f      	b.n	8001ae2 <HAL_DMA_Start_IT+0x96>
    }
    else
    {
      __HAL_DMA_DISABLE_IT(hdma, DMA_IT_HT);
 8001ac2:	68fb      	ldr	r3, [r7, #12]
 8001ac4:	681b      	ldr	r3, [r3, #0]
 8001ac6:	681a      	ldr	r2, [r3, #0]
 8001ac8:	68fb      	ldr	r3, [r7, #12]
 8001aca:	681b      	ldr	r3, [r3, #0]
 8001acc:	f022 0204 	bic.w	r2, r2, #4
 8001ad0:	601a      	str	r2, [r3, #0]
      __HAL_DMA_ENABLE_IT(hdma, (DMA_IT_TC | DMA_IT_TE));
 8001ad2:	68fb      	ldr	r3, [r7, #12]
 8001ad4:	681b      	ldr	r3, [r3, #0]
 8001ad6:	681a      	ldr	r2, [r3, #0]
 8001ad8:	68fb      	ldr	r3, [r7, #12]
 8001ada:	681b      	ldr	r3, [r3, #0]
 8001adc:	f042 020a 	orr.w	r2, r2, #10
 8001ae0:	601a      	str	r2, [r3, #0]
    }
    /* Enable the Peripheral */
    __HAL_DMA_ENABLE(hdma);
 8001ae2:	68fb      	ldr	r3, [r7, #12]
 8001ae4:	681b      	ldr	r3, [r3, #0]
 8001ae6:	681a      	ldr	r2, [r3, #0]
 8001ae8:	68fb      	ldr	r3, [r7, #12]
 8001aea:	681b      	ldr	r3, [r3, #0]
 8001aec:	f042 0201 	orr.w	r2, r2, #1
 8001af0:	601a      	str	r2, [r3, #0]
 8001af2:	e005      	b.n	8001b00 <HAL_DMA_Start_IT+0xb4>
  }
  else
  {      
    /* Process Unlocked */
    __HAL_UNLOCK(hdma); 
 8001af4:	68fb      	ldr	r3, [r7, #12]
 8001af6:	2200      	movs	r2, #0
 8001af8:	f883 2020 	strb.w	r2, [r3, #32]

    /* Remain BUSY */
    status = HAL_BUSY;
 8001afc:	2302      	movs	r3, #2
 8001afe:	75fb      	strb	r3, [r7, #23]
  }    
  return status;
 8001b00:	7dfb      	ldrb	r3, [r7, #23]
}
 8001b02:	4618      	mov	r0, r3
 8001b04:	3718      	adds	r7, #24
 8001b06:	46bd      	mov	sp, r7
 8001b08:	bd80      	pop	{r7, pc}

08001b0a <HAL_DMA_Abort>:
  * @param  hdma: pointer to a DMA_HandleTypeDef structure that contains
  *               the configuration information for the specified DMA Channel.
  * @retval HAL status
  */
HAL_StatusTypeDef HAL_DMA_Abort(DMA_HandleTypeDef *hdma)
{
 8001b0a:	b480      	push	{r7}
 8001b0c:	b085      	sub	sp, #20
 8001b0e:	af00      	add	r7, sp, #0
 8001b10:	6078      	str	r0, [r7, #4]
  HAL_StatusTypeDef status = HAL_OK;
 8001b12:	2300      	movs	r3, #0
 8001b14:	73fb      	strb	r3, [r7, #15]
  
  if(hdma->State != HAL_DMA_STATE_BUSY)
 8001b16:	687b      	ldr	r3, [r7, #4]
 8001b18:	f893 3021 	ldrb.w	r3, [r3, #33]	; 0x21
 8001b1c:	2b02      	cmp	r3, #2
 8001b1e:	d008      	beq.n	8001b32 <HAL_DMA_Abort+0x28>
  {
    /* no transfer ongoing */
    hdma->ErrorCode = HAL_DMA_ERROR_NO_XFER;
 8001b20:	687b      	ldr	r3, [r7, #4]
 8001b22:	2204      	movs	r2, #4
 8001b24:	639a      	str	r2, [r3, #56]	; 0x38
    
    /* Process Unlocked */
    __HAL_UNLOCK(hdma);
 8001b26:	687b      	ldr	r3, [r7, #4]
 8001b28:	2200      	movs	r2, #0
 8001b2a:	f883 2020 	strb.w	r2, [r3, #32]
    
    return HAL_ERROR;
 8001b2e:	2301      	movs	r3, #1
 8001b30:	e020      	b.n	8001b74 <HAL_DMA_Abort+0x6a>
  }
  else

  {
    /* Disable DMA IT */
    __HAL_DMA_DISABLE_IT(hdma, (DMA_IT_TC | DMA_IT_HT | DMA_IT_TE));
 8001b32:	687b      	ldr	r3, [r7, #4]
 8001b34:	681b      	ldr	r3, [r3, #0]
 8001b36:	681a      	ldr	r2, [r3, #0]
 8001b38:	687b      	ldr	r3, [r7, #4]
 8001b3a:	681b      	ldr	r3, [r3, #0]
 8001b3c:	f022 020e 	bic.w	r2, r2, #14
 8001b40:	601a      	str	r2, [r3, #0]
      
    /* Disable the channel */
    __HAL_DMA_DISABLE(hdma);
 8001b42:	687b      	ldr	r3, [r7, #4]
 8001b44:	681b      	ldr	r3, [r3, #0]
 8001b46:	681a      	ldr	r2, [r3, #0]
 8001b48:	687b      	ldr	r3, [r7, #4]
 8001b4a:	681b      	ldr	r3, [r3, #0]
 8001b4c:	f022 0201 	bic.w	r2, r2, #1
 8001b50:	601a      	str	r2, [r3, #0]
      
    /* Clear all flags */
    hdma->DmaBaseAddress->IFCR = (DMA_ISR_GIF1 << hdma->ChannelIndex);
 8001b52:	687b      	ldr	r3, [r7, #4]
 8001b54:	6c1a      	ldr	r2, [r3, #64]	; 0x40
 8001b56:	687b      	ldr	r3, [r7, #4]
 8001b58:	6bdb      	ldr	r3, [r3, #60]	; 0x3c
 8001b5a:	2101      	movs	r1, #1
 8001b5c:	fa01 f202 	lsl.w	r2, r1, r2
 8001b60:	605a      	str	r2, [r3, #4]
  }
  /* Change the DMA state */
  hdma->State = HAL_DMA_STATE_READY;
 8001b62:	687b      	ldr	r3, [r7, #4]
 8001b64:	2201      	movs	r2, #1
 8001b66:	f883 2021 	strb.w	r2, [r3, #33]	; 0x21

  /* Process Unlocked */
  __HAL_UNLOCK(hdma);      
 8001b6a:	687b      	ldr	r3, [r7, #4]
 8001b6c:	2200      	movs	r2, #0
 8001b6e:	f883 2020 	strb.w	r2, [r3, #32]
  
  return status; 
 8001b72:	7bfb      	ldrb	r3, [r7, #15]
}
 8001b74:	4618      	mov	r0, r3
 8001b76:	3714      	adds	r7, #20
 8001b78:	46bd      	mov	sp, r7
 8001b7a:	bc80      	pop	{r7}
 8001b7c:	4770      	bx	lr
	...

08001b80 <HAL_DMA_Abort_IT>:
  * @param  hdma  : pointer to a DMA_HandleTypeDef structure that contains
  *                 the configuration information for the specified DMA Channel.
  * @retval HAL status
  */
HAL_StatusTypeDef HAL_DMA_Abort_IT(DMA_HandleTypeDef *hdma)
{  
 8001b80:	b580      	push	{r7, lr}
 8001b82:	b084      	sub	sp, #16
 8001b84:	af00      	add	r7, sp, #0
 8001b86:	6078      	str	r0, [r7, #4]
  HAL_StatusTypeDef status = HAL_OK;
 8001b88:	2300      	movs	r3, #0
 8001b8a:	73fb      	strb	r3, [r7, #15]
  
  if(HAL_DMA_STATE_BUSY != hdma->State)
 8001b8c:	687b      	ldr	r3, [r7, #4]
 8001b8e:	f893 3021 	ldrb.w	r3, [r3, #33]	; 0x21
 8001b92:	2b02      	cmp	r3, #2
 8001b94:	d005      	beq.n	8001ba2 <HAL_DMA_Abort_IT+0x22>
  {
    /* no transfer ongoing */
    hdma->ErrorCode = HAL_DMA_ERROR_NO_XFER;
 8001b96:	687b      	ldr	r3, [r7, #4]
 8001b98:	2204      	movs	r2, #4
 8001b9a:	639a      	str	r2, [r3, #56]	; 0x38
        
    status = HAL_ERROR;
 8001b9c:	2301      	movs	r3, #1
 8001b9e:	73fb      	strb	r3, [r7, #15]
 8001ba0:	e051      	b.n	8001c46 <HAL_DMA_Abort_IT+0xc6>
  }
  else
  { 
    /* Disable DMA IT */
    __HAL_DMA_DISABLE_IT(hdma, (DMA_IT_TC | DMA_IT_HT | DMA_IT_TE));
 8001ba2:	687b      	ldr	r3, [r7, #4]
 8001ba4:	681b      	ldr	r3, [r3, #0]
 8001ba6:	681a      	ldr	r2, [r3, #0]
 8001ba8:	687b      	ldr	r3, [r7, #4]
 8001baa:	681b      	ldr	r3, [r3, #0]
 8001bac:	f022 020e 	bic.w	r2, r2, #14
 8001bb0:	601a      	str	r2, [r3, #0]

    /* Disable the channel */
    __HAL_DMA_DISABLE(hdma);
 8001bb2:	687b      	ldr	r3, [r7, #4]
 8001bb4:	681b      	ldr	r3, [r3, #0]
 8001bb6:	681a      	ldr	r2, [r3, #0]
 8001bb8:	687b      	ldr	r3, [r7, #4]
 8001bba:	681b      	ldr	r3, [r3, #0]
 8001bbc:	f022 0201 	bic.w	r2, r2, #1
 8001bc0:	601a      	str	r2, [r3, #0]

    /* Clear all flags */
    __HAL_DMA_CLEAR_FLAG(hdma, __HAL_DMA_GET_GI_FLAG_INDEX(hdma));
 8001bc2:	687b      	ldr	r3, [r7, #4]
 8001bc4:	681b      	ldr	r3, [r3, #0]
 8001bc6:	4a22      	ldr	r2, [pc, #136]	; (8001c50 <HAL_DMA_Abort_IT+0xd0>)
 8001bc8:	4293      	cmp	r3, r2
 8001bca:	d029      	beq.n	8001c20 <HAL_DMA_Abort_IT+0xa0>
 8001bcc:	687b      	ldr	r3, [r7, #4]
 8001bce:	681b      	ldr	r3, [r3, #0]
 8001bd0:	4a20      	ldr	r2, [pc, #128]	; (8001c54 <HAL_DMA_Abort_IT+0xd4>)
 8001bd2:	4293      	cmp	r3, r2
 8001bd4:	d022      	beq.n	8001c1c <HAL_DMA_Abort_IT+0x9c>
 8001bd6:	687b      	ldr	r3, [r7, #4]
 8001bd8:	681b      	ldr	r3, [r3, #0]
 8001bda:	4a1f      	ldr	r2, [pc, #124]	; (8001c58 <HAL_DMA_Abort_IT+0xd8>)
 8001bdc:	4293      	cmp	r3, r2
 8001bde:	d01a      	beq.n	8001c16 <HAL_DMA_Abort_IT+0x96>
 8001be0:	687b      	ldr	r3, [r7, #4]
 8001be2:	681b      	ldr	r3, [r3, #0]
 8001be4:	4a1d      	ldr	r2, [pc, #116]	; (8001c5c <HAL_DMA_Abort_IT+0xdc>)
 8001be6:	4293      	cmp	r3, r2
 8001be8:	d012      	beq.n	8001c10 <HAL_DMA_Abort_IT+0x90>
 8001bea:	687b      	ldr	r3, [r7, #4]
 8001bec:	681b      	ldr	r3, [r3, #0]
 8001bee:	4a1c      	ldr	r2, [pc, #112]	; (8001c60 <HAL_DMA_Abort_IT+0xe0>)
 8001bf0:	4293      	cmp	r3, r2
 8001bf2:	d00a      	beq.n	8001c0a <HAL_DMA_Abort_IT+0x8a>
 8001bf4:	687b      	ldr	r3, [r7, #4]
 8001bf6:	681b      	ldr	r3, [r3, #0]
 8001bf8:	4a1a      	ldr	r2, [pc, #104]	; (8001c64 <HAL_DMA_Abort_IT+0xe4>)
 8001bfa:	4293      	cmp	r3, r2
 8001bfc:	d102      	bne.n	8001c04 <HAL_DMA_Abort_IT+0x84>
 8001bfe:	f44f 1380 	mov.w	r3, #1048576	; 0x100000
 8001c02:	e00e      	b.n	8001c22 <HAL_DMA_Abort_IT+0xa2>
 8001c04:	f04f 7380 	mov.w	r3, #16777216	; 0x1000000
 8001c08:	e00b      	b.n	8001c22 <HAL_DMA_Abort_IT+0xa2>
 8001c0a:	f44f 3380 	mov.w	r3, #65536	; 0x10000
 8001c0e:	e008      	b.n	8001c22 <HAL_DMA_Abort_IT+0xa2>
 8001c10:	f44f 5380 	mov.w	r3, #4096	; 0x1000
 8001c14:	e005      	b.n	8001c22 <HAL_DMA_Abort_IT+0xa2>
 8001c16:	f44f 7380 	mov.w	r3, #256	; 0x100
 8001c1a:	e002      	b.n	8001c22 <HAL_DMA_Abort_IT+0xa2>
 8001c1c:	2310      	movs	r3, #16
 8001c1e:	e000      	b.n	8001c22 <HAL_DMA_Abort_IT+0xa2>
 8001c20:	2301      	movs	r3, #1
 8001c22:	4a11      	ldr	r2, [pc, #68]	; (8001c68 <HAL_DMA_Abort_IT+0xe8>)
 8001c24:	6053      	str	r3, [r2, #4]

    /* Change the DMA state */
    hdma->State = HAL_DMA_STATE_READY;
 8001c26:	687b      	ldr	r3, [r7, #4]
 8001c28:	2201      	movs	r2, #1
 8001c2a:	f883 2021 	strb.w	r2, [r3, #33]	; 0x21

    /* Process Unlocked */
    __HAL_UNLOCK(hdma);
 8001c2e:	687b      	ldr	r3, [r7, #4]
 8001c30:	2200      	movs	r2, #0
 8001c32:	f883 2020 	strb.w	r2, [r3, #32]

    /* Call User Abort callback */
    if(hdma->XferAbortCallback != NULL)
 8001c36:	687b      	ldr	r3, [r7, #4]
 8001c38:	6b5b      	ldr	r3, [r3, #52]	; 0x34
 8001c3a:	2b00      	cmp	r3, #0
 8001c3c:	d003      	beq.n	8001c46 <HAL_DMA_Abort_IT+0xc6>
    {
      hdma->XferAbortCallback(hdma);
 8001c3e:	687b      	ldr	r3, [r7, #4]
 8001c40:	6b5b      	ldr	r3, [r3, #52]	; 0x34
 8001c42:	6878      	ldr	r0, [r7, #4]
 8001c44:	4798      	blx	r3
    } 
  }
  return status;
 8001c46:	7bfb      	ldrb	r3, [r7, #15]
}
 8001c48:	4618      	mov	r0, r3
 8001c4a:	3710      	adds	r7, #16
 8001c4c:	46bd      	mov	sp, r7
 8001c4e:	bd80      	pop	{r7, pc}
 8001c50:	40020008 	.word	0x40020008
 8001c54:	4002001c 	.word	0x4002001c
 8001c58:	40020030 	.word	0x40020030
 8001c5c:	40020044 	.word	0x40020044
 8001c60:	40020058 	.word	0x40020058
 8001c64:	4002006c 	.word	0x4002006c
 8001c68:	40020000 	.word	0x40020000

08001c6c <HAL_DMA_IRQHandler>:
  * @param  hdma: pointer to a DMA_HandleTypeDef structure that contains
  *               the configuration information for the specified DMA Channel.  
  * @retval None
  */
void HAL_DMA_IRQHandler(DMA_HandleTypeDef *hdma)
{
 8001c6c:	b580      	push	{r7, lr}
 8001c6e:	b084      	sub	sp, #16
 8001c70:	af00      	add	r7, sp, #0
 8001c72:	6078      	str	r0, [r7, #4]
  uint32_t flag_it = hdma->DmaBaseAddress->ISR;
 8001c74:	687b      	ldr	r3, [r7, #4]
 8001c76:	6bdb      	ldr	r3, [r3, #60]	; 0x3c
 8001c78:	681b      	ldr	r3, [r3, #0]
 8001c7a:	60fb      	str	r3, [r7, #12]
  uint32_t source_it = hdma->Instance->CCR;
 8001c7c:	687b      	ldr	r3, [r7, #4]
 8001c7e:	681b      	ldr	r3, [r3, #0]
 8001c80:	681b      	ldr	r3, [r3, #0]
 8001c82:	60bb      	str	r3, [r7, #8]
  
  /* Half Transfer Complete Interrupt management ******************************/
  if (((flag_it & (DMA_FLAG_HT1 << hdma->ChannelIndex)) != RESET) && ((source_it & DMA_IT_HT) != RESET))
 8001c84:	687b      	ldr	r3, [r7, #4]
 8001c86:	6c1b      	ldr	r3, [r3, #64]	; 0x40
 8001c88:	2204      	movs	r2, #4
 8001c8a:	409a      	lsls	r2, r3
 8001c8c:	68fb      	ldr	r3, [r7, #12]
 8001c8e:	4013      	ands	r3, r2
 8001c90:	2b00      	cmp	r3, #0
 8001c92:	d04f      	beq.n	8001d34 <HAL_DMA_IRQHandler+0xc8>
 8001c94:	68bb      	ldr	r3, [r7, #8]
 8001c96:	f003 0304 	and.w	r3, r3, #4
 8001c9a:	2b00      	cmp	r3, #0
 8001c9c:	d04a      	beq.n	8001d34 <HAL_DMA_IRQHandler+0xc8>
  {
    /* Disable the half transfer interrupt if the DMA mode is not CIRCULAR */
    if((hdma->Instance->CCR & DMA_CCR_CIRC) == 0U)
 8001c9e:	687b      	ldr	r3, [r7, #4]
 8001ca0:	681b      	ldr	r3, [r3, #0]
 8001ca2:	681b      	ldr	r3, [r3, #0]
 8001ca4:	f003 0320 	and.w	r3, r3, #32
 8001ca8:	2b00      	cmp	r3, #0
 8001caa:	d107      	bne.n	8001cbc <HAL_DMA_IRQHandler+0x50>
    {
      /* Disable the half transfer interrupt */
      __HAL_DMA_DISABLE_IT(hdma, DMA_IT_HT);
 8001cac:	687b      	ldr	r3, [r7, #4]
 8001cae:	681b      	ldr	r3, [r3, #0]
 8001cb0:	681a      	ldr	r2, [r3, #0]
 8001cb2:	687b      	ldr	r3, [r7, #4]
 8001cb4:	681b      	ldr	r3, [r3, #0]
 8001cb6:	f022 0204 	bic.w	r2, r2, #4
 8001cba:	601a      	str	r2, [r3, #0]
    }
    /* Clear the half transfer complete flag */
    __HAL_DMA_CLEAR_FLAG(hdma, __HAL_DMA_GET_HT_FLAG_INDEX(hdma));
 8001cbc:	687b      	ldr	r3, [r7, #4]
 8001cbe:	681b      	ldr	r3, [r3, #0]
 8001cc0:	4a66      	ldr	r2, [pc, #408]	; (8001e5c <HAL_DMA_IRQHandler+0x1f0>)
 8001cc2:	4293      	cmp	r3, r2
 8001cc4:	d029      	beq.n	8001d1a <HAL_DMA_IRQHandler+0xae>
 8001cc6:	687b      	ldr	r3, [r7, #4]
 8001cc8:	681b      	ldr	r3, [r3, #0]
 8001cca:	4a65      	ldr	r2, [pc, #404]	; (8001e60 <HAL_DMA_IRQHandler+0x1f4>)
 8001ccc:	4293      	cmp	r3, r2
 8001cce:	d022      	beq.n	8001d16 <HAL_DMA_IRQHandler+0xaa>
 8001cd0:	687b      	ldr	r3, [r7, #4]
 8001cd2:	681b      	ldr	r3, [r3, #0]
 8001cd4:	4a63      	ldr	r2, [pc, #396]	; (8001e64 <HAL_DMA_IRQHandler+0x1f8>)
 8001cd6:	4293      	cmp	r3, r2
 8001cd8:	d01a      	beq.n	8001d10 <HAL_DMA_IRQHandler+0xa4>
 8001cda:	687b      	ldr	r3, [r7, #4]
 8001cdc:	681b      	ldr	r3, [r3, #0]
 8001cde:	4a62      	ldr	r2, [pc, #392]	; (8001e68 <HAL_DMA_IRQHandler+0x1fc>)
 8001ce0:	4293      	cmp	r3, r2
 8001ce2:	d012      	beq.n	8001d0a <HAL_DMA_IRQHandler+0x9e>
 8001ce4:	687b      	ldr	r3, [r7, #4]
 8001ce6:	681b      	ldr	r3, [r3, #0]
 8001ce8:	4a60      	ldr	r2, [pc, #384]	; (8001e6c <HAL_DMA_IRQHandler+0x200>)
 8001cea:	4293      	cmp	r3, r2
 8001cec:	d00a      	beq.n	8001d04 <HAL_DMA_IRQHandler+0x98>
 8001cee:	687b      	ldr	r3, [r7, #4]
 8001cf0:	681b      	ldr	r3, [r3, #0]
 8001cf2:	4a5f      	ldr	r2, [pc, #380]	; (8001e70 <HAL_DMA_IRQHandler+0x204>)
 8001cf4:	4293      	cmp	r3, r2
 8001cf6:	d102      	bne.n	8001cfe <HAL_DMA_IRQHandler+0x92>
 8001cf8:	f44f 0380 	mov.w	r3, #4194304	; 0x400000
 8001cfc:	e00e      	b.n	8001d1c <HAL_DMA_IRQHandler+0xb0>
 8001cfe:	f04f 6380 	mov.w	r3, #67108864	; 0x4000000
 8001d02:	e00b      	b.n	8001d1c <HAL_DMA_IRQHandler+0xb0>
 8001d04:	f44f 2380 	mov.w	r3, #262144	; 0x40000
 8001d08:	e008      	b.n	8001d1c <HAL_DMA_IRQHandler+0xb0>
 8001d0a:	f44f 4380 	mov.w	r3, #16384	; 0x4000
 8001d0e:	e005      	b.n	8001d1c <HAL_DMA_IRQHandler+0xb0>
 8001d10:	f44f 6380 	mov.w	r3, #1024	; 0x400
 8001d14:	e002      	b.n	8001d1c <HAL_DMA_IRQHandler+0xb0>
 8001d16:	2340      	movs	r3, #64	; 0x40
 8001d18:	e000      	b.n	8001d1c <HAL_DMA_IRQHandler+0xb0>
 8001d1a:	2304      	movs	r3, #4
 8001d1c:	4a55      	ldr	r2, [pc, #340]	; (8001e74 <HAL_DMA_IRQHandler+0x208>)
 8001d1e:	6053      	str	r3, [r2, #4]

    /* DMA peripheral state is not updated in Half Transfer */
    /* but in Transfer Complete case */

    if(hdma->XferHalfCpltCallback != NULL)
 8001d20:	687b      	ldr	r3, [r7, #4]
 8001d22:	6adb      	ldr	r3, [r3, #44]	; 0x2c
 8001d24:	2b00      	cmp	r3, #0
 8001d26:	f000 8094 	beq.w	8001e52 <HAL_DMA_IRQHandler+0x1e6>
    {
      /* Half transfer callback */
      hdma->XferHalfCpltCallback(hdma);
 8001d2a:	687b      	ldr	r3, [r7, #4]
 8001d2c:	6adb      	ldr	r3, [r3, #44]	; 0x2c
 8001d2e:	6878      	ldr	r0, [r7, #4]
 8001d30:	4798      	blx	r3
    if(hdma->XferHalfCpltCallback != NULL)
 8001d32:	e08e      	b.n	8001e52 <HAL_DMA_IRQHandler+0x1e6>
    }
  }

  /* Transfer Complete Interrupt management ***********************************/
  else if (((flag_it & (DMA_FLAG_TC1 << hdma->ChannelIndex)) != RESET) && ((source_it & DMA_IT_TC) != RESET))
 8001d34:	687b      	ldr	r3, [r7, #4]
 8001d36:	6c1b      	ldr	r3, [r3, #64]	; 0x40
 8001d38:	2202      	movs	r2, #2
 8001d3a:	409a      	lsls	r2, r3
 8001d3c:	68fb      	ldr	r3, [r7, #12]
 8001d3e:	4013      	ands	r3, r2
 8001d40:	2b00      	cmp	r3, #0
 8001d42:	d056      	beq.n	8001df2 <HAL_DMA_IRQHandler+0x186>
 8001d44:	68bb      	ldr	r3, [r7, #8]
 8001d46:	f003 0302 	and.w	r3, r3, #2
 8001d4a:	2b00      	cmp	r3, #0
 8001d4c:	d051      	beq.n	8001df2 <HAL_DMA_IRQHandler+0x186>
  {
    if((hdma->Instance->CCR & DMA_CCR_CIRC) == 0U)
 8001d4e:	687b      	ldr	r3, [r7, #4]
 8001d50:	681b      	ldr	r3, [r3, #0]
 8001d52:	681b      	ldr	r3, [r3, #0]
 8001d54:	f003 0320 	and.w	r3, r3, #32
 8001d58:	2b00      	cmp	r3, #0
 8001d5a:	d10b      	bne.n	8001d74 <HAL_DMA_IRQHandler+0x108>
    {
      /* Disable the transfer complete and error interrupt */
      __HAL_DMA_DISABLE_IT(hdma, DMA_IT_TE | DMA_IT_TC);  
 8001d5c:	687b      	ldr	r3, [r7, #4]
 8001d5e:	681b      	ldr	r3, [r3, #0]
 8001d60:	681a      	ldr	r2, [r3, #0]
 8001d62:	687b      	ldr	r3, [r7, #4]
 8001d64:	681b      	ldr	r3, [r3, #0]
 8001d66:	f022 020a 	bic.w	r2, r2, #10
 8001d6a:	601a      	str	r2, [r3, #0]

      /* Change the DMA state */
      hdma->State = HAL_DMA_STATE_READY;
 8001d6c:	687b      	ldr	r3, [r7, #4]
 8001d6e:	2201      	movs	r2, #1
 8001d70:	f883 2021 	strb.w	r2, [r3, #33]	; 0x21
    }
    /* Clear the transfer complete flag */
      __HAL_DMA_CLEAR_FLAG(hdma, __HAL_DMA_GET_TC_FLAG_INDEX(hdma));
 8001d74:	687b      	ldr	r3, [r7, #4]
 8001d76:	681b      	ldr	r3, [r3, #0]
 8001d78:	4a38      	ldr	r2, [pc, #224]	; (8001e5c <HAL_DMA_IRQHandler+0x1f0>)
 8001d7a:	4293      	cmp	r3, r2
 8001d7c:	d029      	beq.n	8001dd2 <HAL_DMA_IRQHandler+0x166>
 8001d7e:	687b      	ldr	r3, [r7, #4]
 8001d80:	681b      	ldr	r3, [r3, #0]
 8001d82:	4a37      	ldr	r2, [pc, #220]	; (8001e60 <HAL_DMA_IRQHandler+0x1f4>)
 8001d84:	4293      	cmp	r3, r2
 8001d86:	d022      	beq.n	8001dce <HAL_DMA_IRQHandler+0x162>
 8001d88:	687b      	ldr	r3, [r7, #4]
 8001d8a:	681b      	ldr	r3, [r3, #0]
 8001d8c:	4a35      	ldr	r2, [pc, #212]	; (8001e64 <HAL_DMA_IRQHandler+0x1f8>)
 8001d8e:	4293      	cmp	r3, r2
 8001d90:	d01a      	beq.n	8001dc8 <HAL_DMA_IRQHandler+0x15c>
 8001d92:	687b      	ldr	r3, [r7, #4]
 8001d94:	681b      	ldr	r3, [r3, #0]
 8001d96:	4a34      	ldr	r2, [pc, #208]	; (8001e68 <HAL_DMA_IRQHandler+0x1fc>)
 8001d98:	4293      	cmp	r3, r2
 8001d9a:	d012      	beq.n	8001dc2 <HAL_DMA_IRQHandler+0x156>
 8001d9c:	687b      	ldr	r3, [r7, #4]
 8001d9e:	681b      	ldr	r3, [r3, #0]
 8001da0:	4a32      	ldr	r2, [pc, #200]	; (8001e6c <HAL_DMA_IRQHandler+0x200>)
 8001da2:	4293      	cmp	r3, r2
 8001da4:	d00a      	beq.n	8001dbc <HAL_DMA_IRQHandler+0x150>
 8001da6:	687b      	ldr	r3, [r7, #4]
 8001da8:	681b      	ldr	r3, [r3, #0]
 8001daa:	4a31      	ldr	r2, [pc, #196]	; (8001e70 <HAL_DMA_IRQHandler+0x204>)
 8001dac:	4293      	cmp	r3, r2
 8001dae:	d102      	bne.n	8001db6 <HAL_DMA_IRQHandler+0x14a>
 8001db0:	f44f 1300 	mov.w	r3, #2097152	; 0x200000
 8001db4:	e00e      	b.n	8001dd4 <HAL_DMA_IRQHandler+0x168>
 8001db6:	f04f 7300 	mov.w	r3, #33554432	; 0x2000000
 8001dba:	e00b      	b.n	8001dd4 <HAL_DMA_IRQHandler+0x168>
 8001dbc:	f44f 3300 	mov.w	r3, #131072	; 0x20000
 8001dc0:	e008      	b.n	8001dd4 <HAL_DMA_IRQHandler+0x168>
 8001dc2:	f44f 5300 	mov.w	r3, #8192	; 0x2000
 8001dc6:	e005      	b.n	8001dd4 <HAL_DMA_IRQHandler+0x168>
 8001dc8:	f44f 7300 	mov.w	r3, #512	; 0x200
 8001dcc:	e002      	b.n	8001dd4 <HAL_DMA_IRQHandler+0x168>
 8001dce:	2320      	movs	r3, #32
 8001dd0:	e000      	b.n	8001dd4 <HAL_DMA_IRQHandler+0x168>
 8001dd2:	2302      	movs	r3, #2
 8001dd4:	4a27      	ldr	r2, [pc, #156]	; (8001e74 <HAL_DMA_IRQHandler+0x208>)
 8001dd6:	6053      	str	r3, [r2, #4]

    /* Process Unlocked */
    __HAL_UNLOCK(hdma);
 8001dd8:	687b      	ldr	r3, [r7, #4]
 8001dda:	2200      	movs	r2, #0
 8001ddc:	f883 2020 	strb.w	r2, [r3, #32]

    if(hdma->XferCpltCallback != NULL)
 8001de0:	687b      	ldr	r3, [r7, #4]
 8001de2:	6a9b      	ldr	r3, [r3, #40]	; 0x28
 8001de4:	2b00      	cmp	r3, #0
 8001de6:	d034      	beq.n	8001e52 <HAL_DMA_IRQHandler+0x1e6>
    {
      /* Transfer complete callback */
      hdma->XferCpltCallback(hdma);
 8001de8:	687b      	ldr	r3, [r7, #4]
 8001dea:	6a9b      	ldr	r3, [r3, #40]	; 0x28
 8001dec:	6878      	ldr	r0, [r7, #4]
 8001dee:	4798      	blx	r3
    if(hdma->XferCpltCallback != NULL)
 8001df0:	e02f      	b.n	8001e52 <HAL_DMA_IRQHandler+0x1e6>
    }
  }

  /* Transfer Error Interrupt management **************************************/
  else if (( RESET != (flag_it & (DMA_FLAG_TE1 << hdma->ChannelIndex))) && (RESET != (source_it & DMA_IT_TE)))
 8001df2:	687b      	ldr	r3, [r7, #4]
 8001df4:	6c1b      	ldr	r3, [r3, #64]	; 0x40
 8001df6:	2208      	movs	r2, #8
 8001df8:	409a      	lsls	r2, r3
 8001dfa:	68fb      	ldr	r3, [r7, #12]
 8001dfc:	4013      	ands	r3, r2
 8001dfe:	2b00      	cmp	r3, #0
 8001e00:	d028      	beq.n	8001e54 <HAL_DMA_IRQHandler+0x1e8>
 8001e02:	68bb      	ldr	r3, [r7, #8]
 8001e04:	f003 0308 	and.w	r3, r3, #8
 8001e08:	2b00      	cmp	r3, #0
 8001e0a:	d023      	beq.n	8001e54 <HAL_DMA_IRQHandler+0x1e8>
  {
    /* When a DMA transfer error occurs */
    /* A hardware clear of its EN bits is performed */
    /* Disable ALL DMA IT */
    __HAL_DMA_DISABLE_IT(hdma, (DMA_IT_TC | DMA_IT_HT | DMA_IT_TE));
 8001e0c:	687b      	ldr	r3, [r7, #4]
 8001e0e:	681b      	ldr	r3, [r3, #0]
 8001e10:	681a      	ldr	r2, [r3, #0]
 8001e12:	687b      	ldr	r3, [r7, #4]
 8001e14:	681b      	ldr	r3, [r3, #0]
 8001e16:	f022 020e 	bic.w	r2, r2, #14
 8001e1a:	601a      	str	r2, [r3, #0]

    /* Clear all flags */
    hdma->DmaBaseAddress->IFCR = (DMA_ISR_GIF1 << hdma->ChannelIndex);
 8001e1c:	687b      	ldr	r3, [r7, #4]
 8001e1e:	6c1a      	ldr	r2, [r3, #64]	; 0x40
 8001e20:	687b      	ldr	r3, [r7, #4]
 8001e22:	6bdb      	ldr	r3, [r3, #60]	; 0x3c
 8001e24:	2101      	movs	r1, #1
 8001e26:	fa01 f202 	lsl.w	r2, r1, r2
 8001e2a:	605a      	str	r2, [r3, #4]

    /* Update error code */
    hdma->ErrorCode = HAL_DMA_ERROR_TE;
 8001e2c:	687b      	ldr	r3, [r7, #4]
 8001e2e:	2201      	movs	r2, #1
 8001e30:	639a      	str	r2, [r3, #56]	; 0x38

    /* Change the DMA state */
    hdma->State = HAL_DMA_STATE_READY;
 8001e32:	687b      	ldr	r3, [r7, #4]
 8001e34:	2201      	movs	r2, #1
 8001e36:	f883 2021 	strb.w	r2, [r3, #33]	; 0x21

    /* Process Unlocked */
    __HAL_UNLOCK(hdma);
 8001e3a:	687b      	ldr	r3, [r7, #4]
 8001e3c:	2200      	movs	r2, #0
 8001e3e:	f883 2020 	strb.w	r2, [r3, #32]

    if (hdma->XferErrorCallback != NULL)
 8001e42:	687b      	ldr	r3, [r7, #4]
 8001e44:	6b1b      	ldr	r3, [r3, #48]	; 0x30
 8001e46:	2b00      	cmp	r3, #0
 8001e48:	d004      	beq.n	8001e54 <HAL_DMA_IRQHandler+0x1e8>
    {
      /* Transfer error callback */
      hdma->XferErrorCallback(hdma);
 8001e4a:	687b      	ldr	r3, [r7, #4]
 8001e4c:	6b1b      	ldr	r3, [r3, #48]	; 0x30
 8001e4e:	6878      	ldr	r0, [r7, #4]
 8001e50:	4798      	blx	r3
    }
  }
  return;
 8001e52:	bf00      	nop
 8001e54:	bf00      	nop
}
 8001e56:	3710      	adds	r7, #16
 8001e58:	46bd      	mov	sp, r7
 8001e5a:	bd80      	pop	{r7, pc}
 8001e5c:	40020008 	.word	0x40020008
 8001e60:	4002001c 	.word	0x4002001c
 8001e64:	40020030 	.word	0x40020030
 8001e68:	40020044 	.word	0x40020044
 8001e6c:	40020058 	.word	0x40020058
 8001e70:	4002006c 	.word	0x4002006c
 8001e74:	40020000 	.word	0x40020000

08001e78 <DMA_SetConfig>:
  * @param  DstAddress: The destination memory Buffer address
  * @param  DataLength: The length of data to be transferred from source to destination
  * @retval HAL status
  */
static void DMA_SetConfig(DMA_HandleTypeDef *hdma, uint32_t SrcAddress, uint32_t DstAddress, uint32_t DataLength)
{
 8001e78:	b480      	push	{r7}
 8001e7a:	b085      	sub	sp, #20
 8001e7c:	af00      	add	r7, sp, #0
 8001e7e:	60f8      	str	r0, [r7, #12]
 8001e80:	60b9      	str	r1, [r7, #8]
 8001e82:	607a      	str	r2, [r7, #4]
 8001e84:	603b      	str	r3, [r7, #0]
  /* Clear all flags */
  hdma->DmaBaseAddress->IFCR = (DMA_ISR_GIF1 << hdma->ChannelIndex);
 8001e86:	68fb      	ldr	r3, [r7, #12]
 8001e88:	6c1a      	ldr	r2, [r3, #64]	; 0x40
 8001e8a:	68fb      	ldr	r3, [r7, #12]
 8001e8c:	6bdb      	ldr	r3, [r3, #60]	; 0x3c
 8001e8e:	2101      	movs	r1, #1
 8001e90:	fa01 f202 	lsl.w	r2, r1, r2
 8001e94:	605a      	str	r2, [r3, #4]

  /* Configure DMA Channel data length */
  hdma->Instance->CNDTR = DataLength;
 8001e96:	68fb      	ldr	r3, [r7, #12]
 8001e98:	681b      	ldr	r3, [r3, #0]
 8001e9a:	683a      	ldr	r2, [r7, #0]
 8001e9c:	605a      	str	r2, [r3, #4]

  /* Memory to Peripheral */
  if((hdma->Init.Direction) == DMA_MEMORY_TO_PERIPH)
 8001e9e:	68fb      	ldr	r3, [r7, #12]
 8001ea0:	685b      	ldr	r3, [r3, #4]
 8001ea2:	2b10      	cmp	r3, #16
 8001ea4:	d108      	bne.n	8001eb8 <DMA_SetConfig+0x40>
  {
    /* Configure DMA Channel destination address */
    hdma->Instance->CPAR = DstAddress;
 8001ea6:	68fb      	ldr	r3, [r7, #12]
 8001ea8:	681b      	ldr	r3, [r3, #0]
 8001eaa:	687a      	ldr	r2, [r7, #4]
 8001eac:	609a      	str	r2, [r3, #8]

    /* Configure DMA Channel source address */
    hdma->Instance->CMAR = SrcAddress;
 8001eae:	68fb      	ldr	r3, [r7, #12]
 8001eb0:	681b      	ldr	r3, [r3, #0]
 8001eb2:	68ba      	ldr	r2, [r7, #8]
 8001eb4:	60da      	str	r2, [r3, #12]
    hdma->Instance->CPAR = SrcAddress;

    /* Configure DMA Channel destination address */
    hdma->Instance->CMAR = DstAddress;
  }
}
 8001eb6:	e007      	b.n	8001ec8 <DMA_SetConfig+0x50>
    hdma->Instance->CPAR = SrcAddress;
 8001eb8:	68fb      	ldr	r3, [r7, #12]
 8001eba:	681b      	ldr	r3, [r3, #0]
 8001ebc:	68ba      	ldr	r2, [r7, #8]
 8001ebe:	609a      	str	r2, [r3, #8]
    hdma->Instance->CMAR = DstAddress;
 8001ec0:	68fb      	ldr	r3, [r7, #12]
 8001ec2:	681b      	ldr	r3, [r3, #0]
 8001ec4:	687a      	ldr	r2, [r7, #4]
 8001ec6:	60da      	str	r2, [r3, #12]
}
 8001ec8:	bf00      	nop
 8001eca:	3714      	adds	r7, #20
 8001ecc:	46bd      	mov	sp, r7
 8001ece:	bc80      	pop	{r7}
 8001ed0:	4770      	bx	lr
	...

08001ed4 <HAL_GPIO_Init>:
  * @param  GPIO_Init: pointer to a GPIO_InitTypeDef structure that contains
  *         the configuration information for the specified GPIO peripheral.
  * @retval None
  */
void HAL_GPIO_Init(GPIO_TypeDef  *GPIOx, GPIO_InitTypeDef *GPIO_Init)
{
 8001ed4:	b480      	push	{r7}
 8001ed6:	b08b      	sub	sp, #44	; 0x2c
 8001ed8:	af00      	add	r7, sp, #0
 8001eda:	6078      	str	r0, [r7, #4]
 8001edc:	6039      	str	r1, [r7, #0]
  uint32_t position = 0x00u;
 8001ede:	2300      	movs	r3, #0
 8001ee0:	627b      	str	r3, [r7, #36]	; 0x24
  uint32_t ioposition;
  uint32_t iocurrent;
  uint32_t temp;
  uint32_t config = 0x00u;
 8001ee2:	2300      	movs	r3, #0
 8001ee4:	623b      	str	r3, [r7, #32]
  assert_param(IS_GPIO_ALL_INSTANCE(GPIOx));
  assert_param(IS_GPIO_PIN(GPIO_Init->Pin));
  assert_param(IS_GPIO_MODE(GPIO_Init->Mode));

  /* Configure the port pins */
  while (((GPIO_Init->Pin) >> position) != 0x00u)
 8001ee6:	e169      	b.n	80021bc <HAL_GPIO_Init+0x2e8>
  {
    /* Get the IO position */
    ioposition = (0x01uL << position);
 8001ee8:	2201      	movs	r2, #1
 8001eea:	6a7b      	ldr	r3, [r7, #36]	; 0x24
 8001eec:	fa02 f303 	lsl.w	r3, r2, r3
 8001ef0:	61fb      	str	r3, [r7, #28]

    /* Get the current IO position */
    iocurrent = (uint32_t)(GPIO_Init->Pin) & ioposition;
 8001ef2:	683b      	ldr	r3, [r7, #0]
 8001ef4:	681b      	ldr	r3, [r3, #0]
 8001ef6:	69fa      	ldr	r2, [r7, #28]
 8001ef8:	4013      	ands	r3, r2
 8001efa:	61bb      	str	r3, [r7, #24]

    if (iocurrent == ioposition)
 8001efc:	69ba      	ldr	r2, [r7, #24]
 8001efe:	69fb      	ldr	r3, [r7, #28]
 8001f00:	429a      	cmp	r2, r3
 8001f02:	f040 8158 	bne.w	80021b6 <HAL_GPIO_Init+0x2e2>
    {
      /* Check the Alternate function parameters */
      assert_param(IS_GPIO_AF_INSTANCE(GPIOx));

      /* Based on the required mode, filling config variable with MODEy[1:0] and CNFy[3:2] corresponding bits */
      switch (GPIO_Init->Mode)
 8001f06:	683b      	ldr	r3, [r7, #0]
 8001f08:	685b      	ldr	r3, [r3, #4]
 8001f0a:	4a9a      	ldr	r2, [pc, #616]	; (8002174 <HAL_GPIO_Init+0x2a0>)
 8001f0c:	4293      	cmp	r3, r2
 8001f0e:	d05e      	beq.n	8001fce <HAL_GPIO_Init+0xfa>
 8001f10:	4a98      	ldr	r2, [pc, #608]	; (8002174 <HAL_GPIO_Init+0x2a0>)
 8001f12:	4293      	cmp	r3, r2
 8001f14:	d875      	bhi.n	8002002 <HAL_GPIO_Init+0x12e>
 8001f16:	4a98      	ldr	r2, [pc, #608]	; (8002178 <HAL_GPIO_Init+0x2a4>)
 8001f18:	4293      	cmp	r3, r2
 8001f1a:	d058      	beq.n	8001fce <HAL_GPIO_Init+0xfa>
 8001f1c:	4a96      	ldr	r2, [pc, #600]	; (8002178 <HAL_GPIO_Init+0x2a4>)
 8001f1e:	4293      	cmp	r3, r2
 8001f20:	d86f      	bhi.n	8002002 <HAL_GPIO_Init+0x12e>
 8001f22:	4a96      	ldr	r2, [pc, #600]	; (800217c <HAL_GPIO_Init+0x2a8>)
 8001f24:	4293      	cmp	r3, r2
 8001f26:	d052      	beq.n	8001fce <HAL_GPIO_Init+0xfa>
 8001f28:	4a94      	ldr	r2, [pc, #592]	; (800217c <HAL_GPIO_Init+0x2a8>)
 8001f2a:	4293      	cmp	r3, r2
 8001f2c:	d869      	bhi.n	8002002 <HAL_GPIO_Init+0x12e>
 8001f2e:	4a94      	ldr	r2, [pc, #592]	; (8002180 <HAL_GPIO_Init+0x2ac>)
 8001f30:	4293      	cmp	r3, r2
 8001f32:	d04c      	beq.n	8001fce <HAL_GPIO_Init+0xfa>
 8001f34:	4a92      	ldr	r2, [pc, #584]	; (8002180 <HAL_GPIO_Init+0x2ac>)
 8001f36:	4293      	cmp	r3, r2
 8001f38:	d863      	bhi.n	8002002 <HAL_GPIO_Init+0x12e>
 8001f3a:	4a92      	ldr	r2, [pc, #584]	; (8002184 <HAL_GPIO_Init+0x2b0>)
 8001f3c:	4293      	cmp	r3, r2
 8001f3e:	d046      	beq.n	8001fce <HAL_GPIO_Init+0xfa>
 8001f40:	4a90      	ldr	r2, [pc, #576]	; (8002184 <HAL_GPIO_Init+0x2b0>)
 8001f42:	4293      	cmp	r3, r2
 8001f44:	d85d      	bhi.n	8002002 <HAL_GPIO_Init+0x12e>
 8001f46:	2b12      	cmp	r3, #18
 8001f48:	d82a      	bhi.n	8001fa0 <HAL_GPIO_Init+0xcc>
 8001f4a:	2b12      	cmp	r3, #18
 8001f4c:	d859      	bhi.n	8002002 <HAL_GPIO_Init+0x12e>
 8001f4e:	a201      	add	r2, pc, #4	; (adr r2, 8001f54 <HAL_GPIO_Init+0x80>)
 8001f50:	f852 f023 	ldr.w	pc, [r2, r3, lsl #2]
 8001f54:	08001fcf 	.word	0x08001fcf
 8001f58:	08001fa9 	.word	0x08001fa9
 8001f5c:	08001fbb 	.word	0x08001fbb
 8001f60:	08001ffd 	.word	0x08001ffd
 8001f64:	08002003 	.word	0x08002003
 8001f68:	08002003 	.word	0x08002003
 8001f6c:	08002003 	.word	0x08002003
 8001f70:	08002003 	.word	0x08002003
 8001f74:	08002003 	.word	0x08002003
 8001f78:	08002003 	.word	0x08002003
 8001f7c:	08002003 	.word	0x08002003
 8001f80:	08002003 	.word	0x08002003
 8001f84:	08002003 	.word	0x08002003
 8001f88:	08002003 	.word	0x08002003
 8001f8c:	08002003 	.word	0x08002003
 8001f90:	08002003 	.word	0x08002003
 8001f94:	08002003 	.word	0x08002003
 8001f98:	08001fb1 	.word	0x08001fb1
 8001f9c:	08001fc5 	.word	0x08001fc5
 8001fa0:	4a79      	ldr	r2, [pc, #484]	; (8002188 <HAL_GPIO_Init+0x2b4>)
 8001fa2:	4293      	cmp	r3, r2
 8001fa4:	d013      	beq.n	8001fce <HAL_GPIO_Init+0xfa>
          config = GPIO_CR_MODE_INPUT + GPIO_CR_CNF_ANALOG;
          break;

        /* Parameters are checked with assert_param */
        default:
          break;
 8001fa6:	e02c      	b.n	8002002 <HAL_GPIO_Init+0x12e>
          config = GPIO_Init->Speed + GPIO_CR_CNF_GP_OUTPUT_PP;
 8001fa8:	683b      	ldr	r3, [r7, #0]
 8001faa:	68db      	ldr	r3, [r3, #12]
 8001fac:	623b      	str	r3, [r7, #32]
          break;
 8001fae:	e029      	b.n	8002004 <HAL_GPIO_Init+0x130>
          config = GPIO_Init->Speed + GPIO_CR_CNF_GP_OUTPUT_OD;
 8001fb0:	683b      	ldr	r3, [r7, #0]
 8001fb2:	68db      	ldr	r3, [r3, #12]
 8001fb4:	3304      	adds	r3, #4
 8001fb6:	623b      	str	r3, [r7, #32]
          break;
 8001fb8:	e024      	b.n	8002004 <HAL_GPIO_Init+0x130>
          config = GPIO_Init->Speed + GPIO_CR_CNF_AF_OUTPUT_PP;
 8001fba:	683b      	ldr	r3, [r7, #0]
 8001fbc:	68db      	ldr	r3, [r3, #12]
 8001fbe:	3308      	adds	r3, #8
 8001fc0:	623b      	str	r3, [r7, #32]
          break;
 8001fc2:	e01f      	b.n	8002004 <HAL_GPIO_Init+0x130>
          config = GPIO_Init->Speed + GPIO_CR_CNF_AF_OUTPUT_OD;
 8001fc4:	683b      	ldr	r3, [r7, #0]
 8001fc6:	68db      	ldr	r3, [r3, #12]
 8001fc8:	330c      	adds	r3, #12
 8001fca:	623b      	str	r3, [r7, #32]
          break;
 8001fcc:	e01a      	b.n	8002004 <HAL_GPIO_Init+0x130>
          if (GPIO_Init->Pull == GPIO_NOPULL)
 8001fce:	683b      	ldr	r3, [r7, #0]
 8001fd0:	689b      	ldr	r3, [r3, #8]
 8001fd2:	2b00      	cmp	r3, #0
 8001fd4:	d102      	bne.n	8001fdc <HAL_GPIO_Init+0x108>
            config = GPIO_CR_MODE_INPUT + GPIO_CR_CNF_INPUT_FLOATING;
 8001fd6:	2304      	movs	r3, #4
 8001fd8:	623b      	str	r3, [r7, #32]
          break;
 8001fda:	e013      	b.n	8002004 <HAL_GPIO_Init+0x130>
          else if (GPIO_Init->Pull == GPIO_PULLUP)
 8001fdc:	683b      	ldr	r3, [r7, #0]
 8001fde:	689b      	ldr	r3, [r3, #8]
 8001fe0:	2b01      	cmp	r3, #1
 8001fe2:	d105      	bne.n	8001ff0 <HAL_GPIO_Init+0x11c>
            config = GPIO_CR_MODE_INPUT + GPIO_CR_CNF_INPUT_PU_PD;
 8001fe4:	2308      	movs	r3, #8
 8001fe6:	623b      	str	r3, [r7, #32]
            GPIOx->BSRR = ioposition;
 8001fe8:	687b      	ldr	r3, [r7, #4]
 8001fea:	69fa      	ldr	r2, [r7, #28]
 8001fec:	611a      	str	r2, [r3, #16]
          break;
 8001fee:	e009      	b.n	8002004 <HAL_GPIO_Init+0x130>
            config = GPIO_CR_MODE_INPUT + GPIO_CR_CNF_INPUT_PU_PD;
 8001ff0:	2308      	movs	r3, #8
 8001ff2:	623b      	str	r3, [r7, #32]
            GPIOx->BRR = ioposition;
 8001ff4:	687b      	ldr	r3, [r7, #4]
 8001ff6:	69fa      	ldr	r2, [r7, #28]
 8001ff8:	615a      	str	r2, [r3, #20]
          break;
 8001ffa:	e003      	b.n	8002004 <HAL_GPIO_Init+0x130>
          config = GPIO_CR_MODE_INPUT + GPIO_CR_CNF_ANALOG;
 8001ffc:	2300      	movs	r3, #0
 8001ffe:	623b      	str	r3, [r7, #32]
          break;
 8002000:	e000      	b.n	8002004 <HAL_GPIO_Init+0x130>
          break;
 8002002:	bf00      	nop
      }

      /* Check if the current bit belongs to first half or last half of the pin count number
       in order to address CRH or CRL register*/
      configregister = (iocurrent < GPIO_PIN_8) ? &GPIOx->CRL     : &GPIOx->CRH;
 8002004:	69bb      	ldr	r3, [r7, #24]
 8002006:	2bff      	cmp	r3, #255	; 0xff
 8002008:	d801      	bhi.n	800200e <HAL_GPIO_Init+0x13a>
 800200a:	687b      	ldr	r3, [r7, #4]
 800200c:	e001      	b.n	8002012 <HAL_GPIO_Init+0x13e>
 800200e:	687b      	ldr	r3, [r7, #4]
 8002010:	3304      	adds	r3, #4
 8002012:	617b      	str	r3, [r7, #20]
      registeroffset = (iocurrent < GPIO_PIN_8) ? (position << 2u) : ((position - 8u) << 2u);
 8002014:	69bb      	ldr	r3, [r7, #24]
 8002016:	2bff      	cmp	r3, #255	; 0xff
 8002018:	d802      	bhi.n	8002020 <HAL_GPIO_Init+0x14c>
 800201a:	6a7b      	ldr	r3, [r7, #36]	; 0x24
 800201c:	009b      	lsls	r3, r3, #2
 800201e:	e002      	b.n	8002026 <HAL_GPIO_Init+0x152>
 8002020:	6a7b      	ldr	r3, [r7, #36]	; 0x24
 8002022:	3b08      	subs	r3, #8
 8002024:	009b      	lsls	r3, r3, #2
 8002026:	613b      	str	r3, [r7, #16]

      /* Apply the new configuration of the pin to the register */
      MODIFY_REG((*configregister), ((GPIO_CRL_MODE0 | GPIO_CRL_CNF0) << registeroffset), (config << registeroffset));
 8002028:	697b      	ldr	r3, [r7, #20]
 800202a:	681a      	ldr	r2, [r3, #0]
 800202c:	210f      	movs	r1, #15
 800202e:	693b      	ldr	r3, [r7, #16]
 8002030:	fa01 f303 	lsl.w	r3, r1, r3
 8002034:	43db      	mvns	r3, r3
 8002036:	401a      	ands	r2, r3
 8002038:	6a39      	ldr	r1, [r7, #32]
 800203a:	693b      	ldr	r3, [r7, #16]
 800203c:	fa01 f303 	lsl.w	r3, r1, r3
 8002040:	431a      	orrs	r2, r3
 8002042:	697b      	ldr	r3, [r7, #20]
 8002044:	601a      	str	r2, [r3, #0]

      /*--------------------- EXTI Mode Configuration ------------------------*/
      /* Configure the External Interrupt or event for the current IO */
      if ((GPIO_Init->Mode & EXTI_MODE) == EXTI_MODE)
 8002046:	683b      	ldr	r3, [r7, #0]
 8002048:	685b      	ldr	r3, [r3, #4]
 800204a:	f003 5380 	and.w	r3, r3, #268435456	; 0x10000000
 800204e:	2b00      	cmp	r3, #0
 8002050:	f000 80b1 	beq.w	80021b6 <HAL_GPIO_Init+0x2e2>
      {
        /* Enable AFIO Clock */
        __HAL_RCC_AFIO_CLK_ENABLE();
 8002054:	4b4d      	ldr	r3, [pc, #308]	; (800218c <HAL_GPIO_Init+0x2b8>)
 8002056:	699b      	ldr	r3, [r3, #24]
 8002058:	4a4c      	ldr	r2, [pc, #304]	; (800218c <HAL_GPIO_Init+0x2b8>)
 800205a:	f043 0301 	orr.w	r3, r3, #1
 800205e:	6193      	str	r3, [r2, #24]
 8002060:	4b4a      	ldr	r3, [pc, #296]	; (800218c <HAL_GPIO_Init+0x2b8>)
 8002062:	699b      	ldr	r3, [r3, #24]
 8002064:	f003 0301 	and.w	r3, r3, #1
 8002068:	60bb      	str	r3, [r7, #8]
 800206a:	68bb      	ldr	r3, [r7, #8]
        temp = AFIO->EXTICR[position >> 2u];
 800206c:	4a48      	ldr	r2, [pc, #288]	; (8002190 <HAL_GPIO_Init+0x2bc>)
 800206e:	6a7b      	ldr	r3, [r7, #36]	; 0x24
 8002070:	089b      	lsrs	r3, r3, #2
 8002072:	3302      	adds	r3, #2
 8002074:	f852 3023 	ldr.w	r3, [r2, r3, lsl #2]
 8002078:	60fb      	str	r3, [r7, #12]
        CLEAR_BIT(temp, (0x0Fu) << (4u * (position & 0x03u)));
 800207a:	6a7b      	ldr	r3, [r7, #36]	; 0x24
 800207c:	f003 0303 	and.w	r3, r3, #3
 8002080:	009b      	lsls	r3, r3, #2
 8002082:	220f      	movs	r2, #15
 8002084:	fa02 f303 	lsl.w	r3, r2, r3
 8002088:	43db      	mvns	r3, r3
 800208a:	68fa      	ldr	r2, [r7, #12]
 800208c:	4013      	ands	r3, r2
 800208e:	60fb      	str	r3, [r7, #12]
        SET_BIT(temp, (GPIO_GET_INDEX(GPIOx)) << (4u * (position & 0x03u)));
 8002090:	687b      	ldr	r3, [r7, #4]
 8002092:	4a40      	ldr	r2, [pc, #256]	; (8002194 <HAL_GPIO_Init+0x2c0>)
 8002094:	4293      	cmp	r3, r2
 8002096:	d013      	beq.n	80020c0 <HAL_GPIO_Init+0x1ec>
 8002098:	687b      	ldr	r3, [r7, #4]
 800209a:	4a3f      	ldr	r2, [pc, #252]	; (8002198 <HAL_GPIO_Init+0x2c4>)
 800209c:	4293      	cmp	r3, r2
 800209e:	d00d      	beq.n	80020bc <HAL_GPIO_Init+0x1e8>
 80020a0:	687b      	ldr	r3, [r7, #4]
 80020a2:	4a3e      	ldr	r2, [pc, #248]	; (800219c <HAL_GPIO_Init+0x2c8>)
 80020a4:	4293      	cmp	r3, r2
 80020a6:	d007      	beq.n	80020b8 <HAL_GPIO_Init+0x1e4>
 80020a8:	687b      	ldr	r3, [r7, #4]
 80020aa:	4a3d      	ldr	r2, [pc, #244]	; (80021a0 <HAL_GPIO_Init+0x2cc>)
 80020ac:	4293      	cmp	r3, r2
 80020ae:	d101      	bne.n	80020b4 <HAL_GPIO_Init+0x1e0>
 80020b0:	2303      	movs	r3, #3
 80020b2:	e006      	b.n	80020c2 <HAL_GPIO_Init+0x1ee>
 80020b4:	2304      	movs	r3, #4
 80020b6:	e004      	b.n	80020c2 <HAL_GPIO_Init+0x1ee>
 80020b8:	2302      	movs	r3, #2
 80020ba:	e002      	b.n	80020c2 <HAL_GPIO_Init+0x1ee>
 80020bc:	2301      	movs	r3, #1
 80020be:	e000      	b.n	80020c2 <HAL_GPIO_Init+0x1ee>
 80020c0:	2300      	movs	r3, #0
 80020c2:	6a7a      	ldr	r2, [r7, #36]	; 0x24
 80020c4:	f002 0203 	and.w	r2, r2, #3
 80020c8:	0092      	lsls	r2, r2, #2
 80020ca:	4093      	lsls	r3, r2
 80020cc:	68fa      	ldr	r2, [r7, #12]
 80020ce:	4313      	orrs	r3, r2
 80020d0:	60fb      	str	r3, [r7, #12]
        AFIO->EXTICR[position >> 2u] = temp;
 80020d2:	492f      	ldr	r1, [pc, #188]	; (8002190 <HAL_GPIO_Init+0x2bc>)
 80020d4:	6a7b      	ldr	r3, [r7, #36]	; 0x24
 80020d6:	089b      	lsrs	r3, r3, #2
 80020d8:	3302      	adds	r3, #2
 80020da:	68fa      	ldr	r2, [r7, #12]
 80020dc:	f841 2023 	str.w	r2, [r1, r3, lsl #2]


        /* Configure the interrupt mask */
        if ((GPIO_Init->Mode & GPIO_MODE_IT) == GPIO_MODE_IT)
 80020e0:	683b      	ldr	r3, [r7, #0]
 80020e2:	685b      	ldr	r3, [r3, #4]
 80020e4:	f403 3380 	and.w	r3, r3, #65536	; 0x10000
 80020e8:	2b00      	cmp	r3, #0
 80020ea:	d006      	beq.n	80020fa <HAL_GPIO_Init+0x226>
        {
          SET_BIT(EXTI->IMR, iocurrent);
 80020ec:	4b2d      	ldr	r3, [pc, #180]	; (80021a4 <HAL_GPIO_Init+0x2d0>)
 80020ee:	681a      	ldr	r2, [r3, #0]
 80020f0:	492c      	ldr	r1, [pc, #176]	; (80021a4 <HAL_GPIO_Init+0x2d0>)
 80020f2:	69bb      	ldr	r3, [r7, #24]
 80020f4:	4313      	orrs	r3, r2
 80020f6:	600b      	str	r3, [r1, #0]
 80020f8:	e006      	b.n	8002108 <HAL_GPIO_Init+0x234>
        }
        else
        {
          CLEAR_BIT(EXTI->IMR, iocurrent);
 80020fa:	4b2a      	ldr	r3, [pc, #168]	; (80021a4 <HAL_GPIO_Init+0x2d0>)
 80020fc:	681a      	ldr	r2, [r3, #0]
 80020fe:	69bb      	ldr	r3, [r7, #24]
 8002100:	43db      	mvns	r3, r3
 8002102:	4928      	ldr	r1, [pc, #160]	; (80021a4 <HAL_GPIO_Init+0x2d0>)
 8002104:	4013      	ands	r3, r2
 8002106:	600b      	str	r3, [r1, #0]
        }

        /* Configure the event mask */
        if ((GPIO_Init->Mode & GPIO_MODE_EVT) == GPIO_MODE_EVT)
 8002108:	683b      	ldr	r3, [r7, #0]
 800210a:	685b      	ldr	r3, [r3, #4]
 800210c:	f403 3300 	and.w	r3, r3, #131072	; 0x20000
 8002110:	2b00      	cmp	r3, #0
 8002112:	d006      	beq.n	8002122 <HAL_GPIO_Init+0x24e>
        {
          SET_BIT(EXTI->EMR, iocurrent);
 8002114:	4b23      	ldr	r3, [pc, #140]	; (80021a4 <HAL_GPIO_Init+0x2d0>)
 8002116:	685a      	ldr	r2, [r3, #4]
 8002118:	4922      	ldr	r1, [pc, #136]	; (80021a4 <HAL_GPIO_Init+0x2d0>)
 800211a:	69bb      	ldr	r3, [r7, #24]
 800211c:	4313      	orrs	r3, r2
 800211e:	604b      	str	r3, [r1, #4]
 8002120:	e006      	b.n	8002130 <HAL_GPIO_Init+0x25c>
        }
        else
        {
          CLEAR_BIT(EXTI->EMR, iocurrent);
 8002122:	4b20      	ldr	r3, [pc, #128]	; (80021a4 <HAL_GPIO_Init+0x2d0>)
 8002124:	685a      	ldr	r2, [r3, #4]
 8002126:	69bb      	ldr	r3, [r7, #24]
 8002128:	43db      	mvns	r3, r3
 800212a:	491e      	ldr	r1, [pc, #120]	; (80021a4 <HAL_GPIO_Init+0x2d0>)
 800212c:	4013      	ands	r3, r2
 800212e:	604b      	str	r3, [r1, #4]
        }

        /* Enable or disable the rising trigger */
        if ((GPIO_Init->Mode & RISING_EDGE) == RISING_EDGE)
 8002130:	683b      	ldr	r3, [r7, #0]
 8002132:	685b      	ldr	r3, [r3, #4]
 8002134:	f403 1380 	and.w	r3, r3, #1048576	; 0x100000
 8002138:	2b00      	cmp	r3, #0
 800213a:	d006      	beq.n	800214a <HAL_GPIO_Init+0x276>
        {
          SET_BIT(EXTI->RTSR, iocurrent);
 800213c:	4b19      	ldr	r3, [pc, #100]	; (80021a4 <HAL_GPIO_Init+0x2d0>)
 800213e:	689a      	ldr	r2, [r3, #8]
 8002140:	4918      	ldr	r1, [pc, #96]	; (80021a4 <HAL_GPIO_Init+0x2d0>)
 8002142:	69bb      	ldr	r3, [r7, #24]
 8002144:	4313      	orrs	r3, r2
 8002146:	608b      	str	r3, [r1, #8]
 8002148:	e006      	b.n	8002158 <HAL_GPIO_Init+0x284>
        }
        else
        {
          CLEAR_BIT(EXTI->RTSR, iocurrent);
 800214a:	4b16      	ldr	r3, [pc, #88]	; (80021a4 <HAL_GPIO_Init+0x2d0>)
 800214c:	689a      	ldr	r2, [r3, #8]
 800214e:	69bb      	ldr	r3, [r7, #24]
 8002150:	43db      	mvns	r3, r3
 8002152:	4914      	ldr	r1, [pc, #80]	; (80021a4 <HAL_GPIO_Init+0x2d0>)
 8002154:	4013      	ands	r3, r2
 8002156:	608b      	str	r3, [r1, #8]
        }

        /* Enable or disable the falling trigger */
        if ((GPIO_Init->Mode & FALLING_EDGE) == FALLING_EDGE)
 8002158:	683b      	ldr	r3, [r7, #0]
 800215a:	685b      	ldr	r3, [r3, #4]
 800215c:	f403 1300 	and.w	r3, r3, #2097152	; 0x200000
 8002160:	2b00      	cmp	r3, #0
 8002162:	d021      	beq.n	80021a8 <HAL_GPIO_Init+0x2d4>
        {
          SET_BIT(EXTI->FTSR, iocurrent);
 8002164:	4b0f      	ldr	r3, [pc, #60]	; (80021a4 <HAL_GPIO_Init+0x2d0>)
 8002166:	68da      	ldr	r2, [r3, #12]
 8002168:	490e      	ldr	r1, [pc, #56]	; (80021a4 <HAL_GPIO_Init+0x2d0>)
 800216a:	69bb      	ldr	r3, [r7, #24]
 800216c:	4313      	orrs	r3, r2
 800216e:	60cb      	str	r3, [r1, #12]
 8002170:	e021      	b.n	80021b6 <HAL_GPIO_Init+0x2e2>
 8002172:	bf00      	nop
 8002174:	10320000 	.word	0x10320000
 8002178:	10310000 	.word	0x10310000
 800217c:	10220000 	.word	0x10220000
 8002180:	10210000 	.word	0x10210000
 8002184:	10120000 	.word	0x10120000
 8002188:	10110000 	.word	0x10110000
 800218c:	40021000 	.word	0x40021000
 8002190:	40010000 	.word	0x40010000
 8002194:	40010800 	.word	0x40010800
 8002198:	40010c00 	.word	0x40010c00
 800219c:	40011000 	.word	0x40011000
 80021a0:	40011400 	.word	0x40011400
 80021a4:	40010400 	.word	0x40010400
        }
        else
        {
          CLEAR_BIT(EXTI->FTSR, iocurrent);
 80021a8:	4b0b      	ldr	r3, [pc, #44]	; (80021d8 <HAL_GPIO_Init+0x304>)
 80021aa:	68da      	ldr	r2, [r3, #12]
 80021ac:	69bb      	ldr	r3, [r7, #24]
 80021ae:	43db      	mvns	r3, r3
 80021b0:	4909      	ldr	r1, [pc, #36]	; (80021d8 <HAL_GPIO_Init+0x304>)
 80021b2:	4013      	ands	r3, r2
 80021b4:	60cb      	str	r3, [r1, #12]
        }
      }
    }

	position++;
 80021b6:	6a7b      	ldr	r3, [r7, #36]	; 0x24
 80021b8:	3301      	adds	r3, #1
 80021ba:	627b      	str	r3, [r7, #36]	; 0x24
  while (((GPIO_Init->Pin) >> position) != 0x00u)
 80021bc:	683b      	ldr	r3, [r7, #0]
 80021be:	681a      	ldr	r2, [r3, #0]
 80021c0:	6a7b      	ldr	r3, [r7, #36]	; 0x24
 80021c2:	fa22 f303 	lsr.w	r3, r2, r3
 80021c6:	2b00      	cmp	r3, #0
 80021c8:	f47f ae8e 	bne.w	8001ee8 <HAL_GPIO_Init+0x14>
  }
}
 80021cc:	bf00      	nop
 80021ce:	bf00      	nop
 80021d0:	372c      	adds	r7, #44	; 0x2c
 80021d2:	46bd      	mov	sp, r7
 80021d4:	bc80      	pop	{r7}
 80021d6:	4770      	bx	lr
 80021d8:	40010400 	.word	0x40010400

080021dc <HAL_GPIO_WritePin>:
  *            @arg GPIO_PIN_RESET: to clear the port pin
  *            @arg GPIO_PIN_SET: to set the port pin
  * @retval None
  */
void HAL_GPIO_WritePin(GPIO_TypeDef *GPIOx, uint16_t GPIO_Pin, GPIO_PinState PinState)
{
 80021dc:	b480      	push	{r7}
 80021de:	b083      	sub	sp, #12
 80021e0:	af00      	add	r7, sp, #0
 80021e2:	6078      	str	r0, [r7, #4]
 80021e4:	460b      	mov	r3, r1
 80021e6:	807b      	strh	r3, [r7, #2]
 80021e8:	4613      	mov	r3, r2
 80021ea:	707b      	strb	r3, [r7, #1]
  /* Check the parameters */
  assert_param(IS_GPIO_PIN(GPIO_Pin));
  assert_param(IS_GPIO_PIN_ACTION(PinState));

  if (PinState != GPIO_PIN_RESET)
 80021ec:	787b      	ldrb	r3, [r7, #1]
 80021ee:	2b00      	cmp	r3, #0
 80021f0:	d003      	beq.n	80021fa <HAL_GPIO_WritePin+0x1e>
  {
    GPIOx->BSRR = GPIO_Pin;
 80021f2:	887a      	ldrh	r2, [r7, #2]
 80021f4:	687b      	ldr	r3, [r7, #4]
 80021f6:	611a      	str	r2, [r3, #16]
  }
  else
  {
    GPIOx->BSRR = (uint32_t)GPIO_Pin << 16u;
  }
}
 80021f8:	e003      	b.n	8002202 <HAL_GPIO_WritePin+0x26>
    GPIOx->BSRR = (uint32_t)GPIO_Pin << 16u;
 80021fa:	887b      	ldrh	r3, [r7, #2]
 80021fc:	041a      	lsls	r2, r3, #16
 80021fe:	687b      	ldr	r3, [r7, #4]
 8002200:	611a      	str	r2, [r3, #16]
}
 8002202:	bf00      	nop
 8002204:	370c      	adds	r7, #12
 8002206:	46bd      	mov	sp, r7
 8002208:	bc80      	pop	{r7}
 800220a:	4770      	bx	lr

0800220c <HAL_RCC_OscConfig>:
  *         supported by this macro. User should request a transition to HSE Off
  *         first and then HSE On or HSE Bypass.
  * @retval HAL status
  */
HAL_StatusTypeDef HAL_RCC_OscConfig(RCC_OscInitTypeDef  *RCC_OscInitStruct)
{
 800220c:	b580      	push	{r7, lr}
 800220e:	b086      	sub	sp, #24
 8002210:	af00      	add	r7, sp, #0
 8002212:	6078      	str	r0, [r7, #4]
  uint32_t tickstart;
  uint32_t pll_config;

  /* Check Null pointer */
  if (RCC_OscInitStruct == NULL)
 8002214:	687b      	ldr	r3, [r7, #4]
 8002216:	2b00      	cmp	r3, #0
 8002218:	d101      	bne.n	800221e <HAL_RCC_OscConfig+0x12>
  {
    return HAL_ERROR;
 800221a:	2301      	movs	r3, #1
 800221c:	e26c      	b.n	80026f8 <HAL_RCC_OscConfig+0x4ec>

  /* Check the parameters */
  assert_param(IS_RCC_OSCILLATORTYPE(RCC_OscInitStruct->OscillatorType));

  /*------------------------------- HSE Configuration ------------------------*/
  if (((RCC_OscInitStruct->OscillatorType) & RCC_OSCILLATORTYPE_HSE) == RCC_OSCILLATORTYPE_HSE)
 800221e:	687b      	ldr	r3, [r7, #4]
 8002220:	681b      	ldr	r3, [r3, #0]
 8002222:	f003 0301 	and.w	r3, r3, #1
 8002226:	2b00      	cmp	r3, #0
 8002228:	f000 8087 	beq.w	800233a <HAL_RCC_OscConfig+0x12e>
  {
    /* Check the parameters */
    assert_param(IS_RCC_HSE(RCC_OscInitStruct->HSEState));

    /* When the HSE is used as system clock or clock source for PLL in these cases it is not allowed to be disabled */
    if ((__HAL_RCC_GET_SYSCLK_SOURCE() == RCC_SYSCLKSOURCE_STATUS_HSE)
 800222c:	4b92      	ldr	r3, [pc, #584]	; (8002478 <HAL_RCC_OscConfig+0x26c>)
 800222e:	685b      	ldr	r3, [r3, #4]
 8002230:	f003 030c 	and.w	r3, r3, #12
 8002234:	2b04      	cmp	r3, #4
 8002236:	d00c      	beq.n	8002252 <HAL_RCC_OscConfig+0x46>
        || ((__HAL_RCC_GET_SYSCLK_SOURCE() == RCC_SYSCLKSOURCE_STATUS_PLLCLK) && (__HAL_RCC_GET_PLL_OSCSOURCE() == RCC_PLLSOURCE_HSE)))
 8002238:	4b8f      	ldr	r3, [pc, #572]	; (8002478 <HAL_RCC_OscConfig+0x26c>)
 800223a:	685b      	ldr	r3, [r3, #4]
 800223c:	f003 030c 	and.w	r3, r3, #12
 8002240:	2b08      	cmp	r3, #8
 8002242:	d112      	bne.n	800226a <HAL_RCC_OscConfig+0x5e>
 8002244:	4b8c      	ldr	r3, [pc, #560]	; (8002478 <HAL_RCC_OscConfig+0x26c>)
 8002246:	685b      	ldr	r3, [r3, #4]
 8002248:	f403 3380 	and.w	r3, r3, #65536	; 0x10000
 800224c:	f5b3 3f80 	cmp.w	r3, #65536	; 0x10000
 8002250:	d10b      	bne.n	800226a <HAL_RCC_OscConfig+0x5e>
    {
      if ((__HAL_RCC_GET_FLAG(RCC_FLAG_HSERDY) != RESET) && (RCC_OscInitStruct->HSEState == RCC_HSE_OFF))
 8002252:	4b89      	ldr	r3, [pc, #548]	; (8002478 <HAL_RCC_OscConfig+0x26c>)
 8002254:	681b      	ldr	r3, [r3, #0]
 8002256:	f403 3300 	and.w	r3, r3, #131072	; 0x20000
 800225a:	2b00      	cmp	r3, #0
 800225c:	d06c      	beq.n	8002338 <HAL_RCC_OscConfig+0x12c>
 800225e:	687b      	ldr	r3, [r7, #4]
 8002260:	685b      	ldr	r3, [r3, #4]
 8002262:	2b00      	cmp	r3, #0
 8002264:	d168      	bne.n	8002338 <HAL_RCC_OscConfig+0x12c>
      {
        return HAL_ERROR;
 8002266:	2301      	movs	r3, #1
 8002268:	e246      	b.n	80026f8 <HAL_RCC_OscConfig+0x4ec>
      }
    }
    else
    {
      /* Set the new HSE configuration ---------------------------------------*/
      __HAL_RCC_HSE_CONFIG(RCC_OscInitStruct->HSEState);
 800226a:	687b      	ldr	r3, [r7, #4]
 800226c:	685b      	ldr	r3, [r3, #4]
 800226e:	f5b3 3f80 	cmp.w	r3, #65536	; 0x10000
 8002272:	d106      	bne.n	8002282 <HAL_RCC_OscConfig+0x76>
 8002274:	4b80      	ldr	r3, [pc, #512]	; (8002478 <HAL_RCC_OscConfig+0x26c>)
 8002276:	681b      	ldr	r3, [r3, #0]
 8002278:	4a7f      	ldr	r2, [pc, #508]	; (8002478 <HAL_RCC_OscConfig+0x26c>)
 800227a:	f443 3380 	orr.w	r3, r3, #65536	; 0x10000
 800227e:	6013      	str	r3, [r2, #0]
 8002280:	e02e      	b.n	80022e0 <HAL_RCC_OscConfig+0xd4>
 8002282:	687b      	ldr	r3, [r7, #4]
 8002284:	685b      	ldr	r3, [r3, #4]
 8002286:	2b00      	cmp	r3, #0
 8002288:	d10c      	bne.n	80022a4 <HAL_RCC_OscConfig+0x98>
 800228a:	4b7b      	ldr	r3, [pc, #492]	; (8002478 <HAL_RCC_OscConfig+0x26c>)
 800228c:	681b      	ldr	r3, [r3, #0]
 800228e:	4a7a      	ldr	r2, [pc, #488]	; (8002478 <HAL_RCC_OscConfig+0x26c>)
 8002290:	f423 3380 	bic.w	r3, r3, #65536	; 0x10000
 8002294:	6013      	str	r3, [r2, #0]
 8002296:	4b78      	ldr	r3, [pc, #480]	; (8002478 <HAL_RCC_OscConfig+0x26c>)
 8002298:	681b      	ldr	r3, [r3, #0]
 800229a:	4a77      	ldr	r2, [pc, #476]	; (8002478 <HAL_RCC_OscConfig+0x26c>)
 800229c:	f423 2380 	bic.w	r3, r3, #262144	; 0x40000
 80022a0:	6013      	str	r3, [r2, #0]
 80022a2:	e01d      	b.n	80022e0 <HAL_RCC_OscConfig+0xd4>
 80022a4:	687b      	ldr	r3, [r7, #4]
 80022a6:	685b      	ldr	r3, [r3, #4]
 80022a8:	f5b3 2fa0 	cmp.w	r3, #327680	; 0x50000
 80022ac:	d10c      	bne.n	80022c8 <HAL_RCC_OscConfig+0xbc>
 80022ae:	4b72      	ldr	r3, [pc, #456]	; (8002478 <HAL_RCC_OscConfig+0x26c>)
 80022b0:	681b      	ldr	r3, [r3, #0]
 80022b2:	4a71      	ldr	r2, [pc, #452]	; (8002478 <HAL_RCC_OscConfig+0x26c>)
 80022b4:	f443 2380 	orr.w	r3, r3, #262144	; 0x40000
 80022b8:	6013      	str	r3, [r2, #0]
 80022ba:	4b6f      	ldr	r3, [pc, #444]	; (8002478 <HAL_RCC_OscConfig+0x26c>)
 80022bc:	681b      	ldr	r3, [r3, #0]
 80022be:	4a6e      	ldr	r2, [pc, #440]	; (8002478 <HAL_RCC_OscConfig+0x26c>)
 80022c0:	f443 3380 	orr.w	r3, r3, #65536	; 0x10000
 80022c4:	6013      	str	r3, [r2, #0]
 80022c6:	e00b      	b.n	80022e0 <HAL_RCC_OscConfig+0xd4>
 80022c8:	4b6b      	ldr	r3, [pc, #428]	; (8002478 <HAL_RCC_OscConfig+0x26c>)
 80022ca:	681b      	ldr	r3, [r3, #0]
 80022cc:	4a6a      	ldr	r2, [pc, #424]	; (8002478 <HAL_RCC_OscConfig+0x26c>)
 80022ce:	f423 3380 	bic.w	r3, r3, #65536	; 0x10000
 80022d2:	6013      	str	r3, [r2, #0]
 80022d4:	4b68      	ldr	r3, [pc, #416]	; (8002478 <HAL_RCC_OscConfig+0x26c>)
 80022d6:	681b      	ldr	r3, [r3, #0]
 80022d8:	4a67      	ldr	r2, [pc, #412]	; (8002478 <HAL_RCC_OscConfig+0x26c>)
 80022da:	f423 2380 	bic.w	r3, r3, #262144	; 0x40000
 80022de:	6013      	str	r3, [r2, #0]


      /* Check the HSE State */
      if (RCC_OscInitStruct->HSEState != RCC_HSE_OFF)
 80022e0:	687b      	ldr	r3, [r7, #4]
 80022e2:	685b      	ldr	r3, [r3, #4]
 80022e4:	2b00      	cmp	r3, #0
 80022e6:	d013      	beq.n	8002310 <HAL_RCC_OscConfig+0x104>
      {
        /* Get Start Tick */
        tickstart = HAL_GetTick();
 80022e8:	f7ff fa1a 	bl	8001720 <HAL_GetTick>
 80022ec:	6138      	str	r0, [r7, #16]

        /* Wait till HSE is ready */
        while (__HAL_RCC_GET_FLAG(RCC_FLAG_HSERDY) == RESET)
 80022ee:	e008      	b.n	8002302 <HAL_RCC_OscConfig+0xf6>
        {
          if ((HAL_GetTick() - tickstart) > HSE_TIMEOUT_VALUE)
 80022f0:	f7ff fa16 	bl	8001720 <HAL_GetTick>
 80022f4:	4602      	mov	r2, r0
 80022f6:	693b      	ldr	r3, [r7, #16]
 80022f8:	1ad3      	subs	r3, r2, r3
 80022fa:	2b64      	cmp	r3, #100	; 0x64
 80022fc:	d901      	bls.n	8002302 <HAL_RCC_OscConfig+0xf6>
          {
            return HAL_TIMEOUT;
 80022fe:	2303      	movs	r3, #3
 8002300:	e1fa      	b.n	80026f8 <HAL_RCC_OscConfig+0x4ec>
        while (__HAL_RCC_GET_FLAG(RCC_FLAG_HSERDY) == RESET)
 8002302:	4b5d      	ldr	r3, [pc, #372]	; (8002478 <HAL_RCC_OscConfig+0x26c>)
 8002304:	681b      	ldr	r3, [r3, #0]
 8002306:	f403 3300 	and.w	r3, r3, #131072	; 0x20000
 800230a:	2b00      	cmp	r3, #0
 800230c:	d0f0      	beq.n	80022f0 <HAL_RCC_OscConfig+0xe4>
 800230e:	e014      	b.n	800233a <HAL_RCC_OscConfig+0x12e>
        }
      }
      else
      {
        /* Get Start Tick */
        tickstart = HAL_GetTick();
 8002310:	f7ff fa06 	bl	8001720 <HAL_GetTick>
 8002314:	6138      	str	r0, [r7, #16]

        /* Wait till HSE is disabled */
        while (__HAL_RCC_GET_FLAG(RCC_FLAG_HSERDY) != RESET)
 8002316:	e008      	b.n	800232a <HAL_RCC_OscConfig+0x11e>
        {
          if ((HAL_GetTick() - tickstart) > HSE_TIMEOUT_VALUE)
 8002318:	f7ff fa02 	bl	8001720 <HAL_GetTick>
 800231c:	4602      	mov	r2, r0
 800231e:	693b      	ldr	r3, [r7, #16]
 8002320:	1ad3      	subs	r3, r2, r3
 8002322:	2b64      	cmp	r3, #100	; 0x64
 8002324:	d901      	bls.n	800232a <HAL_RCC_OscConfig+0x11e>
          {
            return HAL_TIMEOUT;
 8002326:	2303      	movs	r3, #3
 8002328:	e1e6      	b.n	80026f8 <HAL_RCC_OscConfig+0x4ec>
        while (__HAL_RCC_GET_FLAG(RCC_FLAG_HSERDY) != RESET)
 800232a:	4b53      	ldr	r3, [pc, #332]	; (8002478 <HAL_RCC_OscConfig+0x26c>)
 800232c:	681b      	ldr	r3, [r3, #0]
 800232e:	f403 3300 	and.w	r3, r3, #131072	; 0x20000
 8002332:	2b00      	cmp	r3, #0
 8002334:	d1f0      	bne.n	8002318 <HAL_RCC_OscConfig+0x10c>
 8002336:	e000      	b.n	800233a <HAL_RCC_OscConfig+0x12e>
      if ((__HAL_RCC_GET_FLAG(RCC_FLAG_HSERDY) != RESET) && (RCC_OscInitStruct->HSEState == RCC_HSE_OFF))
 8002338:	bf00      	nop
        }
      }
    }
  }
  /*----------------------------- HSI Configuration --------------------------*/
  if (((RCC_OscInitStruct->OscillatorType) & RCC_OSCILLATORTYPE_HSI) == RCC_OSCILLATORTYPE_HSI)
 800233a:	687b      	ldr	r3, [r7, #4]
 800233c:	681b      	ldr	r3, [r3, #0]
 800233e:	f003 0302 	and.w	r3, r3, #2
 8002342:	2b00      	cmp	r3, #0
 8002344:	d063      	beq.n	800240e <HAL_RCC_OscConfig+0x202>
    /* Check the parameters */
    assert_param(IS_RCC_HSI(RCC_OscInitStruct->HSIState));
    assert_param(IS_RCC_CALIBRATION_VALUE(RCC_OscInitStruct->HSICalibrationValue));

    /* Check if HSI is used as system clock or as PLL source when PLL is selected as system clock */
    if ((__HAL_RCC_GET_SYSCLK_SOURCE() == RCC_SYSCLKSOURCE_STATUS_HSI)
 8002346:	4b4c      	ldr	r3, [pc, #304]	; (8002478 <HAL_RCC_OscConfig+0x26c>)
 8002348:	685b      	ldr	r3, [r3, #4]
 800234a:	f003 030c 	and.w	r3, r3, #12
 800234e:	2b00      	cmp	r3, #0
 8002350:	d00b      	beq.n	800236a <HAL_RCC_OscConfig+0x15e>
        || ((__HAL_RCC_GET_SYSCLK_SOURCE() == RCC_SYSCLKSOURCE_STATUS_PLLCLK) && (__HAL_RCC_GET_PLL_OSCSOURCE() == RCC_PLLSOURCE_HSI_DIV2)))
 8002352:	4b49      	ldr	r3, [pc, #292]	; (8002478 <HAL_RCC_OscConfig+0x26c>)
 8002354:	685b      	ldr	r3, [r3, #4]
 8002356:	f003 030c 	and.w	r3, r3, #12
 800235a:	2b08      	cmp	r3, #8
 800235c:	d11c      	bne.n	8002398 <HAL_RCC_OscConfig+0x18c>
 800235e:	4b46      	ldr	r3, [pc, #280]	; (8002478 <HAL_RCC_OscConfig+0x26c>)
 8002360:	685b      	ldr	r3, [r3, #4]
 8002362:	f403 3380 	and.w	r3, r3, #65536	; 0x10000
 8002366:	2b00      	cmp	r3, #0
 8002368:	d116      	bne.n	8002398 <HAL_RCC_OscConfig+0x18c>
    {
      /* When HSI is used as system clock it will not disabled */
      if ((__HAL_RCC_GET_FLAG(RCC_FLAG_HSIRDY) != RESET) && (RCC_OscInitStruct->HSIState != RCC_HSI_ON))
 800236a:	4b43      	ldr	r3, [pc, #268]	; (8002478 <HAL_RCC_OscConfig+0x26c>)
 800236c:	681b      	ldr	r3, [r3, #0]
 800236e:	f003 0302 	and.w	r3, r3, #2
 8002372:	2b00      	cmp	r3, #0
 8002374:	d005      	beq.n	8002382 <HAL_RCC_OscConfig+0x176>
 8002376:	687b      	ldr	r3, [r7, #4]
 8002378:	691b      	ldr	r3, [r3, #16]
 800237a:	2b01      	cmp	r3, #1
 800237c:	d001      	beq.n	8002382 <HAL_RCC_OscConfig+0x176>
      {
        return HAL_ERROR;
 800237e:	2301      	movs	r3, #1
 8002380:	e1ba      	b.n	80026f8 <HAL_RCC_OscConfig+0x4ec>
      }
      /* Otherwise, just the calibration is allowed */
      else
      {
        /* Adjusts the Internal High Speed oscillator (HSI) calibration value.*/
        __HAL_RCC_HSI_CALIBRATIONVALUE_ADJUST(RCC_OscInitStruct->HSICalibrationValue);
